{
  "_format": "hh-sol-artifact-1",
  "contractName": "Mover",
  "sourceName": "contracts/Mover.sol",
  "abi": [
    {
      "inputs": [
        {
          "components": [
            {
              "internalType": "uint256",
              "name": "id",
              "type": "uint256"
            },
            {
              "internalType": "string",
              "name": "ownername",
              "type": "string"
            },
            {
              "components": [
                {
                  "internalType": "string",
                  "name": "propertylocation",
                  "type": "string"
                },
                {
                  "internalType": "string",
                  "name": "propertyspace",
                  "type": "string"
                },
                {
                  "internalType": "string",
                  "name": "propertyparkingspace",
                  "type": "string"
                },
                {
                  "internalType": "string",
                  "name": "propertybathroom",
                  "type": "string"
                },
                {
                  "internalType": "string",
                  "name": "propertybedroom",
                  "type": "string"
                },
                {
                  "internalType": "string",
                  "name": "propertycategory",
                  "type": "string"
                },
                {
                  "internalType": "string",
                  "name": "propertytype",
                  "type": "string"
                },
                {
                  "internalType": "string",
                  "name": "propertyduration",
                  "type": "string"
                }
              ],
              "internalType": "struct Mover.Nested",
              "name": "nested",
              "type": "tuple"
            }
          ],
          "internalType": "struct Mover.PropertyOwner",
          "name": "property_",
          "type": "tuple"
        }
      ],
      "name": "addProperty",
      "outputs": [],
      "stateMutability": "payable",
      "type": "function"
    },
    {
      "inputs": [],
      "name": "fetchPropertyOwner",
      "outputs": [
        {
          "components": [
            {
              "internalType": "uint256",
              "name": "id",
              "type": "uint256"
            },
            {
              "internalType": "string",
              "name": "ownername",
              "type": "string"
            },
            {
              "components": [
                {
                  "internalType": "string",
                  "name": "propertylocation",
                  "type": "string"
                },
                {
                  "internalType": "string",
                  "name": "propertyspace",
                  "type": "string"
                },
                {
                  "internalType": "string",
                  "name": "propertyparkingspace",
                  "type": "string"
                },
                {
                  "internalType": "string",
                  "name": "propertybathroom",
                  "type": "string"
                },
                {
                  "internalType": "string",
                  "name": "propertybedroom",
                  "type": "string"
                },
                {
                  "internalType": "string",
                  "name": "propertycategory",
                  "type": "string"
                },
                {
                  "internalType": "string",
                  "name": "propertytype",
                  "type": "string"
                },
                {
                  "internalType": "string",
                  "name": "propertyduration",
                  "type": "string"
                }
              ],
              "internalType": "struct Mover.Nested",
              "name": "nested",
              "type": "tuple"
            }
          ],
          "internalType": "struct Mover.PropertyOwner[]",
          "name": "",
          "type": "tuple[]"
        }
      ],
      "stateMutability": "view",
      "type": "function"
    },
    {
      "inputs": [
        {
          "internalType": "uint256",
          "name": "",
          "type": "uint256"
        }
      ],
      "name": "idPropertyOwner",
      "outputs": [
        {
          "internalType": "uint256",
          "name": "id",
          "type": "uint256"
        },
        {
          "internalType": "string",
          "name": "ownername",
          "type": "string"
        },
        {
          "components": [
            {
              "internalType": "string",
              "name": "propertylocation",
              "type": "string"
            },
            {
              "internalType": "string",
              "name": "propertyspace",
              "type": "string"
            },
            {
              "internalType": "string",
              "name": "propertyparkingspace",
              "type": "string"
            },
            {
              "internalType": "string",
              "name": "propertybathroom",
              "type": "string"
            },
            {
              "internalType": "string",
              "name": "propertybedroom",
              "type": "string"
            },
            {
              "internalType": "string",
              "name": "propertycategory",
              "type": "string"
            },
            {
              "internalType": "string",
              "name": "propertytype",
              "type": "string"
            },
            {
              "internalType": "string",
              "name": "propertyduration",
              "type": "string"
            }
          ],
          "internalType": "struct Mover.Nested",
          "name": "nested",
          "type": "tuple"
        }
      ],
      "stateMutability": "view",
      "type": "function"
    },
    {
      "inputs": [],
      "name": "propertyCount",
      "outputs": [
        {
          "internalType": "uint256",
          "name": "",
          "type": "uint256"
        }
      ],
      "stateMutability": "view",
      "type": "function"
    }
  ],
  "bytecode": "0x6080604052600060015534801561001557600080fd5b5061143d806100256000396000f3fe60806040526004361061003f5760003560e01c80639a7704c714610044578063c361a3351461007c578063cc3261b4146100a0578063e3992ef4146100b5575b600080fd5b34801561005057600080fd5b5061006461005f366004611125565b6100d7565b604051610073939291906112ed565b60405180910390f35b34801561008857600080fd5b5061009260015481565b604051908152602001610073565b6100b36100ae366004610f6e565b61061d565b005b3480156100c157600080fd5b506100ca6107b3565b604051610073919061125d565b600060208190529081526040902080546001820180549192916100f990611385565b80601f016020809104026020016040519081016040528092919081815260200182805461012590611385565b80156101725780601f1061014757610100808354040283529160200191610172565b820191906000526020600020905b81548152906001019060200180831161015557829003601f168201915b505050505090806002016040518061010001604052908160008201805461019890611385565b80601f01602080910402602001604051908101604052809291908181526020018280546101c490611385565b80156102115780601f106101e657610100808354040283529160200191610211565b820191906000526020600020905b8154815290600101906020018083116101f457829003601f168201915b5050505050815260200160018201805461022a90611385565b80601f016020809104026020016040519081016040528092919081815260200182805461025690611385565b80156102a35780601f10610278576101008083540402835291602001916102a3565b820191906000526020600020905b81548152906001019060200180831161028657829003601f168201915b505050505081526020016002820180546102bc90611385565b80601f01602080910402602001604051908101604052809291908181526020018280546102e890611385565b80156103355780601f1061030a57610100808354040283529160200191610335565b820191906000526020600020905b81548152906001019060200180831161031857829003601f168201915b5050505050815260200160038201805461034e90611385565b80601f016020809104026020016040519081016040528092919081815260200182805461037a90611385565b80156103c75780601f1061039c576101008083540402835291602001916103c7565b820191906000526020600020905b8154815290600101906020018083116103aa57829003601f168201915b505050505081526020016004820180546103e090611385565b80601f016020809104026020016040519081016040528092919081815260200182805461040c90611385565b80156104595780601f1061042e57610100808354040283529160200191610459565b820191906000526020600020905b81548152906001019060200180831161043c57829003601f168201915b5050505050815260200160058201805461047290611385565b80601f016020809104026020016040519081016040528092919081815260200182805461049e90611385565b80156104eb5780601f106104c0576101008083540402835291602001916104eb565b820191906000526020600020905b8154815290600101906020018083116104ce57829003601f168201915b5050505050815260200160068201805461050490611385565b80601f016020809104026020016040519081016040528092919081815260200182805461053090611385565b801561057d5780601f106105525761010080835404028352916020019161057d565b820191906000526020600020905b81548152906001019060200180831161056057829003601f168201915b5050505050815260200160078201805461059690611385565b80601f01602080910402602001604051908101604052809291908181526020018280546105c290611385565b801561060f5780601f106105e45761010080835404028352916020019161060f565b820191906000526020600020905b8154815290600101906020018083116105f257829003601f168201915b505050505081525050905083565b60008160200151511161066f5760405162461bcd60e51b815260206004820152601660248201527513dddb995c881b985b59481a5cc81c995c5d5a5c995960521b604482015260640160405180910390fd5b6001805490600061067f836113c0565b90915550506001805460008181526020818152604090912091825583810151805192936106b493908501929190910190610de9565b5060408201515180516106d1916002840191602090910190610de9565b50604082015160209081015180516106ef9260038501920190610de9565b506040808301510151805161070e916004840191602090910190610de9565b50604082015160600151805161072e916005840191602090910190610de9565b50604082015160800151805161074e916006840191602090910190610de9565b50604082015160a00151805161076e916007840191602090910190610de9565b50604082015160c00151805161078e916008840191602090910190610de9565b50604082015160e0015180516107ae916009840191602090910190610de9565b505050565b600154606090600080826001600160401b038111156107e257634e487b7160e01b600052604160045260246000fd5b60405190808252806020026020018201604052801561081b57816020015b610808610e6d565b8152602001906001900390816108005790505b50905060005b83811015610de157600061083682600161136d565b6000818152602081815260409182902082516060810190935280548352600181018054949550909384928401919061086d90611385565b80601f016020809104026020016040519081016040528092919081815260200182805461089990611385565b80156108e65780601f106108bb576101008083540402835291602001916108e6565b820191906000526020600020905b8154815290600101906020018083116108c957829003601f168201915b50505050508152602001600282016040518061010001604052908160008201805461091090611385565b80601f016020809104026020016040519081016040528092919081815260200182805461093c90611385565b80156109895780601f1061095e57610100808354040283529160200191610989565b820191906000526020600020905b81548152906001019060200180831161096c57829003601f168201915b505050505081526020016001820180546109a290611385565b80601f01602080910402602001604051908101604052809291908181526020018280546109ce90611385565b8015610a1b5780601f106109f057610100808354040283529160200191610a1b565b820191906000526020600020905b8154815290600101906020018083116109fe57829003601f168201915b50505050508152602001600282018054610a3490611385565b80601f0160208091040260200160405190810160405280929190818152602001828054610a6090611385565b8015610aad5780601f10610a8257610100808354040283529160200191610aad565b820191906000526020600020905b815481529060010190602001808311610a9057829003601f168201915b50505050508152602001600382018054610ac690611385565b80601f0160208091040260200160405190810160405280929190818152602001828054610af290611385565b8015610b3f5780601f10610b1457610100808354040283529160200191610b3f565b820191906000526020600020905b815481529060010190602001808311610b2257829003601f168201915b50505050508152602001600482018054610b5890611385565b80601f0160208091040260200160405190810160405280929190818152602001828054610b8490611385565b8015610bd15780601f10610ba657610100808354040283529160200191610bd1565b820191906000526020600020905b815481529060010190602001808311610bb457829003601f168201915b50505050508152602001600582018054610bea90611385565b80601f0160208091040260200160405190810160405280929190818152602001828054610c1690611385565b8015610c635780601f10610c3857610100808354040283529160200191610c63565b820191906000526020600020905b815481529060010190602001808311610c4657829003601f168201915b50505050508152602001600682018054610c7c90611385565b80601f0160208091040260200160405190810160405280929190818152602001828054610ca890611385565b8015610cf55780601f10610cca57610100808354040283529160200191610cf5565b820191906000526020600020905b815481529060010190602001808311610cd857829003601f168201915b50505050508152602001600782018054610d0e90611385565b80601f0160208091040260200160405190810160405280929190818152602001828054610d3a90611385565b8015610d875780601f10610d5c57610100808354040283529160200191610d87565b820191906000526020600020905b815481529060010190602001808311610d6a57829003601f168201915b50505050508152505081525050848681518110610db457634e487b7160e01b600052603260045260246000fd5b6020908102919091010152610dca60018661136d565b945050508080610dd9906113c0565b915050610821565b509392505050565b828054610df590611385565b90600052602060002090601f016020900481019282610e175760008555610e5d565b82601f10610e3057805160ff1916838001178555610e5d565b82800160010185558215610e5d579182015b82811115610e5d578251825591602001919060010190610e42565b50610e69929150610ed3565b5090565b60405180606001604052806000815260200160608152602001610ece60405180610100016040528060608152602001606081526020016060815260200160608152602001606081526020016060815260200160608152602001606081525090565b905290565b5b80821115610e695760008155600101610ed4565b600082601f830112610ef8578081fd5b81356001600160401b0380821115610f1257610f126113f1565b604051601f8301601f19908116603f01168101908282118183101715610f3a57610f3a6113f1565b81604052838152866020858801011115610f52578485fd5b8360208701602083013792830160200193909352509392505050565b600060208284031215610f7f578081fd5b81356001600160401b0380821115610f95578283fd5b9083019060608286031215610fa8578283fd5b610fb0611322565b82358152602083013582811115610fc5578485fd5b610fd187828601610ee8565b602083015250604083013582811115610fe8578485fd5b92909201916101008387031215610ffd578384fd5b61100561134a565b833583811115611013578586fd5b61101f88828701610ee8565b825250602084013583811115611033578586fd5b61103f88828701610ee8565b602083015250604084013583811115611056578586fd5b61106288828701610ee8565b604083015250606084013583811115611079578586fd5b61108588828701610ee8565b60608301525060808401358381111561109c578586fd5b6110a888828701610ee8565b60808301525060a0840135838111156110bf578586fd5b6110cb88828701610ee8565b60a08301525060c0840135838111156110e2578586fd5b6110ee88828701610ee8565b60c08301525060e084013583811115611105578586fd5b61111188828701610ee8565b60e083015250604082015295945050505050565b600060208284031215611136578081fd5b5035919050565b60008151808452815b8181101561116257602081850181015186830182015201611146565b818111156111735782602083870101525b50601f01601f19169290920160200192915050565b6000610100825181855261119e8286018261113d565b915050602083015184820360208601526111b8828261113d565b915050604083015184820360408601526111d2828261113d565b915050606083015184820360608601526111ec828261113d565b91505060808301518482036080860152611206828261113d565b91505060a083015184820360a0860152611220828261113d565b91505060c083015184820360c086015261123a828261113d565b91505060e083015184820360e0860152611254828261113d565b95945050505050565b60006020808301818452808551808352604092508286019150828160051b870101848801865b838110156112df57603f19898403018552815160608151855288820151818a8701526112b18287018261113d565b915050878201519150848103888601526112cb8183611188565b968901969450505090860190600101611283565b509098975050505050505050565b838152606060208201526000611306606083018561113d565b82810360408401526113188185611188565b9695505050505050565b604051606081016001600160401b0381118282101715611344576113446113f1565b60405290565b60405161010081016001600160401b0381118282101715611344576113446113f1565b60008219821115611380576113806113db565b500190565b600181811c9082168061139957607f821691505b602082108114156113ba57634e487b7160e01b600052602260045260246000fd5b50919050565b60006000198214156113d4576113d46113db565b5060010190565b634e487b7160e01b600052601160045260246000fd5b634e487b7160e01b600052604160045260246000fdfea2646970667358221220e296e240e3462d939152f145edcea48fa0adc81972727bee9cc0cf61b4c6d58864736f6c63430008040033",
  "linkReferences": {},
  "deployedLinkReferences": {}
}