{
  "_format": "hh-sol-artifact-1",
  "contractName": "Mover",
  "sourceName": "contracts/Mover.sol",
  "abi": [
    {
      "anonymous": false,
      "inputs": [
        {
          "indexed": false,
          "internalType": "uint256",
          "name": "id",
          "type": "uint256"
        },
        {
          "indexed": false,
          "internalType": "address",
          "name": "owner",
          "type": "address"
        },
        {
          "indexed": false,
          "internalType": "string",
          "name": "property",
          "type": "string"
        },
        {
          "indexed": false,
          "internalType": "bool",
          "name": "booked",
          "type": "bool"
        }
      ],
      "name": "AddBook",
      "type": "event"
    },
    {
      "inputs": [
        {
          "components": [
            {
              "internalType": "uint256",
              "name": "id",
              "type": "uint256"
            },
            {
              "internalType": "address",
              "name": "owner",
              "type": "address"
            },
            {
              "internalType": "string",
              "name": "property",
              "type": "string"
            },
            {
              "internalType": "bool",
              "name": "booked",
              "type": "bool"
            }
          ],
          "internalType": "struct Mover.BookSession",
          "name": "book_",
          "type": "tuple"
        }
      ],
      "name": "addBookSession",
      "outputs": [],
      "stateMutability": "payable",
      "type": "function"
    },
    {
      "inputs": [
        {
          "components": [
            {
              "internalType": "uint256",
              "name": "id",
              "type": "uint256"
            },
            {
              "internalType": "string",
              "name": "propertynumber",
              "type": "string"
            },
            {
              "internalType": "string",
              "name": "ownername",
              "type": "string"
            },
            {
              "components": [
                {
                  "internalType": "string",
                  "name": "propertylocation",
                  "type": "string"
                },
                {
                  "internalType": "string",
                  "name": "propertydescription",
                  "type": "string"
                },
                {
                  "internalType": "string",
                  "name": "propertyspace",
                  "type": "string"
                },
                {
                  "internalType": "string",
                  "name": "propertyparkingspace",
                  "type": "string"
                },
                {
                  "internalType": "string",
                  "name": "propertybathroom",
                  "type": "string"
                },
                {
                  "internalType": "string",
                  "name": "propertybedroom",
                  "type": "string"
                },
                {
                  "internalType": "string",
                  "name": "propertyprice",
                  "type": "string"
                },
                {
                  "internalType": "string",
                  "name": "propertycategory",
                  "type": "string"
                },
                {
                  "internalType": "string",
                  "name": "propertytype",
                  "type": "string"
                },
                {
                  "internalType": "string",
                  "name": "propertyduration",
                  "type": "string"
                },
                {
                  "internalType": "string",
                  "name": "hash",
                  "type": "string"
                },
                {
                  "internalType": "string",
                  "name": "supportimage1",
                  "type": "string"
                },
                {
                  "internalType": "string",
                  "name": "supportimage2",
                  "type": "string"
                },
                {
                  "internalType": "string",
                  "name": "document",
                  "type": "string"
                }
              ],
              "internalType": "struct Mover.Nested",
              "name": "nested",
              "type": "tuple"
            }
          ],
          "internalType": "struct Mover.PropertyOwner",
          "name": "property_",
          "type": "tuple"
        }
      ],
      "name": "addProperty",
      "outputs": [],
      "stateMutability": "payable",
      "type": "function"
    },
    {
      "inputs": [],
      "name": "booksCount",
      "outputs": [
        {
          "internalType": "uint256",
          "name": "",
          "type": "uint256"
        }
      ],
      "stateMutability": "view",
      "type": "function"
    },
    {
      "inputs": [],
      "name": "fetchBooks",
      "outputs": [
        {
          "components": [
            {
              "internalType": "uint256",
              "name": "id",
              "type": "uint256"
            },
            {
              "internalType": "address",
              "name": "owner",
              "type": "address"
            },
            {
              "internalType": "string",
              "name": "property",
              "type": "string"
            },
            {
              "internalType": "bool",
              "name": "booked",
              "type": "bool"
            }
          ],
          "internalType": "struct Mover.BookSession[]",
          "name": "",
          "type": "tuple[]"
        }
      ],
      "stateMutability": "view",
      "type": "function"
    },
    {
      "inputs": [],
      "name": "fetchMyBooks",
      "outputs": [
        {
          "components": [
            {
              "internalType": "uint256",
              "name": "id",
              "type": "uint256"
            },
            {
              "internalType": "address",
              "name": "owner",
              "type": "address"
            },
            {
              "internalType": "string",
              "name": "property",
              "type": "string"
            },
            {
              "internalType": "bool",
              "name": "booked",
              "type": "bool"
            }
          ],
          "internalType": "struct Mover.BookSession[]",
          "name": "",
          "type": "tuple[]"
        }
      ],
      "stateMutability": "view",
      "type": "function"
    },
    {
      "inputs": [],
      "name": "fetchPropertyOwner",
      "outputs": [
        {
          "components": [
            {
              "internalType": "uint256",
              "name": "id",
              "type": "uint256"
            },
            {
              "internalType": "string",
              "name": "propertynumber",
              "type": "string"
            },
            {
              "internalType": "string",
              "name": "ownername",
              "type": "string"
            },
            {
              "components": [
                {
                  "internalType": "string",
                  "name": "propertylocation",
                  "type": "string"
                },
                {
                  "internalType": "string",
                  "name": "propertydescription",
                  "type": "string"
                },
                {
                  "internalType": "string",
                  "name": "propertyspace",
                  "type": "string"
                },
                {
                  "internalType": "string",
                  "name": "propertyparkingspace",
                  "type": "string"
                },
                {
                  "internalType": "string",
                  "name": "propertybathroom",
                  "type": "string"
                },
                {
                  "internalType": "string",
                  "name": "propertybedroom",
                  "type": "string"
                },
                {
                  "internalType": "string",
                  "name": "propertyprice",
                  "type": "string"
                },
                {
                  "internalType": "string",
                  "name": "propertycategory",
                  "type": "string"
                },
                {
                  "internalType": "string",
                  "name": "propertytype",
                  "type": "string"
                },
                {
                  "internalType": "string",
                  "name": "propertyduration",
                  "type": "string"
                },
                {
                  "internalType": "string",
                  "name": "hash",
                  "type": "string"
                },
                {
                  "internalType": "string",
                  "name": "supportimage1",
                  "type": "string"
                },
                {
                  "internalType": "string",
                  "name": "supportimage2",
                  "type": "string"
                },
                {
                  "internalType": "string",
                  "name": "document",
                  "type": "string"
                }
              ],
              "internalType": "struct Mover.Nested",
              "name": "nested",
              "type": "tuple"
            }
          ],
          "internalType": "struct Mover.PropertyOwner[]",
          "name": "",
          "type": "tuple[]"
        }
      ],
      "stateMutability": "view",
      "type": "function"
    },
    {
      "inputs": [
        {
          "internalType": "uint256",
          "name": "",
          "type": "uint256"
        }
      ],
      "name": "idPropertyOwner",
      "outputs": [
        {
          "internalType": "uint256",
          "name": "id",
          "type": "uint256"
        },
        {
          "internalType": "string",
          "name": "propertynumber",
          "type": "string"
        },
        {
          "internalType": "string",
          "name": "ownername",
          "type": "string"
        },
        {
          "components": [
            {
              "internalType": "string",
              "name": "propertylocation",
              "type": "string"
            },
            {
              "internalType": "string",
              "name": "propertydescription",
              "type": "string"
            },
            {
              "internalType": "string",
              "name": "propertyspace",
              "type": "string"
            },
            {
              "internalType": "string",
              "name": "propertyparkingspace",
              "type": "string"
            },
            {
              "internalType": "string",
              "name": "propertybathroom",
              "type": "string"
            },
            {
              "internalType": "string",
              "name": "propertybedroom",
              "type": "string"
            },
            {
              "internalType": "string",
              "name": "propertyprice",
              "type": "string"
            },
            {
              "internalType": "string",
              "name": "propertycategory",
              "type": "string"
            },
            {
              "internalType": "string",
              "name": "propertytype",
              "type": "string"
            },
            {
              "internalType": "string",
              "name": "propertyduration",
              "type": "string"
            },
            {
              "internalType": "string",
              "name": "hash",
              "type": "string"
            },
            {
              "internalType": "string",
              "name": "supportimage1",
              "type": "string"
            },
            {
              "internalType": "string",
              "name": "supportimage2",
              "type": "string"
            },
            {
              "internalType": "string",
              "name": "document",
              "type": "string"
            }
          ],
          "internalType": "struct Mover.Nested",
          "name": "nested",
          "type": "tuple"
        }
      ],
      "stateMutability": "view",
      "type": "function"
    },
    {
      "inputs": [],
      "name": "propertyCount",
      "outputs": [
        {
          "internalType": "uint256",
          "name": "",
          "type": "uint256"
        }
      ],
      "stateMutability": "view",
      "type": "function"
    }
  ],
  "bytecode": "0x60806040526000600155600060025534801561001a57600080fd5b5061272f8061002a6000396000f3fe60806040526004361061006b5760003560e01c8063085f0a6b146100705780631c76b6cb1461009b5780639a7704c7146100b0578063c2df44b3146100e0578063c361a335146100f3578063e1cb4d0314610117578063e3992ef41461012d578063f349ded91461014f575b600080fd5b34801561007c57600080fd5b50610085610164565b6040516100929190612495565b60405180910390f35b6100ae6100a93660046121fd565b6103b5565b005b3480156100bc57600080fd5b506100d06100cb3660046122b5565b610780565b60405161009294939291906125ca565b6100ae6100ee366004612152565b6110c0565b3480156100ff57600080fd5b5061010960015481565b604051908152602001610092565b34801561012357600080fd5b5061010960025481565b34801561013957600080fd5b5061014261114a565b604051610092919061252d565b34801561015b57600080fd5b50610085611b7e565b600254606090600080805b838110156101ca57336003600061018784600161265f565b81526020810191909152604001600020600101546001600160a01b031614156101b8576101b560018461265f565b92505b806101c2816126b2565b91505061016f565b506000826001600160401b038111156101f357634e487b7160e01b600052604160045260246000fd5b60405190808252806020026020018201604052801561022c57816020015b610219611d33565b8152602001906001900390816102115790505b50905060005b848110156103ac57336003600061024a84600161265f565b81526020810191909152604001600020600101546001600160a01b0316141561039a57600061027a82600161265f565b60008181526003602090815260409182902082516080810184528154815260018201546001600160a01b03169281019290925260028101805494955090939192849290840191906102ca90612677565b80601f01602080910402602001604051908101604052809291908181526020018280546102f690612677565b80156103435780601f1061031857610100808354040283529160200191610343565b820191906000526020600020905b81548152906001019060200180831161032657829003601f168201915b50505091835250506003919091015460ff161515602090910152845185908790811061037f57634e487b7160e01b600052603260045260246000fd5b602090810291909101015261039560018661265f565b945050505b806103a4816126b2565b915050610232565b50949350505050565b6000816040015151116104085760405162461bcd60e51b815260206004820152601660248201527513dddb995c881b985b59481a5cc81c995c5d5a5c995960521b60448201526064015b60405180910390fd5b600081606001516101400151511161045b5760405162461bcd60e51b8152602060048201526016602482015275125b5859d94812185cda081a5cc81c995c5d5a5c995960521b60448201526064016103ff565b60008160600151610160015151116104b25760405162461bcd60e51b815260206004820152601a60248201527914dd5c1c1bdc9d081a5b5859d94c481a5cc81c995c5d5a5c995960321b60448201526064016103ff565b60008160600151610180015151116105095760405162461bcd60e51b815260206004820152601a60248201527914dd5c1c1bdc9d081a5b5859d94c881a5cc81c995c5d5a5c995960321b60448201526064016103ff565b600081606001516101a00151511161055a5760405162461bcd60e51b8152602060048201526014602482015273111bd8dd5b595b9d081a5cc81c995c5d5a5c995960621b60448201526064016103ff565b6001805490600061056a836126b2565b909155505060018054600081815260208181526040909120918255838101518051929361059f93908501929190910190611d66565b50604082015180516105bb916002840191602090910190611d66565b5060608201515180516105d8916003840191602090910190611d66565b50606082015160209081015180516105f69260048501920190611d66565b506060820151604001518051610616916005840191602090910190611d66565b5060608083015101518051610635916006840191602090910190611d66565b506060820151608001518051610655916007840191602090910190611d66565b50606082015160a001518051610675916008840191602090910190611d66565b50606082015160c001518051610695916009840191602090910190611d66565b50606082015160e0015180516106b591600a840191602090910190611d66565b506060820151610100015180516106d691600b840191602090910190611d66565b506060820151610120015180516106f791600c840191602090910190611d66565b5060608201516101400151805161071891600d840191602090910190611d66565b5060608201516101600151805161073991600e840191602090910190611d66565b5060608201516101800151805161075a91600f840191602090910190611d66565b5060608201516101a00151805161077b916010840191602090910190611d66565b505050565b600060208190529081526040902080546001820180549192916107a290612677565b80601f01602080910402602001604051908101604052809291908181526020018280546107ce90612677565b801561081b5780601f106107f05761010080835404028352916020019161081b565b820191906000526020600020905b8154815290600101906020018083116107fe57829003601f168201915b50505050509080600201805461083090612677565b80601f016020809104026020016040519081016040528092919081815260200182805461085c90612677565b80156108a95780601f1061087e576101008083540402835291602001916108a9565b820191906000526020600020905b81548152906001019060200180831161088c57829003601f168201915b50505050509080600301604051806101c00160405290816000820180546108cf90612677565b80601f01602080910402602001604051908101604052809291908181526020018280546108fb90612677565b80156109485780601f1061091d57610100808354040283529160200191610948565b820191906000526020600020905b81548152906001019060200180831161092b57829003601f168201915b5050505050815260200160018201805461096190612677565b80601f016020809104026020016040519081016040528092919081815260200182805461098d90612677565b80156109da5780601f106109af576101008083540402835291602001916109da565b820191906000526020600020905b8154815290600101906020018083116109bd57829003601f168201915b505050505081526020016002820180546109f390612677565b80601f0160208091040260200160405190810160405280929190818152602001828054610a1f90612677565b8015610a6c5780601f10610a4157610100808354040283529160200191610a6c565b820191906000526020600020905b815481529060010190602001808311610a4f57829003601f168201915b50505050508152602001600382018054610a8590612677565b80601f0160208091040260200160405190810160405280929190818152602001828054610ab190612677565b8015610afe5780601f10610ad357610100808354040283529160200191610afe565b820191906000526020600020905b815481529060010190602001808311610ae157829003601f168201915b50505050508152602001600482018054610b1790612677565b80601f0160208091040260200160405190810160405280929190818152602001828054610b4390612677565b8015610b905780601f10610b6557610100808354040283529160200191610b90565b820191906000526020600020905b815481529060010190602001808311610b7357829003601f168201915b50505050508152602001600582018054610ba990612677565b80601f0160208091040260200160405190810160405280929190818152602001828054610bd590612677565b8015610c225780601f10610bf757610100808354040283529160200191610c22565b820191906000526020600020905b815481529060010190602001808311610c0557829003601f168201915b50505050508152602001600682018054610c3b90612677565b80601f0160208091040260200160405190810160405280929190818152602001828054610c6790612677565b8015610cb45780601f10610c8957610100808354040283529160200191610cb4565b820191906000526020600020905b815481529060010190602001808311610c9757829003601f168201915b50505050508152602001600782018054610ccd90612677565b80601f0160208091040260200160405190810160405280929190818152602001828054610cf990612677565b8015610d465780601f10610d1b57610100808354040283529160200191610d46565b820191906000526020600020905b815481529060010190602001808311610d2957829003601f168201915b50505050508152602001600882018054610d5f90612677565b80601f0160208091040260200160405190810160405280929190818152602001828054610d8b90612677565b8015610dd85780601f10610dad57610100808354040283529160200191610dd8565b820191906000526020600020905b815481529060010190602001808311610dbb57829003601f168201915b50505050508152602001600982018054610df190612677565b80601f0160208091040260200160405190810160405280929190818152602001828054610e1d90612677565b8015610e6a5780601f10610e3f57610100808354040283529160200191610e6a565b820191906000526020600020905b815481529060010190602001808311610e4d57829003601f168201915b50505050508152602001600a82018054610e8390612677565b80601f0160208091040260200160405190810160405280929190818152602001828054610eaf90612677565b8015610efc5780601f10610ed157610100808354040283529160200191610efc565b820191906000526020600020905b815481529060010190602001808311610edf57829003601f168201915b50505050508152602001600b82018054610f1590612677565b80601f0160208091040260200160405190810160405280929190818152602001828054610f4190612677565b8015610f8e5780601f10610f6357610100808354040283529160200191610f8e565b820191906000526020600020905b815481529060010190602001808311610f7157829003601f168201915b50505050508152602001600c82018054610fa790612677565b80601f0160208091040260200160405190810160405280929190818152602001828054610fd390612677565b80156110205780601f10610ff557610100808354040283529160200191611020565b820191906000526020600020905b81548152906001019060200180831161100357829003601f168201915b50505050508152602001600d8201805461103990612677565b80601f016020809104026020016040519081016040528092919081815260200182805461106590612677565b80156110b25780601f10611087576101008083540402835291602001916110b2565b820191906000526020600020905b81548152906001019060200180831161109557829003601f168201915b505050505081525050905084565b336110ca57600080fd5b600280549060006110da836126b2565b9091555050600180549060006110ef836126b2565b9091555050600280546000818152600360209081526040918290209283556001830180546001600160a01b03191633179055908401518051929361113b93908501929190910190611d66565b50600301805460ff1916905550565b600154606090600080826001600160401b0381111561117957634e487b7160e01b600052604160045260246000fd5b6040519080825280602002602001820160405280156111b257816020015b61119f611dea565b8152602001906001900390816111975790505b50905060005b83811015611b765760006111cd82600161265f565b6000818152602081815260409182902082516080810190935280548352600181018054949550909384928401919061120490612677565b80601f016020809104026020016040519081016040528092919081815260200182805461123090612677565b801561127d5780601f106112525761010080835404028352916020019161127d565b820191906000526020600020905b81548152906001019060200180831161126057829003601f168201915b5050505050815260200160028201805461129690612677565b80601f01602080910402602001604051908101604052809291908181526020018280546112c290612677565b801561130f5780601f106112e45761010080835404028352916020019161130f565b820191906000526020600020905b8154815290600101906020018083116112f257829003601f168201915b5050505050815260200160038201604051806101c001604052908160008201805461133990612677565b80601f016020809104026020016040519081016040528092919081815260200182805461136590612677565b80156113b25780601f10611387576101008083540402835291602001916113b2565b820191906000526020600020905b81548152906001019060200180831161139557829003601f168201915b505050505081526020016001820180546113cb90612677565b80601f01602080910402602001604051908101604052809291908181526020018280546113f790612677565b80156114445780601f1061141957610100808354040283529160200191611444565b820191906000526020600020905b81548152906001019060200180831161142757829003601f168201915b5050505050815260200160028201805461145d90612677565b80601f016020809104026020016040519081016040528092919081815260200182805461148990612677565b80156114d65780601f106114ab576101008083540402835291602001916114d6565b820191906000526020600020905b8154815290600101906020018083116114b957829003601f168201915b505050505081526020016003820180546114ef90612677565b80601f016020809104026020016040519081016040528092919081815260200182805461151b90612677565b80156115685780601f1061153d57610100808354040283529160200191611568565b820191906000526020600020905b81548152906001019060200180831161154b57829003601f168201915b5050505050815260200160048201805461158190612677565b80601f01602080910402602001604051908101604052809291908181526020018280546115ad90612677565b80156115fa5780601f106115cf576101008083540402835291602001916115fa565b820191906000526020600020905b8154815290600101906020018083116115dd57829003601f168201915b5050505050815260200160058201805461161390612677565b80601f016020809104026020016040519081016040528092919081815260200182805461163f90612677565b801561168c5780601f106116615761010080835404028352916020019161168c565b820191906000526020600020905b81548152906001019060200180831161166f57829003601f168201915b505050505081526020016006820180546116a590612677565b80601f01602080910402602001604051908101604052809291908181526020018280546116d190612677565b801561171e5780601f106116f35761010080835404028352916020019161171e565b820191906000526020600020905b81548152906001019060200180831161170157829003601f168201915b5050505050815260200160078201805461173790612677565b80601f016020809104026020016040519081016040528092919081815260200182805461176390612677565b80156117b05780601f10611785576101008083540402835291602001916117b0565b820191906000526020600020905b81548152906001019060200180831161179357829003601f168201915b505050505081526020016008820180546117c990612677565b80601f01602080910402602001604051908101604052809291908181526020018280546117f590612677565b80156118425780601f1061181757610100808354040283529160200191611842565b820191906000526020600020905b81548152906001019060200180831161182557829003601f168201915b5050505050815260200160098201805461185b90612677565b80601f016020809104026020016040519081016040528092919081815260200182805461188790612677565b80156118d45780601f106118a9576101008083540402835291602001916118d4565b820191906000526020600020905b8154815290600101906020018083116118b757829003601f168201915b50505050508152602001600a820180546118ed90612677565b80601f016020809104026020016040519081016040528092919081815260200182805461191990612677565b80156119665780601f1061193b57610100808354040283529160200191611966565b820191906000526020600020905b81548152906001019060200180831161194957829003601f168201915b50505050508152602001600b8201805461197f90612677565b80601f01602080910402602001604051908101604052809291908181526020018280546119ab90612677565b80156119f85780601f106119cd576101008083540402835291602001916119f8565b820191906000526020600020905b8154815290600101906020018083116119db57829003601f168201915b50505050508152602001600c82018054611a1190612677565b80601f0160208091040260200160405190810160405280929190818152602001828054611a3d90612677565b8015611a8a5780601f10611a5f57610100808354040283529160200191611a8a565b820191906000526020600020905b815481529060010190602001808311611a6d57829003601f168201915b50505050508152602001600d82018054611aa390612677565b80601f0160208091040260200160405190810160405280929190818152602001828054611acf90612677565b8015611b1c5780601f10611af157610100808354040283529160200191611b1c565b820191906000526020600020905b815481529060010190602001808311611aff57829003601f168201915b50505050508152505081525050848681518110611b4957634e487b7160e01b600052603260045260246000fd5b6020908102919091010152611b5f60018661265f565b945050508080611b6e906126b2565b9150506111b8565b509392505050565b600254606090600080826001600160401b03811115611bad57634e487b7160e01b600052604160045260246000fd5b604051908082528060200260200182016040528015611be657816020015b611bd3611d33565b815260200190600190039081611bcb5790505b50905060005b83811015611b76576000611c0182600161265f565b60008181526003602090815260409182902082516080810184528154815260018201546001600160a01b0316928101929092526002810180549495509093919284929084019190611c5190612677565b80601f0160208091040260200160405190810160405280929190818152602001828054611c7d90612677565b8015611cca5780601f10611c9f57610100808354040283529160200191611cca565b820191906000526020600020905b815481529060010190602001808311611cad57829003601f168201915b50505091835250506003919091015460ff1615156020909101528451859087908110611d0657634e487b7160e01b600052603260045260246000fd5b6020908102919091010152611d1c60018661265f565b945050508080611d2b906126b2565b915050611bec565b60405180608001604052806000815260200160006001600160a01b03168152602001606081526020016000151581525090565b828054611d7290612677565b90600052602060002090601f016020900481019282611d945760008555611dda565b82601f10611dad57805160ff1916838001178555611dda565b82800160010185558215611dda579182015b82811115611dda578251825591602001919060010190611dbf565b50611de6929150611e81565b5090565b6040518060800160405280600081526020016060815260200160608152602001611e7c604051806101c0016040528060608152602001606081526020016060815260200160608152602001606081526020016060815260200160608152602001606081526020016060815260200160608152602001606081526020016060815260200160608152602001606081525090565b905290565b5b80821115611de65760008155600101611e82565b600082601f830112611ea6578081fd5b81356001600160401b0380821115611ec057611ec06126e3565b604051601f8301601f19908116603f01168101908282118183101715611ee857611ee86126e3565b81604052838152866020858801011115611f00578485fd5b8360208701602083013792830160200193909352509392505050565b60006101c08284031215611f2e578081fd5b611f36612614565b905081356001600160401b0380821115611f4f57600080fd5b611f5b85838601611e96565b83526020840135915080821115611f7157600080fd5b611f7d85838601611e96565b60208401526040840135915080821115611f9657600080fd5b611fa285838601611e96565b60408401526060840135915080821115611fbb57600080fd5b611fc785838601611e96565b60608401526080840135915080821115611fe057600080fd5b611fec85838601611e96565b608084015260a084013591508082111561200557600080fd5b61201185838601611e96565b60a084015260c084013591508082111561202a57600080fd5b61203685838601611e96565b60c084015260e084013591508082111561204f57600080fd5b61205b85838601611e96565b60e08401526101009150818401358181111561207657600080fd5b61208286828701611e96565b83850152506101209150818401358181111561209d57600080fd5b6120a986828701611e96565b8385015250610140915081840135818111156120c457600080fd5b6120d086828701611e96565b8385015250610160915081840135818111156120eb57600080fd5b6120f786828701611e96565b83850152506101809150818401358181111561211257600080fd5b61211e86828701611e96565b83850152506101a09150818401358181111561213957600080fd5b61214586828701611e96565b8385015250505092915050565b600060208284031215612163578081fd5b81356001600160401b0380821115612179578283fd5b908301906080828603121561218c578283fd5b61219461263d565b8235815260208301356001600160a01b03811681146121b1578485fd5b60208201526040830135828111156121c7578485fd5b6121d387828601611e96565b6040830152506060830135925082151583146121ed578384fd5b6060810192909252509392505050565b60006020828403121561220e578081fd5b81356001600160401b0380821115612224578283fd5b9083019060808286031215612237578283fd5b61223f61263d565b82358152602083013582811115612254578485fd5b61226087828601611e96565b602083015250604083013582811115612277578485fd5b61228387828601611e96565b60408301525060608301358281111561229a578485fd5b6122a687828601611f1c565b60608301525095945050505050565b6000602082840312156122c6578081fd5b5035919050565b60008151808452815b818110156122f2576020818501810151868301820152016122d6565b818111156123035782602083870101525b50601f01601f19169290920160200192915050565b60006101c0825181855261232e828601826122cd565b9150506020830151848203602086015261234882826122cd565b9150506040830151848203604086015261236282826122cd565b9150506060830151848203606086015261237c82826122cd565b9150506080830151848203608086015261239682826122cd565b91505060a083015184820360a08601526123b082826122cd565b91505060c083015184820360c08601526123ca82826122cd565b91505060e083015184820360e08601526123e482826122cd565b91505061010080840151858303828701526123ff83826122cd565b92505050610120808401518583038287015261241b83826122cd565b92505050610140808401518583038287015261243783826122cd565b92505050610160808401518583038287015261245383826122cd565b92505050610180808401518583038287015261246f83826122cd565b925050506101a0808401518583038287015261248b83826122cd565b9695505050505050565b60006020808301818452808551808352604092508286019150828160051b870101848801865b8381101561251f57888303603f19018552815180518452878101516001600160a01b031688850152868101516080888601819052906124fc828701826122cd565b6060938401511515969093019590955250948701949250908601906001016124bb565b509098975050505050505050565b60006020808301818452808551808352604092508286019150828160051b870101848801865b8381101561251f57603f19898403018552815160808151855288820151818a870152612581828701826122cd565b915050878201518582038987015261259982826122cd565b915050606080830151925085820381870152506125b68183612318565b968901969450505090860190600101612553565b8481526080602082015260006125e360808301866122cd565b82810360408401526125f581866122cd565b905082810360608401526126098185612318565b979650505050505050565b6040516101c081016001600160401b0381118282101715612637576126376126e3565b60405290565b604051608081016001600160401b0381118282101715612637576126376126e3565b60008219821115612672576126726126cd565b500190565b600181811c9082168061268b57607f821691505b602082108114156126ac57634e487b7160e01b600052602260045260246000fd5b50919050565b60006000198214156126c6576126c66126cd565b5060010190565b634e487b7160e01b600052601160045260246000fd5b634e487b7160e01b600052604160045260246000fdfea2646970667358221220a5ce1b356e54240d53e104a5eb21f83ea56e0462d34859b72e638991cd95299464736f6c63430008040033",
  "linkReferences": {},
  "deployedLinkReferences": {}
}