{
  "_format": "hh-sol-artifact-1",
  "contractName": "Mover",
  "sourceName": "contracts/Mover.sol",
  "abi": [
    {
      "inputs": [],
      "stateMutability": "nonpayable",
      "type": "constructor"
    },
    {
      "anonymous": false,
      "inputs": [
        {
          "indexed": true,
          "internalType": "address",
          "name": "owner",
          "type": "address"
        },
        {
          "indexed": true,
          "internalType": "address",
          "name": "approved",
          "type": "address"
        },
        {
          "indexed": true,
          "internalType": "uint256",
          "name": "tokenId",
          "type": "uint256"
        }
      ],
      "name": "Approval",
      "type": "event"
    },
    {
      "anonymous": false,
      "inputs": [
        {
          "indexed": true,
          "internalType": "address",
          "name": "owner",
          "type": "address"
        },
        {
          "indexed": true,
          "internalType": "address",
          "name": "operator",
          "type": "address"
        },
        {
          "indexed": false,
          "internalType": "bool",
          "name": "approved",
          "type": "bool"
        }
      ],
      "name": "ApprovalForAll",
      "type": "event"
    },
    {
      "anonymous": false,
      "inputs": [
        {
          "indexed": true,
          "internalType": "address",
          "name": "from",
          "type": "address"
        },
        {
          "indexed": true,
          "internalType": "address",
          "name": "to",
          "type": "address"
        },
        {
          "indexed": true,
          "internalType": "uint256",
          "name": "tokenId",
          "type": "uint256"
        }
      ],
      "name": "Transfer",
      "type": "event"
    },
    {
      "inputs": [
        {
          "internalType": "address",
          "name": "to",
          "type": "address"
        },
        {
          "internalType": "uint256",
          "name": "tokenId",
          "type": "uint256"
        }
      ],
      "name": "approve",
      "outputs": [],
      "stateMutability": "nonpayable",
      "type": "function"
    },
    {
      "inputs": [
        {
          "internalType": "address",
          "name": "owner",
          "type": "address"
        }
      ],
      "name": "balanceOf",
      "outputs": [
        {
          "internalType": "uint256",
          "name": "",
          "type": "uint256"
        }
      ],
      "stateMutability": "view",
      "type": "function"
    },
    {
      "inputs": [
        {
          "internalType": "string",
          "name": "tokenURI",
          "type": "string"
        },
        {
          "internalType": "uint256",
          "name": "price",
          "type": "uint256"
        },
        {
          "internalType": "string",
          "name": "_propertylocation",
          "type": "string"
        },
        {
          "internalType": "string",
          "name": "_propertydescription",
          "type": "string"
        },
        {
          "internalType": "string",
          "name": "_propertycategory",
          "type": "string"
        },
        {
          "internalType": "string",
          "name": "_propertytype",
          "type": "string"
        },
        {
          "internalType": "string",
          "name": "_hash",
          "type": "string"
        },
        {
          "internalType": "string",
          "name": "_supportimage1",
          "type": "string"
        },
        {
          "internalType": "string",
          "name": "_supportimage2",
          "type": "string"
        }
      ],
      "name": "createProperty",
      "outputs": [
        {
          "internalType": "uint256",
          "name": "",
          "type": "uint256"
        }
      ],
      "stateMutability": "payable",
      "type": "function"
    },
    {
      "inputs": [
        {
          "internalType": "uint256",
          "name": "propertyId",
          "type": "uint256"
        }
      ],
      "name": "createPropertyTransfer",
      "outputs": [],
      "stateMutability": "payable",
      "type": "function"
    },
    {
      "inputs": [],
      "name": "fetchMyProperties",
      "outputs": [
        {
          "components": [
            {
              "internalType": "uint256",
              "name": "propertyId",
              "type": "uint256"
            },
            {
              "internalType": "address payable",
              "name": "buyer",
              "type": "address"
            },
            {
              "internalType": "address payable",
              "name": "owner",
              "type": "address"
            },
            {
              "internalType": "uint256",
              "name": "price",
              "type": "uint256"
            },
            {
              "internalType": "string",
              "name": "propertylocation",
              "type": "string"
            },
            {
              "internalType": "string",
              "name": "propertydescription",
              "type": "string"
            },
            {
              "internalType": "string",
              "name": "propertycategory",
              "type": "string"
            },
            {
              "internalType": "string",
              "name": "propertytype",
              "type": "string"
            },
            {
              "internalType": "string",
              "name": "hash",
              "type": "string"
            },
            {
              "internalType": "string",
              "name": "supportimage1",
              "type": "string"
            },
            {
              "internalType": "string",
              "name": "supportimage2",
              "type": "string"
            },
            {
              "internalType": "bool",
              "name": "sold",
              "type": "bool"
            }
          ],
          "internalType": "struct Mover.PropertyOwner[]",
          "name": "",
          "type": "tuple[]"
        }
      ],
      "stateMutability": "view",
      "type": "function"
    },
    {
      "inputs": [],
      "name": "fetchUnsoldProperties",
      "outputs": [
        {
          "components": [
            {
              "internalType": "uint256",
              "name": "propertyId",
              "type": "uint256"
            },
            {
              "internalType": "address payable",
              "name": "buyer",
              "type": "address"
            },
            {
              "internalType": "address payable",
              "name": "owner",
              "type": "address"
            },
            {
              "internalType": "uint256",
              "name": "price",
              "type": "uint256"
            },
            {
              "internalType": "string",
              "name": "propertylocation",
              "type": "string"
            },
            {
              "internalType": "string",
              "name": "propertydescription",
              "type": "string"
            },
            {
              "internalType": "string",
              "name": "propertycategory",
              "type": "string"
            },
            {
              "internalType": "string",
              "name": "propertytype",
              "type": "string"
            },
            {
              "internalType": "string",
              "name": "hash",
              "type": "string"
            },
            {
              "internalType": "string",
              "name": "supportimage1",
              "type": "string"
            },
            {
              "internalType": "string",
              "name": "supportimage2",
              "type": "string"
            },
            {
              "internalType": "bool",
              "name": "sold",
              "type": "bool"
            }
          ],
          "internalType": "struct Mover.PropertyOwner[]",
          "name": "",
          "type": "tuple[]"
        }
      ],
      "stateMutability": "view",
      "type": "function"
    },
    {
      "inputs": [
        {
          "internalType": "uint256",
          "name": "tokenId",
          "type": "uint256"
        }
      ],
      "name": "getApproved",
      "outputs": [
        {
          "internalType": "address",
          "name": "",
          "type": "address"
        }
      ],
      "stateMutability": "view",
      "type": "function"
    },
    {
      "inputs": [],
      "name": "getEthUsd",
      "outputs": [
        {
          "internalType": "uint256",
          "name": "",
          "type": "uint256"
        }
      ],
      "stateMutability": "view",
      "type": "function"
    },
    {
      "inputs": [],
      "name": "getListingPrice",
      "outputs": [
        {
          "internalType": "uint256",
          "name": "",
          "type": "uint256"
        }
      ],
      "stateMutability": "view",
      "type": "function"
    },
    {
      "inputs": [
        {
          "internalType": "address",
          "name": "owner",
          "type": "address"
        },
        {
          "internalType": "address",
          "name": "operator",
          "type": "address"
        }
      ],
      "name": "isApprovedForAll",
      "outputs": [
        {
          "internalType": "bool",
          "name": "",
          "type": "bool"
        }
      ],
      "stateMutability": "view",
      "type": "function"
    },
    {
      "inputs": [],
      "name": "name",
      "outputs": [
        {
          "internalType": "string",
          "name": "",
          "type": "string"
        }
      ],
      "stateMutability": "view",
      "type": "function"
    },
    {
      "inputs": [
        {
          "internalType": "uint256",
          "name": "tokenId",
          "type": "uint256"
        }
      ],
      "name": "ownerOf",
      "outputs": [
        {
          "internalType": "address",
          "name": "",
          "type": "address"
        }
      ],
      "stateMutability": "view",
      "type": "function"
    },
    {
      "inputs": [
        {
          "internalType": "address",
          "name": "from",
          "type": "address"
        },
        {
          "internalType": "address",
          "name": "to",
          "type": "address"
        },
        {
          "internalType": "uint256",
          "name": "tokenId",
          "type": "uint256"
        }
      ],
      "name": "safeTransferFrom",
      "outputs": [],
      "stateMutability": "nonpayable",
      "type": "function"
    },
    {
      "inputs": [
        {
          "internalType": "address",
          "name": "from",
          "type": "address"
        },
        {
          "internalType": "address",
          "name": "to",
          "type": "address"
        },
        {
          "internalType": "uint256",
          "name": "tokenId",
          "type": "uint256"
        },
        {
          "internalType": "bytes",
          "name": "data",
          "type": "bytes"
        }
      ],
      "name": "safeTransferFrom",
      "outputs": [],
      "stateMutability": "nonpayable",
      "type": "function"
    },
    {
      "inputs": [
        {
          "internalType": "address",
          "name": "operator",
          "type": "address"
        },
        {
          "internalType": "bool",
          "name": "approved",
          "type": "bool"
        }
      ],
      "name": "setApprovalForAll",
      "outputs": [],
      "stateMutability": "nonpayable",
      "type": "function"
    },
    {
      "inputs": [
        {
          "internalType": "bytes4",
          "name": "interfaceId",
          "type": "bytes4"
        }
      ],
      "name": "supportsInterface",
      "outputs": [
        {
          "internalType": "bool",
          "name": "",
          "type": "bool"
        }
      ],
      "stateMutability": "view",
      "type": "function"
    },
    {
      "inputs": [],
      "name": "symbol",
      "outputs": [
        {
          "internalType": "string",
          "name": "",
          "type": "string"
        }
      ],
      "stateMutability": "view",
      "type": "function"
    },
    {
      "inputs": [
        {
          "internalType": "uint256",
          "name": "tokenId",
          "type": "uint256"
        }
      ],
      "name": "tokenURI",
      "outputs": [
        {
          "internalType": "string",
          "name": "",
          "type": "string"
        }
      ],
      "stateMutability": "view",
      "type": "function"
    },
    {
      "inputs": [
        {
          "internalType": "address",
          "name": "from",
          "type": "address"
        },
        {
          "internalType": "address",
          "name": "to",
          "type": "address"
        },
        {
          "internalType": "uint256",
          "name": "tokenId",
          "type": "uint256"
        }
      ],
      "name": "transferFrom",
      "outputs": [],
      "stateMutability": "nonpayable",
      "type": "function"
    },
    {
      "inputs": [
        {
          "internalType": "uint256",
          "name": "_listingPrice",
          "type": "uint256"
        }
      ],
      "name": "updateListingPrice",
      "outputs": [],
      "stateMutability": "payable",
      "type": "function"
    }
  ],
  "bytecode": "0x60806040526658d15e176280006009553480156200001c57600080fd5b50604080518082018252601081526f4d657461766572736520546f6b656e7360801b6020808301918252835180850190945260048452631351551560e21b9084015281519192916200007191600091620000c4565b50805162000087906001906020840190620000c4565b5050600a80546001600160a01b03199081163317909155600b80549091167307999d7c31f94360ccd9ed545d0935b140ee419817905550620001a7565b828054620000d2906200016a565b90600052602060002090601f016020900481019282620000f6576000855562000141565b82601f106200011157805160ff191683800117855562000141565b8280016001018555821562000141579182015b828111156200014157825182559160200191906001019062000124565b506200014f92915062000153565b5090565b5b808211156200014f576000815560010162000154565b600181811c908216806200017f57607f821691505b60208210811415620001a157634e487b7160e01b600052602260045260246000fd5b50919050565b612a4d80620001b76000396000f3fe6080604052600436106100ef5760003560e01c806301ffc9a7146100f457806306fdde0314610129578063081812fc1461014b578063095ea7b31461018357806310c28b94146101a557806312e85585146101b857806323b872dd146101d757806342842e0e146101f7578063563c4361146102175780636352211e1461022a57806370a082311461024a57806395d89b411461026a578063a22cb4651461027f578063ae677aa31461029f578063b88d4fde146102b2578063bb27e0ce146102d2578063c87b56dd146102e7578063d15b4f1314610307578063e409f7e814610329578063e985e9c51461033e575b600080fd5b34801561010057600080fd5b5061011461010f3660046123f8565b61035e565b60405190151581526020015b60405180910390f35b34801561013557600080fd5b5061013e6103b0565b60405161012091906127e1565b34801561015757600080fd5b5061016b610166366004612570565b610442565b6040516001600160a01b039091168152602001610120565b34801561018f57600080fd5b506101a361019e3660046123cf565b610469565b005b6101a36101b3366004612570565b610584565b3480156101c457600080fd5b506009545b604051908152602001610120565b3480156101e357600080fd5b506101a36101f23660046122e2565b6106ef565b34801561020357600080fd5b506101a36102123660046122e2565b610720565b6101c9610225366004612430565b61073b565b34801561023657600080fd5b5061016b610245366004612570565b61078b565b34801561025657600080fd5b506101c9610265366004612296565b6107c0565b34801561027657600080fd5b5061013e610846565b34801561028b57600080fd5b506101a361029a366004612395565b610855565b6101a36102ad366004612570565b610864565b3480156102be57600080fd5b506101a36102cd36600461231d565b6108d9565b3480156102de57600080fd5b506101c961090b565b3480156102f357600080fd5b5061013e610302366004612570565b61099e565b34801561031357600080fd5b5061031c610aaf565b604051610120919061267c565b34801561033557600080fd5b5061031c61104c565b34801561034a57600080fd5b506101146103593660046122b0565b611627565b60006001600160e01b031982166380ac58cd60e01b148061038f57506001600160e01b03198216635b5e139f60e01b145b806103aa57506301ffc9a760e01b6001600160e01b03198316145b92915050565b6060600080546103bf90612935565b80601f01602080910402602001604051908101604052809291908181526020018280546103eb90612935565b80156104385780601f1061040d57610100808354040283529160200191610438565b820191906000526020600020905b81548152906001019060200180831161041b57829003601f168201915b5050505050905090565b600061044d82611655565b506000908152600460205260409020546001600160a01b031690565b60006104748261078b565b9050806001600160a01b0316836001600160a01b031614156104e75760405162461bcd60e51b815260206004820152602160248201527f4552433732313a20617070726f76616c20746f2063757272656e74206f776e656044820152603960f91b60648201526084015b60405180910390fd5b336001600160a01b038216148061050357506105038133611627565b6105755760405162461bcd60e51b815260206004820152603e60248201527f4552433732313a20617070726f76652063616c6c6572206973206e6f7420746f60448201527f6b656e206f776e6572206e6f7220617070726f76656420666f7220616c6c000060648201526084016104de565b61057f838361167d565b505050565b6000818152600c6020526040902060038101546001909101546001600160a01b031634821461061d576040805162461bcd60e51b81526020600482015260248101919091527f506c65617365207375626d6974207468652061736b696e67207072696365206960448201527f6e206f7264657220746f20636f6d706c6574652074686520707572636861736560648201526084016104de565b6000838152600c602052604090206002810180546001600160a01b03199081163317909155600b8201805460ff191660019081179091559091018054909116905561066c600880546001019055565b6106773033856116eb565b600a546009546040516001600160a01b039092169181156108fc0291906000818181858888f193505050501580156106b3573d6000803e3d6000fd5b506040516001600160a01b038216903480156108fc02916000818181858888f193505050501580156106e9573d6000803e3d6000fd5b50505050565b6106f93382611875565b6107155760405162461bcd60e51b81526004016104de90612878565b61057f8383836116eb565b61057f838383604051806020016040528060008152506108d9565b600061074b600780546001019055565b600061075660075490565b905061076233826118d3565b61076c818c6119f3565b61077d818b8b8b8b8b8b8b8b611a7e565b9a9950505050505050505050565b6000818152600260205260408120546001600160a01b0316806103aa5760405162461bcd60e51b81526004016104de90612846565b60006001600160a01b03821661082a5760405162461bcd60e51b815260206004820152602960248201527f4552433732313a2061646472657373207a65726f206973206e6f7420612076616044820152683634b21037bbb732b960b91b60648201526084016104de565b506001600160a01b031660009081526003602052604090205490565b6060600180546103bf90612935565b610860338383611d0c565b5050565b600a546001600160a01b031633146108d45760405162461bcd60e51b815260206004820152602d60248201527f4f6e6c792070726f7065727479206f776e65722063616e20757064617465206c60448201526c34b9ba34b73390383934b1b29760991b60648201526084016104de565b600955565b6108e33383611875565b6108ff5760405162461bcd60e51b81526004016104de90612878565b6106e984848484611dd7565b600080600b60009054906101000a90046001600160a01b03166001600160a01b031663feaf968c6040518163ffffffff1660e01b815260040160a06040518083038186803b15801561095c57600080fd5b505afa158015610970573d6000803e3d6000fd5b505050506040513d601f19601f820116820180604052508101906109949190612588565b5050509150505090565b60606109a982611655565b600082815260066020526040812080546109c290612935565b80601f01602080910402602001604051908101604052809291908181526020018280546109ee90612935565b8015610a3b5780601f10610a1057610100808354040283529160200191610a3b565b820191906000526020600020905b815481529060010190602001808311610a1e57829003601f168201915b505050505090506000610a5960408051602081019091526000815290565b9050805160001415610a6c575092915050565b815115610a9e578082604051602001610a86929190612610565b60405160208183030381529060405292505050919050565b610aa784611e0a565b949350505050565b60606000610abc60075490565b90506000610ac960085490565b600754610ad691906128f2565b9050600080826001600160401b03811115610b0157634e487b7160e01b600052604160045260246000fd5b604051908082528060200260200182016040528015610b3a57816020015b610b276120c1565b815260200190600190039081610b1f5790505b50905060005b848110156110435730600c6000610b588460016128c6565b81526020810191909152604001600020600201546001600160a01b03161415611031576000610b888260016128c6565b6000818152600c60209081526040918290208251610180810184528154815260018201546001600160a01b039081169382019390935260028201549092169282019290925260038201546060820152600482018054939450919290918391608084019190610bf590612935565b80601f0160208091040260200160405190810160405280929190818152602001828054610c2190612935565b8015610c6e5780601f10610c4357610100808354040283529160200191610c6e565b820191906000526020600020905b815481529060010190602001808311610c5157829003601f168201915b50505050508152602001600582018054610c8790612935565b80601f0160208091040260200160405190810160405280929190818152602001828054610cb390612935565b8015610d005780601f10610cd557610100808354040283529160200191610d00565b820191906000526020600020905b815481529060010190602001808311610ce357829003601f168201915b50505050508152602001600682018054610d1990612935565b80601f0160208091040260200160405190810160405280929190818152602001828054610d4590612935565b8015610d925780601f10610d6757610100808354040283529160200191610d92565b820191906000526020600020905b815481529060010190602001808311610d7557829003601f168201915b50505050508152602001600782018054610dab90612935565b80601f0160208091040260200160405190810160405280929190818152602001828054610dd790612935565b8015610e245780601f10610df957610100808354040283529160200191610e24565b820191906000526020600020905b815481529060010190602001808311610e0757829003601f168201915b50505050508152602001600882018054610e3d90612935565b80601f0160208091040260200160405190810160405280929190818152602001828054610e6990612935565b8015610eb65780601f10610e8b57610100808354040283529160200191610eb6565b820191906000526020600020905b815481529060010190602001808311610e9957829003601f168201915b50505050508152602001600982018054610ecf90612935565b80601f0160208091040260200160405190810160405280929190818152602001828054610efb90612935565b8015610f485780601f10610f1d57610100808354040283529160200191610f48565b820191906000526020600020905b815481529060010190602001808311610f2b57829003601f168201915b50505050508152602001600a82018054610f6190612935565b80601f0160208091040260200160405190810160405280929190818152602001828054610f8d90612935565b8015610fda5780601f10610faf57610100808354040283529160200191610fda565b820191906000526020600020905b815481529060010190602001808311610fbd57829003601f168201915b5050509183525050600b919091015460ff161515602090910152845185908790811061101657634e487b7160e01b600052603260045260246000fd5b602090810291909101015261102c6001866128c6565b945050505b8061103b81612970565b915050610b40565b50949350505050565b6060600061105960075490565b905060008060005b838110156110bc5733600c60006110798460016128c6565b81526020810191909152604001600020600201546001600160a01b031614156110aa576110a76001846128c6565b92505b806110b481612970565b915050611061565b506000826001600160401b038111156110e557634e487b7160e01b600052604160045260246000fd5b60405190808252806020026020018201604052801561111e57816020015b61110b6120c1565b8152602001906001900390816111035790505b50905060005b848110156110435733600c600061113c8460016128c6565b81526020810191909152604001600020600201546001600160a01b0316141561161557600061116c8260016128c6565b6000818152600c60209081526040918290208251610180810184528154815260018201546001600160a01b0390811693820193909352600282015490921692820192909252600382015460608201526004820180549394509192909183916080840191906111d990612935565b80601f016020809104026020016040519081016040528092919081815260200182805461120590612935565b80156112525780601f1061122757610100808354040283529160200191611252565b820191906000526020600020905b81548152906001019060200180831161123557829003601f168201915b5050505050815260200160058201805461126b90612935565b80601f016020809104026020016040519081016040528092919081815260200182805461129790612935565b80156112e45780601f106112b9576101008083540402835291602001916112e4565b820191906000526020600020905b8154815290600101906020018083116112c757829003601f168201915b505050505081526020016006820180546112fd90612935565b80601f016020809104026020016040519081016040528092919081815260200182805461132990612935565b80156113765780601f1061134b57610100808354040283529160200191611376565b820191906000526020600020905b81548152906001019060200180831161135957829003601f168201915b5050505050815260200160078201805461138f90612935565b80601f01602080910402602001604051908101604052809291908181526020018280546113bb90612935565b80156114085780601f106113dd57610100808354040283529160200191611408565b820191906000526020600020905b8154815290600101906020018083116113eb57829003601f168201915b5050505050815260200160088201805461142190612935565b80601f016020809104026020016040519081016040528092919081815260200182805461144d90612935565b801561149a5780601f1061146f5761010080835404028352916020019161149a565b820191906000526020600020905b81548152906001019060200180831161147d57829003601f168201915b505050505081526020016009820180546114b390612935565b80601f01602080910402602001604051908101604052809291908181526020018280546114df90612935565b801561152c5780601f106115015761010080835404028352916020019161152c565b820191906000526020600020905b81548152906001019060200180831161150f57829003601f168201915b50505050508152602001600a8201805461154590612935565b80601f016020809104026020016040519081016040528092919081815260200182805461157190612935565b80156115be5780601f10611593576101008083540402835291602001916115be565b820191906000526020600020905b8154815290600101906020018083116115a157829003601f168201915b5050509183525050600b919091015460ff16151560209091015284518590879081106115fa57634e487b7160e01b600052603260045260246000fd5b60209081029190910101526116106001866128c6565b945050505b8061161f81612970565b915050611124565b6001600160a01b03918216600090815260056020908152604080832093909416825291909152205460ff1690565b61165e81611e7e565b61167a5760405162461bcd60e51b81526004016104de90612846565b50565b600081815260046020526040902080546001600160a01b0319166001600160a01b03841690811790915581906116b28261078b565b6001600160a01b03167f8c5be1e5ebec7d5bd14f71427d1e84f3dd0314c0f7b2291e5b200ac8c7c3b92560405160405180910390a45050565b826001600160a01b03166116fe8261078b565b6001600160a01b0316146117625760405162461bcd60e51b815260206004820152602560248201527f4552433732313a207472616e736665722066726f6d20696e636f72726563742060448201526437bbb732b960d91b60648201526084016104de565b6001600160a01b0382166117c45760405162461bcd60e51b8152602060048201526024808201527f4552433732313a207472616e7366657220746f20746865207a65726f206164646044820152637265737360e01b60648201526084016104de565b6117cf60008261167d565b6001600160a01b03831660009081526003602052604081208054600192906117f89084906128f2565b90915550506001600160a01b03821660009081526003602052604081208054600192906118269084906128c6565b909155505060008181526002602052604080822080546001600160a01b0319166001600160a01b0386811691821790925591518493918716916000805160206129f883398151915291a4505050565b6000806118818361078b565b9050806001600160a01b0316846001600160a01b031614806118a857506118a88185611627565b80610aa75750836001600160a01b03166118c184610442565b6001600160a01b031614949350505050565b6001600160a01b0382166119295760405162461bcd60e51b815260206004820181905260248201527f4552433732313a206d696e7420746f20746865207a65726f206164647265737360448201526064016104de565b61193281611e7e565b1561197e5760405162461bcd60e51b815260206004820152601c60248201527b115490cdcc8c4e881d1bdad95b88185b1c9958591e481b5a5b9d195960221b60448201526064016104de565b6001600160a01b03821660009081526003602052604081208054600192906119a79084906128c6565b909155505060008181526002602052604080822080546001600160a01b0319166001600160a01b03861690811790915590518392906000805160206129f8833981519152908290a45050565b6119fc82611e7e565b611a5f5760405162461bcd60e51b815260206004820152602e60248201527f45524337323155524953746f726167653a2055524920736574206f66206e6f6e60448201526d32bc34b9ba32b73a103a37b5b2b760911b60648201526084016104de565b6000828152600660209081526040909120825161057f92840190612136565b60008811611acd5760405162461bcd60e51b815260206004820152601c60248201527b5072696365206d757374206265206174206c6561737420312077656960201b60448201526064016104de565b6009543414611b2a5760405162461bcd60e51b8152602060048201526024808201527f5072696365206d75737420626520657175616c20746f206c697374696e6720706044820152637269636560e01b60648201526084016104de565b6040518061018001604052808a8152602001336001600160a01b03168152602001306001600160a01b0316815260200189815260200188815260200187815260200186815260200185815260200184815260200183815260200182815260200160001515815250600c60008b81526020019081526020016000206000820151816000015560208201518160010160006101000a8154816001600160a01b0302191690836001600160a01b0316021790555060408201518160020160006101000a8154816001600160a01b0302191690836001600160a01b03160217905550606082015181600301556080820151816004019080519060200190611c2e929190612136565b5060a08201518051611c4a916005840191602090910190612136565b5060c08201518051611c66916006840191602090910190612136565b5060e08201518051611c82916007840191602090910190612136565b506101008201518051611c9f916008840191602090910190612136565b506101208201518051611cbc916009840191602090910190612136565b506101408201518051611cd991600a840191602090910190612136565b506101609190910151600b909101805460ff1916911515919091179055611d0133308b6116eb565b505050505050505050565b816001600160a01b0316836001600160a01b03161415611d6a5760405162461bcd60e51b815260206004820152601960248201527822a9219b99189d1030b8383937bb32903a379031b0b63632b960391b60448201526064016104de565b6001600160a01b03838116600081815260056020908152604080832094871680845294825291829020805460ff191686151590811790915591519182527f17307eab39ab6107e8899845ad3d59bd9653f200f220920489ca2b5937696c31910160405180910390a3505050565b611de28484846116eb565b611dee84848484611e9b565b6106e95760405162461bcd60e51b81526004016104de906127f4565b6060611e1582611655565b6000611e2c60408051602081019091526000815290565b90506000815111611e4c5760405180602001604052806000815250611e77565b80611e5684611fa8565b604051602001611e67929190612610565b6040516020818303038152906040525b9392505050565b6000908152600260205260409020546001600160a01b0316151590565b60006001600160a01b0384163b15611f9d57604051630a85bd0160e11b81526001600160a01b0385169063150b7a0290611edf90339089908890889060040161263f565b602060405180830381600087803b158015611ef957600080fd5b505af1925050508015611f29575060408051601f3d908101601f19168201909252611f2691810190612414565b60015b611f83573d808015611f57576040519150601f19603f3d011682016040523d82523d6000602084013e611f5c565b606091505b508051611f7b5760405162461bcd60e51b81526004016104de906127f4565b805181602001fd5b6001600160e01b031916630a85bd0160e11b149050610aa7565b506001949350505050565b606081611fcc5750506040805180820190915260018152600360fc1b602082015290565b8160005b8115611ff65780611fe081612970565b9150611fef9050600a836128de565b9150611fd0565b6000816001600160401b0381111561201e57634e487b7160e01b600052604160045260246000fd5b6040519080825280601f01601f191660200182016040528015612048576020820181803683370190505b5090505b8415610aa75761205d6001836128f2565b915061206a600a8661298b565b6120759060306128c6565b60f81b81838151811061209857634e487b7160e01b600052603260045260246000fd5b60200101906001600160f81b031916908160001a9053506120ba600a866128de565b945061204c565b6040518061018001604052806000815260200160006001600160a01b0316815260200160006001600160a01b0316815260200160008152602001606081526020016060815260200160608152602001606081526020016060815260200160608152602001606081526020016000151581525090565b82805461214290612935565b90600052602060002090601f01602090048101928261216457600085556121aa565b82601f1061217d57805160ff19168380011785556121aa565b828001600101855582156121aa579182015b828111156121aa57825182559160200191906001019061218f565b506121b69291506121ba565b5090565b5b808211156121b657600081556001016121bb565b60006001600160401b03808411156121e9576121e96129cb565b604051601f8501601f19908116603f01168101908282118183101715612211576122116129cb565b8160405280935085815286868601111561222a57600080fd5b858560208301376000602087830101525050509392505050565b80356001600160a01b038116811461225b57600080fd5b919050565b600082601f830112612270578081fd5b611e77838335602085016121cf565b80516001600160501b038116811461225b57600080fd5b6000602082840312156122a7578081fd5b611e7782612244565b600080604083850312156122c2578081fd5b6122cb83612244565b91506122d960208401612244565b90509250929050565b6000806000606084860312156122f6578081fd5b6122ff84612244565b925061230d60208501612244565b9150604084013590509250925092565b60008060008060808587031215612332578081fd5b61233b85612244565b935061234960208601612244565b92506040850135915060608501356001600160401b0381111561236a578182fd5b8501601f8101871361237a578182fd5b612389878235602084016121cf565b91505092959194509250565b600080604083850312156123a7578182fd5b6123b083612244565b9150602083013580151581146123c4578182fd5b809150509250929050565b600080604083850312156123e1578182fd5b6123ea83612244565b946020939093013593505050565b600060208284031215612409578081fd5b8135611e77816129e1565b600060208284031215612425578081fd5b8151611e77816129e1565b60008060008060008060008060006101208a8c03121561244e578485fd5b89356001600160401b0380821115612464578687fd5b6124708d838e01612260565b9a5060208c0135995060408c013591508082111561248c578687fd5b6124988d838e01612260565b985060608c01359150808211156124ad578687fd5b6124b98d838e01612260565b975060808c01359150808211156124ce578687fd5b6124da8d838e01612260565b965060a08c01359150808211156124ef578586fd5b6124fb8d838e01612260565b955060c08c0135915080821115612510578485fd5b61251c8d838e01612260565b945060e08c0135915080821115612531578384fd5b61253d8d838e01612260565b93506101008c0135915080821115612553578283fd5b506125608c828d01612260565b9150509295985092959850929598565b600060208284031215612581578081fd5b5035919050565b600080600080600060a0868803121561259f578283fd5b6125a88661227f565b94506020860151935060408601519250606086015191506125cb6080870161227f565b90509295509295909350565b6001600160a01b03169052565b600081518084526125fc816020860160208601612909565b601f01601f19169290920160200192915050565b60008351612622818460208801612909565b835190830190612636818360208801612909565b01949350505050565b6001600160a01b0385811682528416602082015260408101839052608060608201819052600090612672908301846125e4565b9695505050505050565b60006020808301818452808551808352604092508286019150828160051b870101848801865b838110156127d357603f19898403018552815161018081518552888201516126cc8a8701826125d7565b50878201516126dd898701826125d7565b5060608083015181870152506080808301518282880152612700838801826125e4565b9250505060a0808301518683038288015261271b83826125e4565b9250505060c0808301518683038288015261273683826125e4565b9250505060e0808301518683038288015261275183826125e4565b92505050610100808301518683038288015261276d83826125e4565b92505050610120808301518683038288015261278983826125e4565b9250505061014080830151868303828801526127a583826125e4565b925050506101608083015192506127bf8187018415159052565b5095880195935050908601906001016126a2565b509098975050505050505050565b602081526000611e7760208301846125e4565b60208082526032908201527f4552433732313a207472616e7366657220746f206e6f6e20455243373231526560408201527131b2b4bb32b91034b6b83632b6b2b73a32b960711b606082015260800190565b602080825260189082015277115490cdcc8c4e881a5b9d985b1a59081d1bdad95b88125160421b604082015260600190565b6020808252602e908201527f4552433732313a2063616c6c6572206973206e6f7420746f6b656e206f776e6560408201526d1c881b9bdc88185c1c1c9bdd995960921b606082015260800190565b600082198211156128d9576128d961299f565b500190565b6000826128ed576128ed6129b5565b500490565b6000828210156129045761290461299f565b500390565b60005b8381101561292457818101518382015260200161290c565b838111156106e95750506000910152565b600181811c9082168061294957607f821691505b6020821081141561296a57634e487b7160e01b600052602260045260246000fd5b50919050565b60006000198214156129845761298461299f565b5060010190565b60008261299a5761299a6129b5565b500690565b634e487b7160e01b600052601160045260246000fd5b634e487b7160e01b600052601260045260246000fd5b634e487b7160e01b600052604160045260246000fd5b6001600160e01b03198116811461167a57600080fdfeddf252ad1be2c89b69c2b068fc378daa952ba7f163c4a11628f55a4df523b3efa2646970667358221220bd96773bb4b744a7ccf0b7489a0d272beaf88c286ec42d3d7ba75c42965b6a2564736f6c63430008040033",
  "linkReferences": {},
  "deployedLinkReferences": {}
}