{
  "_format": "hh-sol-artifact-1",
  "contractName": "Mover",
  "sourceName": "contracts/Mover.sol",
  "abi": [
    {
      "inputs": [
        {
          "components": [
            {
              "internalType": "uint256",
              "name": "id",
              "type": "uint256"
            },
            {
              "internalType": "string",
              "name": "propertynumber",
              "type": "string"
            },
            {
              "internalType": "string",
              "name": "ownername",
              "type": "string"
            },
            {
              "components": [
                {
                  "internalType": "string",
                  "name": "propertylocation",
                  "type": "string"
                },
                {
                  "internalType": "string",
                  "name": "propertyspace",
                  "type": "string"
                },
                {
                  "internalType": "string",
                  "name": "propertyparkingspace",
                  "type": "string"
                },
                {
                  "internalType": "string",
                  "name": "propertybathroom",
                  "type": "string"
                },
                {
                  "internalType": "string",
                  "name": "propertybedroom",
                  "type": "string"
                },
                {
                  "internalType": "string",
                  "name": "propertycategory",
                  "type": "string"
                },
                {
                  "internalType": "string",
                  "name": "propertytype",
                  "type": "string"
                },
                {
                  "internalType": "string",
                  "name": "propertyduration",
                  "type": "string"
                }
              ],
              "internalType": "struct Mover.Nested",
              "name": "nested",
              "type": "tuple"
            }
          ],
          "internalType": "struct Mover.PropertyOwner",
          "name": "property_",
          "type": "tuple"
        }
      ],
      "name": "addProperty",
      "outputs": [],
      "stateMutability": "payable",
      "type": "function"
    },
    {
      "inputs": [],
      "name": "fetchPropertyOwner",
      "outputs": [
        {
          "components": [
            {
              "internalType": "uint256",
              "name": "id",
              "type": "uint256"
            },
            {
              "internalType": "string",
              "name": "propertynumber",
              "type": "string"
            },
            {
              "internalType": "string",
              "name": "ownername",
              "type": "string"
            },
            {
              "components": [
                {
                  "internalType": "string",
                  "name": "propertylocation",
                  "type": "string"
                },
                {
                  "internalType": "string",
                  "name": "propertyspace",
                  "type": "string"
                },
                {
                  "internalType": "string",
                  "name": "propertyparkingspace",
                  "type": "string"
                },
                {
                  "internalType": "string",
                  "name": "propertybathroom",
                  "type": "string"
                },
                {
                  "internalType": "string",
                  "name": "propertybedroom",
                  "type": "string"
                },
                {
                  "internalType": "string",
                  "name": "propertycategory",
                  "type": "string"
                },
                {
                  "internalType": "string",
                  "name": "propertytype",
                  "type": "string"
                },
                {
                  "internalType": "string",
                  "name": "propertyduration",
                  "type": "string"
                }
              ],
              "internalType": "struct Mover.Nested",
              "name": "nested",
              "type": "tuple"
            }
          ],
          "internalType": "struct Mover.PropertyOwner[]",
          "name": "",
          "type": "tuple[]"
        }
      ],
      "stateMutability": "view",
      "type": "function"
    },
    {
      "inputs": [
        {
          "internalType": "uint256",
          "name": "",
          "type": "uint256"
        }
      ],
      "name": "idPropertyOwner",
      "outputs": [
        {
          "internalType": "uint256",
          "name": "id",
          "type": "uint256"
        },
        {
          "internalType": "string",
          "name": "propertynumber",
          "type": "string"
        },
        {
          "internalType": "string",
          "name": "ownername",
          "type": "string"
        },
        {
          "components": [
            {
              "internalType": "string",
              "name": "propertylocation",
              "type": "string"
            },
            {
              "internalType": "string",
              "name": "propertyspace",
              "type": "string"
            },
            {
              "internalType": "string",
              "name": "propertyparkingspace",
              "type": "string"
            },
            {
              "internalType": "string",
              "name": "propertybathroom",
              "type": "string"
            },
            {
              "internalType": "string",
              "name": "propertybedroom",
              "type": "string"
            },
            {
              "internalType": "string",
              "name": "propertycategory",
              "type": "string"
            },
            {
              "internalType": "string",
              "name": "propertytype",
              "type": "string"
            },
            {
              "internalType": "string",
              "name": "propertyduration",
              "type": "string"
            }
          ],
          "internalType": "struct Mover.Nested",
          "name": "nested",
          "type": "tuple"
        }
      ],
      "stateMutability": "view",
      "type": "function"
    },
    {
      "inputs": [],
      "name": "propertyCount",
      "outputs": [
        {
          "internalType": "uint256",
          "name": "",
          "type": "uint256"
        }
      ],
      "stateMutability": "view",
      "type": "function"
    }
  ],
  "bytecode": "0x6080604052600060015534801561001557600080fd5b506115fe806100256000396000f3fe60806040526004361061003f5760003560e01c806301b29328146100445780639a7704c714610059578063c361a33514610092578063e3992ef4146100b6575b600080fd5b6100576100523660046111fe565b6100d8565b005b34801561006557600080fd5b506100796100743660046112b6565b61028a565b6040516100899493929190611499565b60405180910390f35b34801561009e57600080fd5b506100a860015481565b604051908152602001610089565b3480156100c257600080fd5b506100cb61085e565b60405161008991906113ee565b60008160400151511161012a5760405162461bcd60e51b815260206004820152601660248201527513dddb995c881b985b59481a5cc81c995c5d5a5c995960521b604482015260640160405180910390fd5b6001805490600061013a83611581565b909155505060018054600081815260208181526040909120918255838101518051929361016f93908501929190910190610f26565b506040820151805161018b916002840191602090910190610f26565b5060608201515180516101a8916003840191602090910190610f26565b50606082015160209081015180516101c69260048501920190610f26565b5060608201516040015180516101e6916005840191602090910190610f26565b5060608083015101518051610205916006840191602090910190610f26565b506060820151608001518051610225916007840191602090910190610f26565b50606082015160a001518051610245916008840191602090910190610f26565b50606082015160c001518051610265916009840191602090910190610f26565b50606082015160e00151805161028591600a840191602090910190610f26565b505050565b600060208190529081526040902080546001820180549192916102ac90611546565b80601f01602080910402602001604051908101604052809291908181526020018280546102d890611546565b80156103255780601f106102fa57610100808354040283529160200191610325565b820191906000526020600020905b81548152906001019060200180831161030857829003601f168201915b50505050509080600201805461033a90611546565b80601f016020809104026020016040519081016040528092919081815260200182805461036690611546565b80156103b35780601f10610388576101008083540402835291602001916103b3565b820191906000526020600020905b81548152906001019060200180831161039657829003601f168201915b50505050509080600301604051806101000160405290816000820180546103d990611546565b80601f016020809104026020016040519081016040528092919081815260200182805461040590611546565b80156104525780601f1061042757610100808354040283529160200191610452565b820191906000526020600020905b81548152906001019060200180831161043557829003601f168201915b5050505050815260200160018201805461046b90611546565b80601f016020809104026020016040519081016040528092919081815260200182805461049790611546565b80156104e45780601f106104b9576101008083540402835291602001916104e4565b820191906000526020600020905b8154815290600101906020018083116104c757829003601f168201915b505050505081526020016002820180546104fd90611546565b80601f016020809104026020016040519081016040528092919081815260200182805461052990611546565b80156105765780601f1061054b57610100808354040283529160200191610576565b820191906000526020600020905b81548152906001019060200180831161055957829003601f168201915b5050505050815260200160038201805461058f90611546565b80601f01602080910402602001604051908101604052809291908181526020018280546105bb90611546565b80156106085780601f106105dd57610100808354040283529160200191610608565b820191906000526020600020905b8154815290600101906020018083116105eb57829003601f168201915b5050505050815260200160048201805461062190611546565b80601f016020809104026020016040519081016040528092919081815260200182805461064d90611546565b801561069a5780601f1061066f5761010080835404028352916020019161069a565b820191906000526020600020905b81548152906001019060200180831161067d57829003601f168201915b505050505081526020016005820180546106b390611546565b80601f01602080910402602001604051908101604052809291908181526020018280546106df90611546565b801561072c5780601f106107015761010080835404028352916020019161072c565b820191906000526020600020905b81548152906001019060200180831161070f57829003601f168201915b5050505050815260200160068201805461074590611546565b80601f016020809104026020016040519081016040528092919081815260200182805461077190611546565b80156107be5780601f10610793576101008083540402835291602001916107be565b820191906000526020600020905b8154815290600101906020018083116107a157829003601f168201915b505050505081526020016007820180546107d790611546565b80601f016020809104026020016040519081016040528092919081815260200182805461080390611546565b80156108505780601f1061082557610100808354040283529160200191610850565b820191906000526020600020905b81548152906001019060200180831161083357829003601f168201915b505050505081525050905084565b600154606090600080826001600160401b0381111561088d57634e487b7160e01b600052604160045260246000fd5b6040519080825280602002602001820160405280156108c657816020015b6108b3610faa565b8152602001906001900390816108ab5790505b50905060005b83811015610f1e5760006108e182600161152e565b6000818152602081815260409182902082516080810190935280548352600181018054949550909384928401919061091890611546565b80601f016020809104026020016040519081016040528092919081815260200182805461094490611546565b80156109915780601f1061096657610100808354040283529160200191610991565b820191906000526020600020905b81548152906001019060200180831161097457829003601f168201915b505050505081526020016002820180546109aa90611546565b80601f01602080910402602001604051908101604052809291908181526020018280546109d690611546565b8015610a235780601f106109f857610100808354040283529160200191610a23565b820191906000526020600020905b815481529060010190602001808311610a0657829003601f168201915b505050505081526020016003820160405180610100016040529081600082018054610a4d90611546565b80601f0160208091040260200160405190810160405280929190818152602001828054610a7990611546565b8015610ac65780601f10610a9b57610100808354040283529160200191610ac6565b820191906000526020600020905b815481529060010190602001808311610aa957829003601f168201915b50505050508152602001600182018054610adf90611546565b80601f0160208091040260200160405190810160405280929190818152602001828054610b0b90611546565b8015610b585780601f10610b2d57610100808354040283529160200191610b58565b820191906000526020600020905b815481529060010190602001808311610b3b57829003601f168201915b50505050508152602001600282018054610b7190611546565b80601f0160208091040260200160405190810160405280929190818152602001828054610b9d90611546565b8015610bea5780601f10610bbf57610100808354040283529160200191610bea565b820191906000526020600020905b815481529060010190602001808311610bcd57829003601f168201915b50505050508152602001600382018054610c0390611546565b80601f0160208091040260200160405190810160405280929190818152602001828054610c2f90611546565b8015610c7c5780601f10610c5157610100808354040283529160200191610c7c565b820191906000526020600020905b815481529060010190602001808311610c5f57829003601f168201915b50505050508152602001600482018054610c9590611546565b80601f0160208091040260200160405190810160405280929190818152602001828054610cc190611546565b8015610d0e5780601f10610ce357610100808354040283529160200191610d0e565b820191906000526020600020905b815481529060010190602001808311610cf157829003601f168201915b50505050508152602001600582018054610d2790611546565b80601f0160208091040260200160405190810160405280929190818152602001828054610d5390611546565b8015610da05780601f10610d7557610100808354040283529160200191610da0565b820191906000526020600020905b815481529060010190602001808311610d8357829003601f168201915b50505050508152602001600682018054610db990611546565b80601f0160208091040260200160405190810160405280929190818152602001828054610de590611546565b8015610e325780601f10610e0757610100808354040283529160200191610e32565b820191906000526020600020905b815481529060010190602001808311610e1557829003601f168201915b50505050508152602001600782018054610e4b90611546565b80601f0160208091040260200160405190810160405280929190818152602001828054610e7790611546565b8015610ec45780601f10610e9957610100808354040283529160200191610ec4565b820191906000526020600020905b815481529060010190602001808311610ea757829003601f168201915b50505050508152505081525050848681518110610ef157634e487b7160e01b600052603260045260246000fd5b6020908102919091010152610f0760018661152e565b945050508080610f1690611581565b9150506108cc565b509392505050565b828054610f3290611546565b90600052602060002090601f016020900481019282610f545760008555610f9a565b82601f10610f6d57805160ff1916838001178555610f9a565b82800160010185558215610f9a579182015b82811115610f9a578251825591602001919060010190610f7f565b50610fa6929150611017565b5090565b604051806080016040528060008152602001606081526020016060815260200161101260405180610100016040528060608152602001606081526020016060815260200160608152602001606081526020016060815260200160608152602001606081525090565b905290565b5b80821115610fa65760008155600101611018565b600082601f83011261103c578081fd5b81356001600160401b0380821115611056576110566115b2565b604051601f8301601f19908116603f0116810190828211818310171561107e5761107e6115b2565b81604052838152866020858801011115611096578485fd5b8360208701602083013792830160200193909352509392505050565b600061010082840312156110c4578081fd5b6110cc6114e3565b905081356001600160401b03808211156110e557600080fd5b6110f18583860161102c565b8352602084013591508082111561110757600080fd5b6111138583860161102c565b6020840152604084013591508082111561112c57600080fd5b6111388583860161102c565b6040840152606084013591508082111561115157600080fd5b61115d8583860161102c565b6060840152608084013591508082111561117657600080fd5b6111828583860161102c565b608084015260a084013591508082111561119b57600080fd5b6111a78583860161102c565b60a084015260c08401359150808211156111c057600080fd5b6111cc8583860161102c565b60c084015260e08401359150808211156111e557600080fd5b506111f28482850161102c565b60e08301525092915050565b60006020828403121561120f578081fd5b81356001600160401b0380821115611225578283fd5b9083019060808286031215611238578283fd5b61124061150c565b82358152602083013582811115611255578485fd5b6112618782860161102c565b602083015250604083013582811115611278578485fd5b6112848782860161102c565b60408301525060608301358281111561129b578485fd5b6112a7878286016110b2565b60608301525095945050505050565b6000602082840312156112c7578081fd5b5035919050565b60008151808452815b818110156112f3576020818501810151868301820152016112d7565b818111156113045782602083870101525b50601f01601f19169290920160200192915050565b6000610100825181855261132f828601826112ce565b9150506020830151848203602086015261134982826112ce565b9150506040830151848203604086015261136382826112ce565b9150506060830151848203606086015261137d82826112ce565b9150506080830151848203608086015261139782826112ce565b91505060a083015184820360a08601526113b182826112ce565b91505060c083015184820360c08601526113cb82826112ce565b91505060e083015184820360e08601526113e582826112ce565b95945050505050565b60006020808301818452808551808352604092508286019150828160051b870101848801865b8381101561148b57603f19898403018552815160808151855288820151818a870152611442828701826112ce565b915050878201518582038987015261145a82826112ce565b915050606080830151925085820381870152506114778183611319565b968901969450505090860190600101611414565b509098975050505050505050565b8481526080602082015260006114b260808301866112ce565b82810360408401526114c481866112ce565b905082810360608401526114d88185611319565b979650505050505050565b60405161010081016001600160401b0381118282101715611506576115066115b2565b60405290565b604051608081016001600160401b0381118282101715611506576115066115b2565b600082198211156115415761154161159c565b500190565b600181811c9082168061155a57607f821691505b6020821081141561157b57634e487b7160e01b600052602260045260246000fd5b50919050565b60006000198214156115955761159561159c565b5060010190565b634e487b7160e01b600052601160045260246000fd5b634e487b7160e01b600052604160045260246000fdfea264697066735822122098105981b84cc21bd9043f8dff8dd51f2d0f1870ac5276314f4cd99dbdd0b0f664736f6c63430008040033",
  "linkReferences": {},
  "deployedLinkReferences": {}
}