{
  "_format": "hh-sol-artifact-1",
  "contractName": "Mover",
  "sourceName": "contracts/Mover.sol",
  "abi": [
    {
      "inputs": [],
      "stateMutability": "nonpayable",
      "type": "constructor"
    },
    {
      "anonymous": false,
      "inputs": [
        {
          "indexed": true,
          "internalType": "address",
          "name": "owner",
          "type": "address"
        },
        {
          "indexed": true,
          "internalType": "address",
          "name": "approved",
          "type": "address"
        },
        {
          "indexed": true,
          "internalType": "uint256",
          "name": "tokenId",
          "type": "uint256"
        }
      ],
      "name": "Approval",
      "type": "event"
    },
    {
      "anonymous": false,
      "inputs": [
        {
          "indexed": true,
          "internalType": "address",
          "name": "owner",
          "type": "address"
        },
        {
          "indexed": true,
          "internalType": "address",
          "name": "operator",
          "type": "address"
        },
        {
          "indexed": false,
          "internalType": "bool",
          "name": "approved",
          "type": "bool"
        }
      ],
      "name": "ApprovalForAll",
      "type": "event"
    },
    {
      "anonymous": false,
      "inputs": [
        {
          "indexed": true,
          "internalType": "uint256",
          "name": "propertyId",
          "type": "uint256"
        },
        {
          "indexed": false,
          "internalType": "address",
          "name": "buyer",
          "type": "address"
        },
        {
          "indexed": false,
          "internalType": "address",
          "name": "owner",
          "type": "address"
        },
        {
          "indexed": false,
          "internalType": "uint256",
          "name": "price",
          "type": "uint256"
        },
        {
          "indexed": false,
          "internalType": "string",
          "name": "propertylocation",
          "type": "string"
        },
        {
          "indexed": false,
          "internalType": "string",
          "name": "propertydescription",
          "type": "string"
        },
        {
          "indexed": false,
          "internalType": "string",
          "name": "propertycategory",
          "type": "string"
        },
        {
          "indexed": false,
          "internalType": "string",
          "name": "propertytype",
          "type": "string"
        },
        {
          "indexed": false,
          "internalType": "string",
          "name": "hash",
          "type": "string"
        },
        {
          "indexed": false,
          "internalType": "string",
          "name": "supportimage1",
          "type": "string"
        },
        {
          "indexed": false,
          "internalType": "string",
          "name": "supportimage2",
          "type": "string"
        },
        {
          "indexed": false,
          "internalType": "bool",
          "name": "sold",
          "type": "bool"
        }
      ],
      "name": "PropertyOwnerCreated",
      "type": "event"
    },
    {
      "anonymous": false,
      "inputs": [
        {
          "indexed": true,
          "internalType": "address",
          "name": "from",
          "type": "address"
        },
        {
          "indexed": true,
          "internalType": "address",
          "name": "to",
          "type": "address"
        },
        {
          "indexed": true,
          "internalType": "uint256",
          "name": "tokenId",
          "type": "uint256"
        }
      ],
      "name": "Transfer",
      "type": "event"
    },
    {
      "inputs": [
        {
          "internalType": "address",
          "name": "to",
          "type": "address"
        },
        {
          "internalType": "uint256",
          "name": "tokenId",
          "type": "uint256"
        }
      ],
      "name": "approve",
      "outputs": [],
      "stateMutability": "nonpayable",
      "type": "function"
    },
    {
      "inputs": [
        {
          "internalType": "address",
          "name": "owner",
          "type": "address"
        }
      ],
      "name": "balanceOf",
      "outputs": [
        {
          "internalType": "uint256",
          "name": "",
          "type": "uint256"
        }
      ],
      "stateMutability": "view",
      "type": "function"
    },
    {
      "inputs": [
        {
          "internalType": "string",
          "name": "tokenURI",
          "type": "string"
        },
        {
          "internalType": "uint256",
          "name": "price",
          "type": "uint256"
        },
        {
          "internalType": "string",
          "name": "_propertylocation",
          "type": "string"
        },
        {
          "internalType": "string",
          "name": "_propertydescription",
          "type": "string"
        },
        {
          "internalType": "string",
          "name": "_propertycategory",
          "type": "string"
        },
        {
          "internalType": "string",
          "name": "_propertytype",
          "type": "string"
        },
        {
          "internalType": "string",
          "name": "_hash",
          "type": "string"
        },
        {
          "internalType": "string",
          "name": "_supportimage1",
          "type": "string"
        },
        {
          "internalType": "string",
          "name": "_supportimage2",
          "type": "string"
        }
      ],
      "name": "createProperty",
      "outputs": [
        {
          "internalType": "uint256",
          "name": "",
          "type": "uint256"
        }
      ],
      "stateMutability": "payable",
      "type": "function"
    },
    {
      "inputs": [
        {
          "internalType": "uint256",
          "name": "propertyId",
          "type": "uint256"
        }
      ],
      "name": "createPropertyTransfer",
      "outputs": [],
      "stateMutability": "payable",
      "type": "function"
    },
    {
      "inputs": [],
      "name": "fetchMyProperties",
      "outputs": [
        {
          "components": [
            {
              "internalType": "uint256",
              "name": "propertyId",
              "type": "uint256"
            },
            {
              "internalType": "address payable",
              "name": "buyer",
              "type": "address"
            },
            {
              "internalType": "address payable",
              "name": "owner",
              "type": "address"
            },
            {
              "internalType": "uint256",
              "name": "price",
              "type": "uint256"
            },
            {
              "internalType": "string",
              "name": "propertylocation",
              "type": "string"
            },
            {
              "internalType": "string",
              "name": "propertydescription",
              "type": "string"
            },
            {
              "internalType": "string",
              "name": "propertycategory",
              "type": "string"
            },
            {
              "internalType": "string",
              "name": "propertytype",
              "type": "string"
            },
            {
              "internalType": "string",
              "name": "hash",
              "type": "string"
            },
            {
              "internalType": "string",
              "name": "supportimage1",
              "type": "string"
            },
            {
              "internalType": "string",
              "name": "supportimage2",
              "type": "string"
            },
            {
              "internalType": "bool",
              "name": "sold",
              "type": "bool"
            }
          ],
          "internalType": "struct Mover.PropertyOwner[]",
          "name": "",
          "type": "tuple[]"
        }
      ],
      "stateMutability": "view",
      "type": "function"
    },
    {
      "inputs": [],
      "name": "fetchUnsoldProperties",
      "outputs": [
        {
          "components": [
            {
              "internalType": "uint256",
              "name": "propertyId",
              "type": "uint256"
            },
            {
              "internalType": "address payable",
              "name": "buyer",
              "type": "address"
            },
            {
              "internalType": "address payable",
              "name": "owner",
              "type": "address"
            },
            {
              "internalType": "uint256",
              "name": "price",
              "type": "uint256"
            },
            {
              "internalType": "string",
              "name": "propertylocation",
              "type": "string"
            },
            {
              "internalType": "string",
              "name": "propertydescription",
              "type": "string"
            },
            {
              "internalType": "string",
              "name": "propertycategory",
              "type": "string"
            },
            {
              "internalType": "string",
              "name": "propertytype",
              "type": "string"
            },
            {
              "internalType": "string",
              "name": "hash",
              "type": "string"
            },
            {
              "internalType": "string",
              "name": "supportimage1",
              "type": "string"
            },
            {
              "internalType": "string",
              "name": "supportimage2",
              "type": "string"
            },
            {
              "internalType": "bool",
              "name": "sold",
              "type": "bool"
            }
          ],
          "internalType": "struct Mover.PropertyOwner[]",
          "name": "",
          "type": "tuple[]"
        }
      ],
      "stateMutability": "view",
      "type": "function"
    },
    {
      "inputs": [
        {
          "internalType": "uint256",
          "name": "tokenId",
          "type": "uint256"
        }
      ],
      "name": "getApproved",
      "outputs": [
        {
          "internalType": "address",
          "name": "",
          "type": "address"
        }
      ],
      "stateMutability": "view",
      "type": "function"
    },
    {
      "inputs": [],
      "name": "getListingPrice",
      "outputs": [
        {
          "internalType": "uint256",
          "name": "",
          "type": "uint256"
        }
      ],
      "stateMutability": "view",
      "type": "function"
    },
    {
      "inputs": [
        {
          "internalType": "address",
          "name": "owner",
          "type": "address"
        },
        {
          "internalType": "address",
          "name": "operator",
          "type": "address"
        }
      ],
      "name": "isApprovedForAll",
      "outputs": [
        {
          "internalType": "bool",
          "name": "",
          "type": "bool"
        }
      ],
      "stateMutability": "view",
      "type": "function"
    },
    {
      "inputs": [],
      "name": "name",
      "outputs": [
        {
          "internalType": "string",
          "name": "",
          "type": "string"
        }
      ],
      "stateMutability": "view",
      "type": "function"
    },
    {
      "inputs": [
        {
          "internalType": "uint256",
          "name": "tokenId",
          "type": "uint256"
        }
      ],
      "name": "ownerOf",
      "outputs": [
        {
          "internalType": "address",
          "name": "",
          "type": "address"
        }
      ],
      "stateMutability": "view",
      "type": "function"
    },
    {
      "inputs": [
        {
          "internalType": "address",
          "name": "from",
          "type": "address"
        },
        {
          "internalType": "address",
          "name": "to",
          "type": "address"
        },
        {
          "internalType": "uint256",
          "name": "tokenId",
          "type": "uint256"
        }
      ],
      "name": "safeTransferFrom",
      "outputs": [],
      "stateMutability": "nonpayable",
      "type": "function"
    },
    {
      "inputs": [
        {
          "internalType": "address",
          "name": "from",
          "type": "address"
        },
        {
          "internalType": "address",
          "name": "to",
          "type": "address"
        },
        {
          "internalType": "uint256",
          "name": "tokenId",
          "type": "uint256"
        },
        {
          "internalType": "bytes",
          "name": "data",
          "type": "bytes"
        }
      ],
      "name": "safeTransferFrom",
      "outputs": [],
      "stateMutability": "nonpayable",
      "type": "function"
    },
    {
      "inputs": [
        {
          "internalType": "address",
          "name": "operator",
          "type": "address"
        },
        {
          "internalType": "bool",
          "name": "approved",
          "type": "bool"
        }
      ],
      "name": "setApprovalForAll",
      "outputs": [],
      "stateMutability": "nonpayable",
      "type": "function"
    },
    {
      "inputs": [
        {
          "internalType": "bytes4",
          "name": "interfaceId",
          "type": "bytes4"
        }
      ],
      "name": "supportsInterface",
      "outputs": [
        {
          "internalType": "bool",
          "name": "",
          "type": "bool"
        }
      ],
      "stateMutability": "view",
      "type": "function"
    },
    {
      "inputs": [],
      "name": "symbol",
      "outputs": [
        {
          "internalType": "string",
          "name": "",
          "type": "string"
        }
      ],
      "stateMutability": "view",
      "type": "function"
    },
    {
      "inputs": [
        {
          "internalType": "uint256",
          "name": "tokenId",
          "type": "uint256"
        }
      ],
      "name": "tokenURI",
      "outputs": [
        {
          "internalType": "string",
          "name": "",
          "type": "string"
        }
      ],
      "stateMutability": "view",
      "type": "function"
    },
    {
      "inputs": [
        {
          "internalType": "address",
          "name": "from",
          "type": "address"
        },
        {
          "internalType": "address",
          "name": "to",
          "type": "address"
        },
        {
          "internalType": "uint256",
          "name": "tokenId",
          "type": "uint256"
        }
      ],
      "name": "transferFrom",
      "outputs": [],
      "stateMutability": "nonpayable",
      "type": "function"
    },
    {
      "inputs": [
        {
          "internalType": "uint256",
          "name": "_listingPrice",
          "type": "uint256"
        }
      ],
      "name": "updateListingPrice",
      "outputs": [],
      "stateMutability": "payable",
      "type": "function"
    }
  ],
  "bytecode": "0x60806040526658d15e176280006009553480156200001c57600080fd5b50604080518082018252601081526f4d657461766572736520546f6b656e7360801b6020808301918252835180850190945260048452631351551560e21b9084015281519192916200007191600091620000a2565b50805162000087906001906020840190620000a2565b5050600a80546001600160a01b031916331790555062000185565b828054620000b09062000148565b90600052602060002090601f016020900481019282620000d457600085556200011f565b82601f10620000ef57805160ff19168380011785556200011f565b828001600101855582156200011f579182015b828111156200011f57825182559160200191906001019062000102565b506200012d92915062000131565b5090565b5b808211156200012d576000815560010162000132565b600181811c908216806200015d57607f821691505b602082108114156200017f57634e487b7160e01b600052602260045260246000fd5b50919050565b61293480620001956000396000f3fe6080604052600436106100e45760003560e01c806301ffc9a7146100e957806306fdde031461011e578063081812fc14610140578063095ea7b31461017857806310c28b941461019a57806312e85585146101ad57806323b872dd146101cc57806342842e0e146101ec578063563c43611461020c5780636352211e1461021f57806370a082311461023f57806395d89b411461025f578063a22cb46514610274578063ae677aa314610294578063b88d4fde146102a7578063c87b56dd146102c7578063d15b4f13146102e7578063e409f7e814610309578063e985e9c51461031e575b600080fd5b3480156100f557600080fd5b5061010961010436600461232e565b61033e565b60405190151581526020015b60405180910390f35b34801561012a57600080fd5b50610133610390565b60405161011591906126c8565b34801561014c57600080fd5b5061016061015b3660046124a6565b610422565b6040516001600160a01b039091168152602001610115565b34801561018457600080fd5b50610198610193366004612305565b610449565b005b6101986101a83660046124a6565b610564565b3480156101b957600080fd5b506009545b604051908152602001610115565b3480156101d857600080fd5b506101986101e7366004612218565b6106cf565b3480156101f857600080fd5b50610198610207366004612218565b610700565b6101be61021a366004612366565b61071b565b34801561022b57600080fd5b5061016061023a3660046124a6565b61076b565b34801561024b57600080fd5b506101be61025a3660046121cc565b6107a0565b34801561026b57600080fd5b50610133610826565b34801561028057600080fd5b5061019861028f3660046122cb565b610835565b6101986102a23660046124a6565b610844565b3480156102b357600080fd5b506101986102c2366004612253565b6108b9565b3480156102d357600080fd5b506101336102e23660046124a6565b6108eb565b3480156102f357600080fd5b506102fc6109fc565b6040516101159190612563565b34801561031557600080fd5b506102fc610f99565b34801561032a57600080fd5b506101096103393660046121e6565b611574565b60006001600160e01b031982166380ac58cd60e01b148061036f57506001600160e01b03198216635b5e139f60e01b145b8061038a57506301ffc9a760e01b6001600160e01b03198316145b92915050565b60606000805461039f9061281c565b80601f01602080910402602001604051908101604052809291908181526020018280546103cb9061281c565b80156104185780601f106103ed57610100808354040283529160200191610418565b820191906000526020600020905b8154815290600101906020018083116103fb57829003601f168201915b5050505050905090565b600061042d826115a2565b506000908152600460205260409020546001600160a01b031690565b60006104548261076b565b9050806001600160a01b0316836001600160a01b031614156104c75760405162461bcd60e51b815260206004820152602160248201527f4552433732313a20617070726f76616c20746f2063757272656e74206f776e656044820152603960f91b60648201526084015b60405180910390fd5b336001600160a01b03821614806104e357506104e38133611574565b6105555760405162461bcd60e51b815260206004820152603e60248201527f4552433732313a20617070726f76652063616c6c6572206973206e6f7420746f60448201527f6b656e206f776e6572206e6f7220617070726f76656420666f7220616c6c000060648201526084016104be565b61055f83836115ca565b505050565b6000818152600b6020526040902060038101546001909101546001600160a01b03163482146105fd576040805162461bcd60e51b81526020600482015260248101919091527f506c65617365207375626d6974207468652061736b696e67207072696365206960448201527f6e206f7264657220746f20636f6d706c6574652074686520707572636861736560648201526084016104be565b6000838152600b602081905260409091206002810180546001600160a01b03199081163317909155918101805460ff19166001908117909155018054909116905561064c600880546001019055565b610657303385611638565b600a546009546040516001600160a01b039092169181156108fc0291906000818181858888f19350505050158015610693573d6000803e3d6000fd5b506040516001600160a01b038216903480156108fc02916000818181858888f193505050501580156106c9573d6000803e3d6000fd5b50505050565b6106d933826117c2565b6106f55760405162461bcd60e51b81526004016104be9061275f565b61055f838383611638565b61055f838383604051806020016040528060008152506108b9565b600061072b600780546001019055565b600061073660075490565b90506107423382611820565b61074c818c611940565b61075d818b8b8b8b8b8b8b8b6119cb565b9a9950505050505050505050565b6000818152600260205260408120546001600160a01b03168061038a5760405162461bcd60e51b81526004016104be9061272d565b60006001600160a01b03821661080a5760405162461bcd60e51b815260206004820152602960248201527f4552433732313a2061646472657373207a65726f206973206e6f7420612076616044820152683634b21037bbb732b960b91b60648201526084016104be565b506001600160a01b031660009081526003602052604090205490565b60606001805461039f9061281c565b610840338383611c59565b5050565b600a546001600160a01b031633146108b45760405162461bcd60e51b815260206004820152602d60248201527f4f6e6c792070726f7065727479206f776e65722063616e20757064617465206c60448201526c34b9ba34b73390383934b1b29760991b60648201526084016104be565b600955565b6108c333836117c2565b6108df5760405162461bcd60e51b81526004016104be9061275f565b6106c984848484611d24565b60606108f6826115a2565b6000828152600660205260408120805461090f9061281c565b80601f016020809104026020016040519081016040528092919081815260200182805461093b9061281c565b80156109885780601f1061095d57610100808354040283529160200191610988565b820191906000526020600020905b81548152906001019060200180831161096b57829003601f168201915b5050505050905060006109a660408051602081019091526000815290565b90508051600014156109b9575092915050565b8151156109eb5780826040516020016109d39291906124f7565b60405160208183030381529060405292505050919050565b6109f484611d57565b949350505050565b60606000610a0960075490565b90506000610a1660085490565b600754610a2391906127d9565b9050600080826001600160401b03811115610a4e57634e487b7160e01b600052604160045260246000fd5b604051908082528060200260200182016040528015610a8757816020015b610a7461200e565b815260200190600190039081610a6c5790505b50905060005b84811015610f905730600b6000610aa58460016127ad565b81526020810191909152604001600020600201546001600160a01b03161415610f7e576000610ad58260016127ad565b6000818152600b60209081526040918290208251610180810184528154815260018201546001600160a01b039081169382019390935260028201549092169282019290925260038201546060820152600482018054939450919290918391608084019190610b429061281c565b80601f0160208091040260200160405190810160405280929190818152602001828054610b6e9061281c565b8015610bbb5780601f10610b9057610100808354040283529160200191610bbb565b820191906000526020600020905b815481529060010190602001808311610b9e57829003601f168201915b50505050508152602001600582018054610bd49061281c565b80601f0160208091040260200160405190810160405280929190818152602001828054610c009061281c565b8015610c4d5780601f10610c2257610100808354040283529160200191610c4d565b820191906000526020600020905b815481529060010190602001808311610c3057829003601f168201915b50505050508152602001600682018054610c669061281c565b80601f0160208091040260200160405190810160405280929190818152602001828054610c929061281c565b8015610cdf5780601f10610cb457610100808354040283529160200191610cdf565b820191906000526020600020905b815481529060010190602001808311610cc257829003601f168201915b50505050508152602001600782018054610cf89061281c565b80601f0160208091040260200160405190810160405280929190818152602001828054610d249061281c565b8015610d715780601f10610d4657610100808354040283529160200191610d71565b820191906000526020600020905b815481529060010190602001808311610d5457829003601f168201915b50505050508152602001600882018054610d8a9061281c565b80601f0160208091040260200160405190810160405280929190818152602001828054610db69061281c565b8015610e035780601f10610dd857610100808354040283529160200191610e03565b820191906000526020600020905b815481529060010190602001808311610de657829003601f168201915b50505050508152602001600982018054610e1c9061281c565b80601f0160208091040260200160405190810160405280929190818152602001828054610e489061281c565b8015610e955780601f10610e6a57610100808354040283529160200191610e95565b820191906000526020600020905b815481529060010190602001808311610e7857829003601f168201915b50505050508152602001600a82018054610eae9061281c565b80601f0160208091040260200160405190810160405280929190818152602001828054610eda9061281c565b8015610f275780601f10610efc57610100808354040283529160200191610f27565b820191906000526020600020905b815481529060010190602001808311610f0a57829003601f168201915b5050509183525050600b919091015460ff1615156020909101528451859087908110610f6357634e487b7160e01b600052603260045260246000fd5b6020908102919091010152610f796001866127ad565b945050505b80610f8881612857565b915050610a8d565b50949350505050565b60606000610fa660075490565b905060008060005b838110156110095733600b6000610fc68460016127ad565b81526020810191909152604001600020600201546001600160a01b03161415610ff757610ff46001846127ad565b92505b8061100181612857565b915050610fae565b506000826001600160401b0381111561103257634e487b7160e01b600052604160045260246000fd5b60405190808252806020026020018201604052801561106b57816020015b61105861200e565b8152602001906001900390816110505790505b50905060005b84811015610f905733600b60006110898460016127ad565b81526020810191909152604001600020600201546001600160a01b031614156115625760006110b98260016127ad565b6000818152600b60209081526040918290208251610180810184528154815260018201546001600160a01b0390811693820193909352600282015490921692820192909252600382015460608201526004820180549394509192909183916080840191906111269061281c565b80601f01602080910402602001604051908101604052809291908181526020018280546111529061281c565b801561119f5780601f106111745761010080835404028352916020019161119f565b820191906000526020600020905b81548152906001019060200180831161118257829003601f168201915b505050505081526020016005820180546111b89061281c565b80601f01602080910402602001604051908101604052809291908181526020018280546111e49061281c565b80156112315780601f1061120657610100808354040283529160200191611231565b820191906000526020600020905b81548152906001019060200180831161121457829003601f168201915b5050505050815260200160068201805461124a9061281c565b80601f01602080910402602001604051908101604052809291908181526020018280546112769061281c565b80156112c35780601f10611298576101008083540402835291602001916112c3565b820191906000526020600020905b8154815290600101906020018083116112a657829003601f168201915b505050505081526020016007820180546112dc9061281c565b80601f01602080910402602001604051908101604052809291908181526020018280546113089061281c565b80156113555780601f1061132a57610100808354040283529160200191611355565b820191906000526020600020905b81548152906001019060200180831161133857829003601f168201915b5050505050815260200160088201805461136e9061281c565b80601f016020809104026020016040519081016040528092919081815260200182805461139a9061281c565b80156113e75780601f106113bc576101008083540402835291602001916113e7565b820191906000526020600020905b8154815290600101906020018083116113ca57829003601f168201915b505050505081526020016009820180546114009061281c565b80601f016020809104026020016040519081016040528092919081815260200182805461142c9061281c565b80156114795780601f1061144e57610100808354040283529160200191611479565b820191906000526020600020905b81548152906001019060200180831161145c57829003601f168201915b50505050508152602001600a820180546114929061281c565b80601f01602080910402602001604051908101604052809291908181526020018280546114be9061281c565b801561150b5780601f106114e05761010080835404028352916020019161150b565b820191906000526020600020905b8154815290600101906020018083116114ee57829003601f168201915b5050509183525050600b919091015460ff161515602090910152845185908790811061154757634e487b7160e01b600052603260045260246000fd5b602090810291909101015261155d6001866127ad565b945050505b8061156c81612857565b915050611071565b6001600160a01b03918216600090815260056020908152604080832093909416825291909152205460ff1690565b6115ab81611dcb565b6115c75760405162461bcd60e51b81526004016104be9061272d565b50565b600081815260046020526040902080546001600160a01b0319166001600160a01b03841690811790915581906115ff8261076b565b6001600160a01b03167f8c5be1e5ebec7d5bd14f71427d1e84f3dd0314c0f7b2291e5b200ac8c7c3b92560405160405180910390a45050565b826001600160a01b031661164b8261076b565b6001600160a01b0316146116af5760405162461bcd60e51b815260206004820152602560248201527f4552433732313a207472616e736665722066726f6d20696e636f72726563742060448201526437bbb732b960d91b60648201526084016104be565b6001600160a01b0382166117115760405162461bcd60e51b8152602060048201526024808201527f4552433732313a207472616e7366657220746f20746865207a65726f206164646044820152637265737360e01b60648201526084016104be565b61171c6000826115ca565b6001600160a01b03831660009081526003602052604081208054600192906117459084906127d9565b90915550506001600160a01b03821660009081526003602052604081208054600192906117739084906127ad565b909155505060008181526002602052604080822080546001600160a01b0319166001600160a01b0386811691821790925591518493918716916000805160206128df83398151915291a4505050565b6000806117ce8361076b565b9050806001600160a01b0316846001600160a01b031614806117f557506117f58185611574565b806109f45750836001600160a01b031661180e84610422565b6001600160a01b031614949350505050565b6001600160a01b0382166118765760405162461bcd60e51b815260206004820181905260248201527f4552433732313a206d696e7420746f20746865207a65726f206164647265737360448201526064016104be565b61187f81611dcb565b156118cb5760405162461bcd60e51b815260206004820152601c60248201527b115490cdcc8c4e881d1bdad95b88185b1c9958591e481b5a5b9d195960221b60448201526064016104be565b6001600160a01b03821660009081526003602052604081208054600192906118f49084906127ad565b909155505060008181526002602052604080822080546001600160a01b0319166001600160a01b03861690811790915590518392906000805160206128df833981519152908290a45050565b61194982611dcb565b6119ac5760405162461bcd60e51b815260206004820152602e60248201527f45524337323155524953746f726167653a2055524920736574206f66206e6f6e60448201526d32bc34b9ba32b73a103a37b5b2b760911b60648201526084016104be565b6000828152600660209081526040909120825161055f92840190612083565b60008811611a1a5760405162461bcd60e51b815260206004820152601c60248201527b5072696365206d757374206265206174206c6561737420312077656960201b60448201526064016104be565b6009543414611a775760405162461bcd60e51b8152602060048201526024808201527f5072696365206d75737420626520657175616c20746f206c697374696e6720706044820152637269636560e01b60648201526084016104be565b6040518061018001604052808a8152602001336001600160a01b03168152602001306001600160a01b0316815260200189815260200188815260200187815260200186815260200185815260200184815260200183815260200182815260200160001515815250600b60008b81526020019081526020016000206000820151816000015560208201518160010160006101000a8154816001600160a01b0302191690836001600160a01b0316021790555060408201518160020160006101000a8154816001600160a01b0302191690836001600160a01b03160217905550606082015181600301556080820151816004019080519060200190611b7b929190612083565b5060a08201518051611b97916005840191602090910190612083565b5060c08201518051611bb3916006840191602090910190612083565b5060e08201518051611bcf916007840191602090910190612083565b506101008201518051611bec916008840191602090910190612083565b506101208201518051611c09916009840191602090910190612083565b506101408201518051611c2691600a840191602090910190612083565b506101609190910151600b909101805460ff1916911515919091179055611c4e33308b611638565b505050505050505050565b816001600160a01b0316836001600160a01b03161415611cb75760405162461bcd60e51b815260206004820152601960248201527822a9219b99189d1030b8383937bb32903a379031b0b63632b960391b60448201526064016104be565b6001600160a01b03838116600081815260056020908152604080832094871680845294825291829020805460ff191686151590811790915591519182527f17307eab39ab6107e8899845ad3d59bd9653f200f220920489ca2b5937696c31910160405180910390a3505050565b611d2f848484611638565b611d3b84848484611de8565b6106c95760405162461bcd60e51b81526004016104be906126db565b6060611d62826115a2565b6000611d7960408051602081019091526000815290565b90506000815111611d995760405180602001604052806000815250611dc4565b80611da384611ef5565b604051602001611db49291906124f7565b6040516020818303038152906040525b9392505050565b6000908152600260205260409020546001600160a01b0316151590565b60006001600160a01b0384163b15611eea57604051630a85bd0160e11b81526001600160a01b0385169063150b7a0290611e2c903390899088908890600401612526565b602060405180830381600087803b158015611e4657600080fd5b505af1925050508015611e76575060408051601f3d908101601f19168201909252611e739181019061234a565b60015b611ed0573d808015611ea4576040519150601f19603f3d011682016040523d82523d6000602084013e611ea9565b606091505b508051611ec85760405162461bcd60e51b81526004016104be906126db565b805181602001fd5b6001600160e01b031916630a85bd0160e11b1490506109f4565b506001949350505050565b606081611f195750506040805180820190915260018152600360fc1b602082015290565b8160005b8115611f435780611f2d81612857565b9150611f3c9050600a836127c5565b9150611f1d565b6000816001600160401b03811115611f6b57634e487b7160e01b600052604160045260246000fd5b6040519080825280601f01601f191660200182016040528015611f95576020820181803683370190505b5090505b84156109f457611faa6001836127d9565b9150611fb7600a86612872565b611fc29060306127ad565b60f81b818381518110611fe557634e487b7160e01b600052603260045260246000fd5b60200101906001600160f81b031916908160001a905350612007600a866127c5565b9450611f99565b6040518061018001604052806000815260200160006001600160a01b0316815260200160006001600160a01b0316815260200160008152602001606081526020016060815260200160608152602001606081526020016060815260200160608152602001606081526020016000151581525090565b82805461208f9061281c565b90600052602060002090601f0160209004810192826120b157600085556120f7565b82601f106120ca57805160ff19168380011785556120f7565b828001600101855582156120f7579182015b828111156120f75782518255916020019190600101906120dc565b50612103929150612107565b5090565b5b808211156121035760008155600101612108565b60006001600160401b0380841115612136576121366128b2565b604051601f8501601f19908116603f0116810190828211818310171561215e5761215e6128b2565b8160405280935085815286868601111561217757600080fd5b858560208301376000602087830101525050509392505050565b80356001600160a01b03811681146121a857600080fd5b919050565b600082601f8301126121bd578081fd5b611dc48383356020850161211c565b6000602082840312156121dd578081fd5b611dc482612191565b600080604083850312156121f8578081fd5b61220183612191565b915061220f60208401612191565b90509250929050565b60008060006060848603121561222c578081fd5b61223584612191565b925061224360208501612191565b9150604084013590509250925092565b60008060008060808587031215612268578081fd5b61227185612191565b935061227f60208601612191565b92506040850135915060608501356001600160401b038111156122a0578182fd5b8501601f810187136122b0578182fd5b6122bf8782356020840161211c565b91505092959194509250565b600080604083850312156122dd578182fd5b6122e683612191565b9150602083013580151581146122fa578182fd5b809150509250929050565b60008060408385031215612317578182fd5b61232083612191565b946020939093013593505050565b60006020828403121561233f578081fd5b8135611dc4816128c8565b60006020828403121561235b578081fd5b8151611dc4816128c8565b60008060008060008060008060006101208a8c031215612384578485fd5b89356001600160401b038082111561239a578687fd5b6123a68d838e016121ad565b9a5060208c0135995060408c01359150808211156123c2578687fd5b6123ce8d838e016121ad565b985060608c01359150808211156123e3578687fd5b6123ef8d838e016121ad565b975060808c0135915080821115612404578687fd5b6124108d838e016121ad565b965060a08c0135915080821115612425578586fd5b6124318d838e016121ad565b955060c08c0135915080821115612446578485fd5b6124528d838e016121ad565b945060e08c0135915080821115612467578384fd5b6124738d838e016121ad565b93506101008c0135915080821115612489578283fd5b506124968c828d016121ad565b9150509295985092959850929598565b6000602082840312156124b7578081fd5b5035919050565b6001600160a01b03169052565b600081518084526124e38160208601602086016127f0565b601f01601f19169290920160200192915050565b600083516125098184602088016127f0565b83519083019061251d8183602088016127f0565b01949350505050565b6001600160a01b0385811682528416602082015260408101839052608060608201819052600090612559908301846124cb565b9695505050505050565b60006020808301818452808551808352604092508286019150828160051b870101848801865b838110156126ba57603f19898403018552815161018081518552888201516125b38a8701826124be565b50878201516125c4898701826124be565b50606080830151818701525060808083015182828801526125e7838801826124cb565b9250505060a0808301518683038288015261260283826124cb565b9250505060c0808301518683038288015261261d83826124cb565b9250505060e0808301518683038288015261263883826124cb565b92505050610100808301518683038288015261265483826124cb565b92505050610120808301518683038288015261267083826124cb565b92505050610140808301518683038288015261268c83826124cb565b925050506101608083015192506126a68187018415159052565b509588019593505090860190600101612589565b509098975050505050505050565b602081526000611dc460208301846124cb565b60208082526032908201527f4552433732313a207472616e7366657220746f206e6f6e20455243373231526560408201527131b2b4bb32b91034b6b83632b6b2b73a32b960711b606082015260800190565b602080825260189082015277115490cdcc8c4e881a5b9d985b1a59081d1bdad95b88125160421b604082015260600190565b6020808252602e908201527f4552433732313a2063616c6c6572206973206e6f7420746f6b656e206f776e6560408201526d1c881b9bdc88185c1c1c9bdd995960921b606082015260800190565b600082198211156127c0576127c0612886565b500190565b6000826127d4576127d461289c565b500490565b6000828210156127eb576127eb612886565b500390565b60005b8381101561280b5781810151838201526020016127f3565b838111156106c95750506000910152565b600181811c9082168061283057607f821691505b6020821081141561285157634e487b7160e01b600052602260045260246000fd5b50919050565b600060001982141561286b5761286b612886565b5060010190565b6000826128815761288161289c565b500690565b634e487b7160e01b600052601160045260246000fd5b634e487b7160e01b600052601260045260246000fd5b634e487b7160e01b600052604160045260246000fd5b6001600160e01b0319811681146115c757600080fdfeddf252ad1be2c89b69c2b068fc378daa952ba7f163c4a11628f55a4df523b3efa26469706673582212206268be823395b5ed072231f30354d149761cd31dbc1c1dbf3a1c5f753efc2f0f64736f6c63430008040033",
  "linkReferences": {},
  "deployedLinkReferences": {}
}