{
  "_format": "hh-sol-artifact-1",
  "contractName": "Mover",
  "sourceName": "contracts/Mover.sol",
  "abi": [
    {
      "inputs": [
        {
          "components": [
            {
              "internalType": "uint256",
              "name": "id",
              "type": "uint256"
            },
            {
              "internalType": "string",
              "name": "propertynumber",
              "type": "string"
            },
            {
              "internalType": "string",
              "name": "ownername",
              "type": "string"
            },
            {
              "components": [
                {
                  "internalType": "string",
                  "name": "propertylocation",
                  "type": "string"
                },
                {
                  "internalType": "string",
                  "name": "propertydescription",
                  "type": "string"
                },
                {
                  "internalType": "string",
                  "name": "propertyspace",
                  "type": "string"
                },
                {
                  "internalType": "string",
                  "name": "propertyparkingspace",
                  "type": "string"
                },
                {
                  "internalType": "string",
                  "name": "propertybathroom",
                  "type": "string"
                },
                {
                  "internalType": "string",
                  "name": "propertybedroom",
                  "type": "string"
                },
                {
                  "internalType": "uint256",
                  "name": "propertyprice",
                  "type": "uint256"
                },
                {
                  "internalType": "string",
                  "name": "propertycategory",
                  "type": "string"
                },
                {
                  "internalType": "string",
                  "name": "propertytype",
                  "type": "string"
                },
                {
                  "internalType": "string",
                  "name": "propertyduration",
                  "type": "string"
                },
                {
                  "internalType": "string",
                  "name": "hash",
                  "type": "string"
                },
                {
                  "internalType": "string",
                  "name": "supportimage1",
                  "type": "string"
                },
                {
                  "internalType": "string",
                  "name": "supportimage2",
                  "type": "string"
                },
                {
                  "internalType": "string",
                  "name": "document",
                  "type": "string"
                },
                {
                  "internalType": "address",
                  "name": "propertyOwner",
                  "type": "address"
                },
                {
                  "internalType": "address",
                  "name": "propertyBuyer",
                  "type": "address"
                }
              ],
              "internalType": "struct Mover.Nested",
              "name": "nested",
              "type": "tuple"
            }
          ],
          "internalType": "struct Mover.PropertyOwner",
          "name": "property_",
          "type": "tuple"
        }
      ],
      "name": "addProperty",
      "outputs": [],
      "stateMutability": "payable",
      "type": "function"
    },
    {
      "inputs": [],
      "name": "fetchMyProperties",
      "outputs": [
        {
          "components": [
            {
              "internalType": "uint256",
              "name": "id",
              "type": "uint256"
            },
            {
              "internalType": "string",
              "name": "propertynumber",
              "type": "string"
            },
            {
              "internalType": "string",
              "name": "ownername",
              "type": "string"
            },
            {
              "components": [
                {
                  "internalType": "string",
                  "name": "propertylocation",
                  "type": "string"
                },
                {
                  "internalType": "string",
                  "name": "propertydescription",
                  "type": "string"
                },
                {
                  "internalType": "string",
                  "name": "propertyspace",
                  "type": "string"
                },
                {
                  "internalType": "string",
                  "name": "propertyparkingspace",
                  "type": "string"
                },
                {
                  "internalType": "string",
                  "name": "propertybathroom",
                  "type": "string"
                },
                {
                  "internalType": "string",
                  "name": "propertybedroom",
                  "type": "string"
                },
                {
                  "internalType": "uint256",
                  "name": "propertyprice",
                  "type": "uint256"
                },
                {
                  "internalType": "string",
                  "name": "propertycategory",
                  "type": "string"
                },
                {
                  "internalType": "string",
                  "name": "propertytype",
                  "type": "string"
                },
                {
                  "internalType": "string",
                  "name": "propertyduration",
                  "type": "string"
                },
                {
                  "internalType": "string",
                  "name": "hash",
                  "type": "string"
                },
                {
                  "internalType": "string",
                  "name": "supportimage1",
                  "type": "string"
                },
                {
                  "internalType": "string",
                  "name": "supportimage2",
                  "type": "string"
                },
                {
                  "internalType": "string",
                  "name": "document",
                  "type": "string"
                },
                {
                  "internalType": "address",
                  "name": "propertyOwner",
                  "type": "address"
                },
                {
                  "internalType": "address",
                  "name": "propertyBuyer",
                  "type": "address"
                }
              ],
              "internalType": "struct Mover.Nested",
              "name": "nested",
              "type": "tuple"
            }
          ],
          "internalType": "struct Mover.PropertyOwner[]",
          "name": "",
          "type": "tuple[]"
        }
      ],
      "stateMutability": "view",
      "type": "function"
    },
    {
      "inputs": [],
      "name": "fetchPropertyOwner",
      "outputs": [
        {
          "components": [
            {
              "internalType": "uint256",
              "name": "id",
              "type": "uint256"
            },
            {
              "internalType": "string",
              "name": "propertynumber",
              "type": "string"
            },
            {
              "internalType": "string",
              "name": "ownername",
              "type": "string"
            },
            {
              "components": [
                {
                  "internalType": "string",
                  "name": "propertylocation",
                  "type": "string"
                },
                {
                  "internalType": "string",
                  "name": "propertydescription",
                  "type": "string"
                },
                {
                  "internalType": "string",
                  "name": "propertyspace",
                  "type": "string"
                },
                {
                  "internalType": "string",
                  "name": "propertyparkingspace",
                  "type": "string"
                },
                {
                  "internalType": "string",
                  "name": "propertybathroom",
                  "type": "string"
                },
                {
                  "internalType": "string",
                  "name": "propertybedroom",
                  "type": "string"
                },
                {
                  "internalType": "uint256",
                  "name": "propertyprice",
                  "type": "uint256"
                },
                {
                  "internalType": "string",
                  "name": "propertycategory",
                  "type": "string"
                },
                {
                  "internalType": "string",
                  "name": "propertytype",
                  "type": "string"
                },
                {
                  "internalType": "string",
                  "name": "propertyduration",
                  "type": "string"
                },
                {
                  "internalType": "string",
                  "name": "hash",
                  "type": "string"
                },
                {
                  "internalType": "string",
                  "name": "supportimage1",
                  "type": "string"
                },
                {
                  "internalType": "string",
                  "name": "supportimage2",
                  "type": "string"
                },
                {
                  "internalType": "string",
                  "name": "document",
                  "type": "string"
                },
                {
                  "internalType": "address",
                  "name": "propertyOwner",
                  "type": "address"
                },
                {
                  "internalType": "address",
                  "name": "propertyBuyer",
                  "type": "address"
                }
              ],
              "internalType": "struct Mover.Nested",
              "name": "nested",
              "type": "tuple"
            }
          ],
          "internalType": "struct Mover.PropertyOwner[]",
          "name": "",
          "type": "tuple[]"
        }
      ],
      "stateMutability": "view",
      "type": "function"
    },
    {
      "inputs": [],
      "name": "fetchUnsoldProperties",
      "outputs": [
        {
          "components": [
            {
              "internalType": "uint256",
              "name": "id",
              "type": "uint256"
            },
            {
              "internalType": "string",
              "name": "propertynumber",
              "type": "string"
            },
            {
              "internalType": "string",
              "name": "ownername",
              "type": "string"
            },
            {
              "components": [
                {
                  "internalType": "string",
                  "name": "propertylocation",
                  "type": "string"
                },
                {
                  "internalType": "string",
                  "name": "propertydescription",
                  "type": "string"
                },
                {
                  "internalType": "string",
                  "name": "propertyspace",
                  "type": "string"
                },
                {
                  "internalType": "string",
                  "name": "propertyparkingspace",
                  "type": "string"
                },
                {
                  "internalType": "string",
                  "name": "propertybathroom",
                  "type": "string"
                },
                {
                  "internalType": "string",
                  "name": "propertybedroom",
                  "type": "string"
                },
                {
                  "internalType": "uint256",
                  "name": "propertyprice",
                  "type": "uint256"
                },
                {
                  "internalType": "string",
                  "name": "propertycategory",
                  "type": "string"
                },
                {
                  "internalType": "string",
                  "name": "propertytype",
                  "type": "string"
                },
                {
                  "internalType": "string",
                  "name": "propertyduration",
                  "type": "string"
                },
                {
                  "internalType": "string",
                  "name": "hash",
                  "type": "string"
                },
                {
                  "internalType": "string",
                  "name": "supportimage1",
                  "type": "string"
                },
                {
                  "internalType": "string",
                  "name": "supportimage2",
                  "type": "string"
                },
                {
                  "internalType": "string",
                  "name": "document",
                  "type": "string"
                },
                {
                  "internalType": "address",
                  "name": "propertyOwner",
                  "type": "address"
                },
                {
                  "internalType": "address",
                  "name": "propertyBuyer",
                  "type": "address"
                }
              ],
              "internalType": "struct Mover.Nested",
              "name": "nested",
              "type": "tuple"
            }
          ],
          "internalType": "struct Mover.PropertyOwner[]",
          "name": "",
          "type": "tuple[]"
        }
      ],
      "stateMutability": "view",
      "type": "function"
    },
    {
      "inputs": [
        {
          "internalType": "uint256",
          "name": "",
          "type": "uint256"
        }
      ],
      "name": "idPropertyOwner",
      "outputs": [
        {
          "internalType": "uint256",
          "name": "id",
          "type": "uint256"
        },
        {
          "internalType": "string",
          "name": "propertynumber",
          "type": "string"
        },
        {
          "internalType": "string",
          "name": "ownername",
          "type": "string"
        },
        {
          "components": [
            {
              "internalType": "string",
              "name": "propertylocation",
              "type": "string"
            },
            {
              "internalType": "string",
              "name": "propertydescription",
              "type": "string"
            },
            {
              "internalType": "string",
              "name": "propertyspace",
              "type": "string"
            },
            {
              "internalType": "string",
              "name": "propertyparkingspace",
              "type": "string"
            },
            {
              "internalType": "string",
              "name": "propertybathroom",
              "type": "string"
            },
            {
              "internalType": "string",
              "name": "propertybedroom",
              "type": "string"
            },
            {
              "internalType": "uint256",
              "name": "propertyprice",
              "type": "uint256"
            },
            {
              "internalType": "string",
              "name": "propertycategory",
              "type": "string"
            },
            {
              "internalType": "string",
              "name": "propertytype",
              "type": "string"
            },
            {
              "internalType": "string",
              "name": "propertyduration",
              "type": "string"
            },
            {
              "internalType": "string",
              "name": "hash",
              "type": "string"
            },
            {
              "internalType": "string",
              "name": "supportimage1",
              "type": "string"
            },
            {
              "internalType": "string",
              "name": "supportimage2",
              "type": "string"
            },
            {
              "internalType": "string",
              "name": "document",
              "type": "string"
            },
            {
              "internalType": "address",
              "name": "propertyOwner",
              "type": "address"
            },
            {
              "internalType": "address",
              "name": "propertyBuyer",
              "type": "address"
            }
          ],
          "internalType": "struct Mover.Nested",
          "name": "nested",
          "type": "tuple"
        }
      ],
      "stateMutability": "view",
      "type": "function"
    },
    {
      "inputs": [],
      "name": "propertyCount",
      "outputs": [
        {
          "internalType": "uint256",
          "name": "",
          "type": "uint256"
        }
      ],
      "stateMutability": "view",
      "type": "function"
    },
    {
      "inputs": [],
      "name": "propertySold",
      "outputs": [
        {
          "internalType": "uint256",
          "name": "",
          "type": "uint256"
        }
      ],
      "stateMutability": "view",
      "type": "function"
    },
    {
      "inputs": [
        {
          "internalType": "uint256",
          "name": "id",
          "type": "uint256"
        },
        {
          "internalType": "uint256",
          "name": "propertyprice",
          "type": "uint256"
        }
      ],
      "name": "transferProperty",
      "outputs": [],
      "stateMutability": "payable",
      "type": "function"
    }
  ],
  "bytecode": "0x60806040526000600155600060025534801561001a57600080fd5b5061394c8061002a6000396000f3fe60806040526004361061006b5760003560e01c80630ffcf956146100705780634ac93c00146100855780639a7704c714610098578063c361a335146100d1578063d15b4f13146100f5578063e3992ef414610117578063e409f7e81461012c578063e7509f3014610141575b600080fd5b61008361007e366004613513565b610157565b005b610083610093366004613443565b6104c8565b3480156100a457600080fd5b506100b86100b33660046134fb565b61087d565b6040516100c894939291906137d0565b60405180910390f35b3480156100dd57600080fd5b506100e760015481565b6040519081526020016100c8565b34801561010157600080fd5b5061010a611158565b6040516100c89190613725565b34801561012357600080fd5b5061010a611b6e565b34801561013857600080fd5b5061010a61253e565b34801561014d57600080fd5b506100e760025481565b600082815260208190526040902060128101546002820180546001600160a01b039092169291819061018890613894565b610193929190612f97565b50600084815260208190526040902060019081018054918301916101b690613894565b6101c1929190612f97565b50600084815260208190526040902060039081018054918301916101e490613894565b6101ef929190612f97565b506000848152602081905260409020600490810180549183019161021290613894565b61021d929190612f97565b506000848152602081905260409020600590810180549183019161024090613894565b61024b929190612f97565b506000848152602081905260409020600690810180549183019161026e90613894565b610279929190612f97565b506000848152602081905260409020600790810180549183019161029c90613894565b6102a7929190612f97565b50600084815260208190526040902060089081018054918301916102ca90613894565b6102d5929190612f97565b50600084815260208190526040902060098082015490830155600a90810180549183019161030290613894565b61030d929190612f97565b506000848152602081905260409020600b90810180549183019161033090613894565b61033b929190612f97565b506000848152602081905260409020600c90810180549183019161035e90613894565b610369929190612f97565b506000848152602081905260409020600d90810180549183019161038c90613894565b610397929190612f97565b506000848152602081905260409020600e9081018054918301916103ba90613894565b6103c5929190612f97565b506000848152602081905260409020600f9081018054918301916103e890613894565b6103f3929190612f97565b506000848152602081905260409020601090810180549183019161041690613894565b610421929190612f97565b50600084815260208190526040808220601181018054336001600160a01b03199182161790915560129091018054909116905560035490516001600160a01b03909116916108fc861502918691818181858888f1935050505015801561048b573d6000803e3d6000fd5b506040516001600160a01b038316903480156108fc02916000818181858888f193505050501580156104c1573d6000803e3d6000fd5b5050505050565b60008160400151511161051b5760405162461bcd60e51b815260206004820152601660248201527513dddb995c881b985b59481a5cc81c995c5d5a5c995960521b60448201526064015b60405180910390fd5b600081606001516101400151511161056e5760405162461bcd60e51b8152602060048201526016602482015275125b5859d94812185cda081a5cc81c995c5d5a5c995960521b6044820152606401610512565b60008160600151610160015151116105c55760405162461bcd60e51b815260206004820152601a60248201527914dd5c1c1bdc9d081a5b5859d94c481a5cc81c995c5d5a5c995960321b6044820152606401610512565b600081606001516101800151511161061c5760405162461bcd60e51b815260206004820152601a60248201527914dd5c1c1bdc9d081a5b5859d94c881a5cc81c995c5d5a5c995960321b6044820152606401610512565b600081606001516101a00151511161066d5760405162461bcd60e51b8152602060048201526014602482015273111bd8dd5b595b9d081a5cc81c995c5d5a5c995960621b6044820152606401610512565b6001805490600061067d836138cf565b90915550506001805460008181526020818152604090912091825583810151805192936106b293908501929190910190613022565b50604082015180516106ce916002840191602090910190613022565b5060608201515180516106eb916003840191602090910190613022565b50606082015160209081015180516107099260048501920190613022565b506060820151604001518051610729916005840191602090910190613022565b5060608083015101518051610748916006840191602090910190613022565b506060820151608001518051610768916007840191602090910190613022565b50606082015160a001518051610788916008840191602090910190613022565b50606082015160c0810151600983015560e0015180516107b291600a840191602090910190613022565b506060820151610100015180516107d391600b840191602090910190613022565b506060820151610120015180516107f491600c840191602090910190613022565b5060608201516101400151805161081591600d840191602090910190613022565b5060608201516101600151805161083691600e840191602090910190613022565b5060608201516101800151805161085791600f840191602090910190613022565b5060608201516101a001518051610878916010840191602090910190613022565b505050565b6000602081905290815260409020805460018201805491929161089f90613894565b80601f01602080910402602001604051908101604052809291908181526020018280546108cb90613894565b80156109185780601f106108ed57610100808354040283529160200191610918565b820191906000526020600020905b8154815290600101906020018083116108fb57829003601f168201915b50505050509080600201805461092d90613894565b80601f016020809104026020016040519081016040528092919081815260200182805461095990613894565b80156109a65780601f1061097b576101008083540402835291602001916109a6565b820191906000526020600020905b81548152906001019060200180831161098957829003601f168201915b50505050509080600301604051806102000160405290816000820180546109cc90613894565b80601f01602080910402602001604051908101604052809291908181526020018280546109f890613894565b8015610a455780601f10610a1a57610100808354040283529160200191610a45565b820191906000526020600020905b815481529060010190602001808311610a2857829003601f168201915b50505050508152602001600182018054610a5e90613894565b80601f0160208091040260200160405190810160405280929190818152602001828054610a8a90613894565b8015610ad75780601f10610aac57610100808354040283529160200191610ad7565b820191906000526020600020905b815481529060010190602001808311610aba57829003601f168201915b50505050508152602001600282018054610af090613894565b80601f0160208091040260200160405190810160405280929190818152602001828054610b1c90613894565b8015610b695780601f10610b3e57610100808354040283529160200191610b69565b820191906000526020600020905b815481529060010190602001808311610b4c57829003601f168201915b50505050508152602001600382018054610b8290613894565b80601f0160208091040260200160405190810160405280929190818152602001828054610bae90613894565b8015610bfb5780601f10610bd057610100808354040283529160200191610bfb565b820191906000526020600020905b815481529060010190602001808311610bde57829003601f168201915b50505050508152602001600482018054610c1490613894565b80601f0160208091040260200160405190810160405280929190818152602001828054610c4090613894565b8015610c8d5780601f10610c6257610100808354040283529160200191610c8d565b820191906000526020600020905b815481529060010190602001808311610c7057829003601f168201915b50505050508152602001600582018054610ca690613894565b80601f0160208091040260200160405190810160405280929190818152602001828054610cd290613894565b8015610d1f5780601f10610cf457610100808354040283529160200191610d1f565b820191906000526020600020905b815481529060010190602001808311610d0257829003601f168201915b5050505050815260200160068201548152602001600782018054610d4290613894565b80601f0160208091040260200160405190810160405280929190818152602001828054610d6e90613894565b8015610dbb5780601f10610d9057610100808354040283529160200191610dbb565b820191906000526020600020905b815481529060010190602001808311610d9e57829003601f168201915b50505050508152602001600882018054610dd490613894565b80601f0160208091040260200160405190810160405280929190818152602001828054610e0090613894565b8015610e4d5780601f10610e2257610100808354040283529160200191610e4d565b820191906000526020600020905b815481529060010190602001808311610e3057829003601f168201915b50505050508152602001600982018054610e6690613894565b80601f0160208091040260200160405190810160405280929190818152602001828054610e9290613894565b8015610edf5780601f10610eb457610100808354040283529160200191610edf565b820191906000526020600020905b815481529060010190602001808311610ec257829003601f168201915b50505050508152602001600a82018054610ef890613894565b80601f0160208091040260200160405190810160405280929190818152602001828054610f2490613894565b8015610f715780601f10610f4657610100808354040283529160200191610f71565b820191906000526020600020905b815481529060010190602001808311610f5457829003601f168201915b50505050508152602001600b82018054610f8a90613894565b80601f0160208091040260200160405190810160405280929190818152602001828054610fb690613894565b80156110035780601f10610fd857610100808354040283529160200191611003565b820191906000526020600020905b815481529060010190602001808311610fe657829003601f168201915b50505050508152602001600c8201805461101c90613894565b80601f016020809104026020016040519081016040528092919081815260200182805461104890613894565b80156110955780601f1061106a57610100808354040283529160200191611095565b820191906000526020600020905b81548152906001019060200180831161107857829003601f168201915b50505050508152602001600d820180546110ae90613894565b80601f01602080910402602001604051908101604052809291908181526020018280546110da90613894565b80156111275780601f106110fc57610100808354040283529160200191611127565b820191906000526020600020905b81548152906001019060200180831161110a57829003601f168201915b5050509183525050600e8201546001600160a01b039081166020830152600f90920154909116604090910152905084565b6001546002546060919060009061116f908361387d565b9050600080826001600160401b0381111561119a57634e487b7160e01b600052604160045260246000fd5b6040519080825280602002602001820160405280156111d357816020015b6111c0613096565b8152602001906001900390816111b85790505b50905060005b84811015611b6557306000806111f0846001613865565b81526020810191909152604001600020601101546001600160a01b03161415611b53576000611220826001613865565b6000818152602081815260409182902082516080810190935280548352600181018054949550909384928401919061125790613894565b80601f016020809104026020016040519081016040528092919081815260200182805461128390613894565b80156112d05780601f106112a5576101008083540402835291602001916112d0565b820191906000526020600020905b8154815290600101906020018083116112b357829003601f168201915b505050505081526020016002820180546112e990613894565b80601f016020809104026020016040519081016040528092919081815260200182805461131590613894565b80156113625780601f1061133757610100808354040283529160200191611362565b820191906000526020600020905b81548152906001019060200180831161134557829003601f168201915b50505050508152602001600382016040518061020001604052908160008201805461138c90613894565b80601f01602080910402602001604051908101604052809291908181526020018280546113b890613894565b80156114055780601f106113da57610100808354040283529160200191611405565b820191906000526020600020905b8154815290600101906020018083116113e857829003601f168201915b5050505050815260200160018201805461141e90613894565b80601f016020809104026020016040519081016040528092919081815260200182805461144a90613894565b80156114975780601f1061146c57610100808354040283529160200191611497565b820191906000526020600020905b81548152906001019060200180831161147a57829003601f168201915b505050505081526020016002820180546114b090613894565b80601f01602080910402602001604051908101604052809291908181526020018280546114dc90613894565b80156115295780601f106114fe57610100808354040283529160200191611529565b820191906000526020600020905b81548152906001019060200180831161150c57829003601f168201915b5050505050815260200160038201805461154290613894565b80601f016020809104026020016040519081016040528092919081815260200182805461156e90613894565b80156115bb5780601f10611590576101008083540402835291602001916115bb565b820191906000526020600020905b81548152906001019060200180831161159e57829003601f168201915b505050505081526020016004820180546115d490613894565b80601f016020809104026020016040519081016040528092919081815260200182805461160090613894565b801561164d5780601f106116225761010080835404028352916020019161164d565b820191906000526020600020905b81548152906001019060200180831161163057829003601f168201915b5050505050815260200160058201805461166690613894565b80601f016020809104026020016040519081016040528092919081815260200182805461169290613894565b80156116df5780601f106116b4576101008083540402835291602001916116df565b820191906000526020600020905b8154815290600101906020018083116116c257829003601f168201915b505050505081526020016006820154815260200160078201805461170290613894565b80601f016020809104026020016040519081016040528092919081815260200182805461172e90613894565b801561177b5780601f106117505761010080835404028352916020019161177b565b820191906000526020600020905b81548152906001019060200180831161175e57829003601f168201915b5050505050815260200160088201805461179490613894565b80601f01602080910402602001604051908101604052809291908181526020018280546117c090613894565b801561180d5780601f106117e25761010080835404028352916020019161180d565b820191906000526020600020905b8154815290600101906020018083116117f057829003601f168201915b5050505050815260200160098201805461182690613894565b80601f016020809104026020016040519081016040528092919081815260200182805461185290613894565b801561189f5780601f106118745761010080835404028352916020019161189f565b820191906000526020600020905b81548152906001019060200180831161188257829003601f168201915b50505050508152602001600a820180546118b890613894565b80601f01602080910402602001604051908101604052809291908181526020018280546118e490613894565b80156119315780601f1061190657610100808354040283529160200191611931565b820191906000526020600020905b81548152906001019060200180831161191457829003601f168201915b50505050508152602001600b8201805461194a90613894565b80601f016020809104026020016040519081016040528092919081815260200182805461197690613894565b80156119c35780601f10611998576101008083540402835291602001916119c3565b820191906000526020600020905b8154815290600101906020018083116119a657829003601f168201915b50505050508152602001600c820180546119dc90613894565b80601f0160208091040260200160405190810160405280929190818152602001828054611a0890613894565b8015611a555780601f10611a2a57610100808354040283529160200191611a55565b820191906000526020600020905b815481529060010190602001808311611a3857829003601f168201915b50505050508152602001600d82018054611a6e90613894565b80601f0160208091040260200160405190810160405280929190818152602001828054611a9a90613894565b8015611ae75780601f10611abc57610100808354040283529160200191611ae7565b820191906000526020600020905b815481529060010190602001808311611aca57829003601f168201915b5050509183525050600e8201546001600160a01b039081166020830152600f909201549091166040909101529052508451859087908110611b3857634e487b7160e01b600052603260045260246000fd5b6020908102919091010152611b4e600186613865565b945050505b80611b5d816138cf565b9150506111d9565b50949350505050565b600154606090600080826001600160401b03811115611b9d57634e487b7160e01b600052604160045260246000fd5b604051908082528060200260200182016040528015611bd657816020015b611bc3613096565b815260200190600190039081611bbb5790505b50905060005b83811015612536576000611bf1826001613865565b60008181526020818152604091829020825160808101909352805483526001810180549495509093849284019190611c2890613894565b80601f0160208091040260200160405190810160405280929190818152602001828054611c5490613894565b8015611ca15780601f10611c7657610100808354040283529160200191611ca1565b820191906000526020600020905b815481529060010190602001808311611c8457829003601f168201915b50505050508152602001600282018054611cba90613894565b80601f0160208091040260200160405190810160405280929190818152602001828054611ce690613894565b8015611d335780601f10611d0857610100808354040283529160200191611d33565b820191906000526020600020905b815481529060010190602001808311611d1657829003601f168201915b505050505081526020016003820160405180610200016040529081600082018054611d5d90613894565b80601f0160208091040260200160405190810160405280929190818152602001828054611d8990613894565b8015611dd65780601f10611dab57610100808354040283529160200191611dd6565b820191906000526020600020905b815481529060010190602001808311611db957829003601f168201915b50505050508152602001600182018054611def90613894565b80601f0160208091040260200160405190810160405280929190818152602001828054611e1b90613894565b8015611e685780601f10611e3d57610100808354040283529160200191611e68565b820191906000526020600020905b815481529060010190602001808311611e4b57829003601f168201915b50505050508152602001600282018054611e8190613894565b80601f0160208091040260200160405190810160405280929190818152602001828054611ead90613894565b8015611efa5780601f10611ecf57610100808354040283529160200191611efa565b820191906000526020600020905b815481529060010190602001808311611edd57829003601f168201915b50505050508152602001600382018054611f1390613894565b80601f0160208091040260200160405190810160405280929190818152602001828054611f3f90613894565b8015611f8c5780601f10611f6157610100808354040283529160200191611f8c565b820191906000526020600020905b815481529060010190602001808311611f6f57829003601f168201915b50505050508152602001600482018054611fa590613894565b80601f0160208091040260200160405190810160405280929190818152602001828054611fd190613894565b801561201e5780601f10611ff35761010080835404028352916020019161201e565b820191906000526020600020905b81548152906001019060200180831161200157829003601f168201915b5050505050815260200160058201805461203790613894565b80601f016020809104026020016040519081016040528092919081815260200182805461206390613894565b80156120b05780601f10612085576101008083540402835291602001916120b0565b820191906000526020600020905b81548152906001019060200180831161209357829003601f168201915b50505050508152602001600682015481526020016007820180546120d390613894565b80601f01602080910402602001604051908101604052809291908181526020018280546120ff90613894565b801561214c5780601f106121215761010080835404028352916020019161214c565b820191906000526020600020905b81548152906001019060200180831161212f57829003601f168201915b5050505050815260200160088201805461216590613894565b80601f016020809104026020016040519081016040528092919081815260200182805461219190613894565b80156121de5780601f106121b3576101008083540402835291602001916121de565b820191906000526020600020905b8154815290600101906020018083116121c157829003601f168201915b505050505081526020016009820180546121f790613894565b80601f016020809104026020016040519081016040528092919081815260200182805461222390613894565b80156122705780601f1061224557610100808354040283529160200191612270565b820191906000526020600020905b81548152906001019060200180831161225357829003601f168201915b50505050508152602001600a8201805461228990613894565b80601f01602080910402602001604051908101604052809291908181526020018280546122b590613894565b80156123025780601f106122d757610100808354040283529160200191612302565b820191906000526020600020905b8154815290600101906020018083116122e557829003601f168201915b50505050508152602001600b8201805461231b90613894565b80601f016020809104026020016040519081016040528092919081815260200182805461234790613894565b80156123945780601f1061236957610100808354040283529160200191612394565b820191906000526020600020905b81548152906001019060200180831161237757829003601f168201915b50505050508152602001600c820180546123ad90613894565b80601f01602080910402602001604051908101604052809291908181526020018280546123d990613894565b80156124265780601f106123fb57610100808354040283529160200191612426565b820191906000526020600020905b81548152906001019060200180831161240957829003601f168201915b50505050508152602001600d8201805461243f90613894565b80601f016020809104026020016040519081016040528092919081815260200182805461246b90613894565b80156124b85780601f1061248d576101008083540402835291602001916124b8565b820191906000526020600020905b81548152906001019060200180831161249b57829003601f168201915b5050509183525050600e8201546001600160a01b039081166020830152600f90920154909116604090910152905250845185908790811061250957634e487b7160e01b600052603260045260246000fd5b602090810291909101015261251f600186613865565b94505050808061252e906138cf565b915050611bdc565b509392505050565b600154606090600080805b838110156125a35733600080612560846001613865565b81526020810191909152604001600020601101546001600160a01b031614156125915761258e600184613865565b92505b8061259b816138cf565b915050612549565b506000826001600160401b038111156125cc57634e487b7160e01b600052604160045260246000fd5b60405190808252806020026020018201604052801561260557816020015b6125f2613096565b8152602001906001900390816125ea5790505b50905060005b84811015611b655733600080612622846001613865565b81526020810191909152604001600020601101546001600160a01b03161415612f85576000612652826001613865565b6000818152602081815260409182902082516080810190935280548352600181018054949550909384928401919061268990613894565b80601f01602080910402602001604051908101604052809291908181526020018280546126b590613894565b80156127025780601f106126d757610100808354040283529160200191612702565b820191906000526020600020905b8154815290600101906020018083116126e557829003601f168201915b5050505050815260200160028201805461271b90613894565b80601f016020809104026020016040519081016040528092919081815260200182805461274790613894565b80156127945780601f1061276957610100808354040283529160200191612794565b820191906000526020600020905b81548152906001019060200180831161277757829003601f168201915b5050505050815260200160038201604051806102000160405290816000820180546127be90613894565b80601f01602080910402602001604051908101604052809291908181526020018280546127ea90613894565b80156128375780601f1061280c57610100808354040283529160200191612837565b820191906000526020600020905b81548152906001019060200180831161281a57829003601f168201915b5050505050815260200160018201805461285090613894565b80601f016020809104026020016040519081016040528092919081815260200182805461287c90613894565b80156128c95780601f1061289e576101008083540402835291602001916128c9565b820191906000526020600020905b8154815290600101906020018083116128ac57829003601f168201915b505050505081526020016002820180546128e290613894565b80601f016020809104026020016040519081016040528092919081815260200182805461290e90613894565b801561295b5780601f106129305761010080835404028352916020019161295b565b820191906000526020600020905b81548152906001019060200180831161293e57829003601f168201915b5050505050815260200160038201805461297490613894565b80601f01602080910402602001604051908101604052809291908181526020018280546129a090613894565b80156129ed5780601f106129c2576101008083540402835291602001916129ed565b820191906000526020600020905b8154815290600101906020018083116129d057829003601f168201915b50505050508152602001600482018054612a0690613894565b80601f0160208091040260200160405190810160405280929190818152602001828054612a3290613894565b8015612a7f5780601f10612a5457610100808354040283529160200191612a7f565b820191906000526020600020905b815481529060010190602001808311612a6257829003601f168201915b50505050508152602001600582018054612a9890613894565b80601f0160208091040260200160405190810160405280929190818152602001828054612ac490613894565b8015612b115780601f10612ae657610100808354040283529160200191612b11565b820191906000526020600020905b815481529060010190602001808311612af457829003601f168201915b5050505050815260200160068201548152602001600782018054612b3490613894565b80601f0160208091040260200160405190810160405280929190818152602001828054612b6090613894565b8015612bad5780601f10612b8257610100808354040283529160200191612bad565b820191906000526020600020905b815481529060010190602001808311612b9057829003601f168201915b50505050508152602001600882018054612bc690613894565b80601f0160208091040260200160405190810160405280929190818152602001828054612bf290613894565b8015612c3f5780601f10612c1457610100808354040283529160200191612c3f565b820191906000526020600020905b815481529060010190602001808311612c2257829003601f168201915b50505050508152602001600982018054612c5890613894565b80601f0160208091040260200160405190810160405280929190818152602001828054612c8490613894565b8015612cd15780601f10612ca657610100808354040283529160200191612cd1565b820191906000526020600020905b815481529060010190602001808311612cb457829003601f168201915b50505050508152602001600a82018054612cea90613894565b80601f0160208091040260200160405190810160405280929190818152602001828054612d1690613894565b8015612d635780601f10612d3857610100808354040283529160200191612d63565b820191906000526020600020905b815481529060010190602001808311612d4657829003601f168201915b50505050508152602001600b82018054612d7c90613894565b80601f0160208091040260200160405190810160405280929190818152602001828054612da890613894565b8015612df55780601f10612dca57610100808354040283529160200191612df5565b820191906000526020600020905b815481529060010190602001808311612dd857829003601f168201915b50505050508152602001600c82018054612e0e90613894565b80601f0160208091040260200160405190810160405280929190818152602001828054612e3a90613894565b8015612e875780601f10612e5c57610100808354040283529160200191612e87565b820191906000526020600020905b815481529060010190602001808311612e6a57829003601f168201915b50505050508152602001600d82018054612ea090613894565b80601f0160208091040260200160405190810160405280929190818152602001828054612ecc90613894565b8015612f195780601f10612eee57610100808354040283529160200191612f19565b820191906000526020600020905b815481529060010190602001808311612efc57829003601f168201915b5050509183525050600e8201546001600160a01b039081166020830152600f909201549091166040909101529052508451859087908110612f6a57634e487b7160e01b600052603260045260246000fd5b6020908102919091010152612f80600186613865565b945050505b80612f8f816138cf565b91505061260b565b828054612fa390613894565b90600052602060002090601f016020900481019282612fc55760008555613012565b82601f10612fd65780548555613012565b8280016001018555821561301257600052602060002091601f016020900482015b82811115613012578254825591600101919060010190612ff7565b5061301e92915061314d565b5090565b82805461302e90613894565b90600052602060002090601f0160209004810192826130505760008555613012565b82601f1061306957805160ff1916838001178555613012565b82800160010185558215613012579182015b8281111561301257825182559160200191906001019061307b565b6040518060800160405280600081526020016060815260200160608152602001613148604051806102000160405280606081526020016060815260200160608152602001606081526020016060815260200160608152602001600081526020016060815260200160608152602001606081526020016060815260200160608152602001606081526020016060815260200160006001600160a01b0316815260200160006001600160a01b031681525090565b905290565b5b8082111561301e576000815560010161314e565b80356001600160a01b038116811461317957600080fd5b919050565b600082601f83011261318e578081fd5b81356001600160401b03808211156131a8576131a8613900565b604051601f8301601f19908116603f011681019082821181831017156131d0576131d0613900565b816040528381528660208588010111156131e8578485fd5b8360208701602083013792830160200193909352509392505050565b60006102008284031215613216578081fd5b61321e61381a565b905081356001600160401b038082111561323757600080fd5b6132438583860161317e565b8352602084013591508082111561325957600080fd5b6132658583860161317e565b6020840152604084013591508082111561327e57600080fd5b61328a8583860161317e565b604084015260608401359150808211156132a357600080fd5b6132af8583860161317e565b606084015260808401359150808211156132c857600080fd5b6132d48583860161317e565b608084015260a08401359150808211156132ed57600080fd5b6132f98583860161317e565b60a084015260c084013560c084015260e084013591508082111561331c57600080fd5b6133288583860161317e565b60e08401526101009150818401358181111561334357600080fd5b61334f8682870161317e565b83850152506101209150818401358181111561336a57600080fd5b6133768682870161317e565b83850152506101409150818401358181111561339157600080fd5b61339d8682870161317e565b8385015250610160915081840135818111156133b857600080fd5b6133c48682870161317e565b8385015250610180915081840135818111156133df57600080fd5b6133eb8682870161317e565b83850152506101a09150818401358181111561340657600080fd5b6134128682870161317e565b838501525050506101c0613427818401613162565b908201526101e0613439838201613162565b9082015292915050565b600060208284031215613454578081fd5b81356001600160401b038082111561346a578283fd5b908301906080828603121561347d578283fd5b613485613843565b8235815260208301358281111561349a578485fd5b6134a68782860161317e565b6020830152506040830135828111156134bd578485fd5b6134c98782860161317e565b6040830152506060830135828111156134e0578485fd5b6134ec87828601613204565b60608301525095945050505050565b60006020828403121561350c578081fd5b5035919050565b60008060408385031215613525578081fd5b50508035926020909101359150565b6001600160a01b03169052565b60008151808452815b818110156135665760208185018101518683018201520161354a565b818111156135775782602083870101525b50601f01601f19169290920160200192915050565b600061020082518185526135a282860182613541565b915050602083015184820360208601526135bc8282613541565b915050604083015184820360408601526135d68282613541565b915050606083015184820360608601526135f08282613541565b9150506080830151848203608086015261360a8282613541565b91505060a083015184820360a08601526136248282613541565b91505060c083015160c085015260e083015184820360e08601526136488282613541565b91505061010080840151858303828701526136638382613541565b92505050610120808401518583038287015261367f8382613541565b92505050610140808401518583038287015261369b8382613541565b9250505061016080840151858303828701526136b78382613541565b9250505061018080840151858303828701526136d38382613541565b925050506101a080840151858303828701526136ef8382613541565b925050506101c08084015161370682870182613534565b50506101e08084015161371b82870182613534565b5090949350505050565b60006020808301818452808551808352604092508286019150828160051b870101848801865b838110156137c257603f19898403018552815160808151855288820151818a87015261377982870182613541565b91505087820151858203898701526137918282613541565b915050606080830151925085820381870152506137ae818361358c565b96890196945050509086019060010161374b565b509098975050505050505050565b8481526080602082015260006137e96080830186613541565b82810360408401526137fb8186613541565b9050828103606084015261380f818561358c565b979650505050505050565b60405161020081016001600160401b038111828210171561383d5761383d613900565b60405290565b604051608081016001600160401b038111828210171561383d5761383d613900565b60008219821115613878576138786138ea565b500190565b60008282101561388f5761388f6138ea565b500390565b600181811c908216806138a857607f821691505b602082108114156138c957634e487b7160e01b600052602260045260246000fd5b50919050565b60006000198214156138e3576138e36138ea565b5060010190565b634e487b7160e01b600052601160045260246000fd5b634e487b7160e01b600052604160045260246000fdfea26469706673582212203b9d8522a56ec237e42e8dfa2a245a7d6014dbb22482cca7383bafa3b97203a464736f6c63430008040033",
  "linkReferences": {},
  "deployedLinkReferences": {}
}