{
  "_format": "hh-sol-artifact-1",
  "contractName": "Mover",
  "sourceName": "contracts/Mover.sol",
  "abi": [
    {
      "inputs": [],
      "stateMutability": "nonpayable",
      "type": "constructor"
    },
    {
      "anonymous": false,
      "inputs": [
        {
          "indexed": true,
          "internalType": "address",
          "name": "owner",
          "type": "address"
        },
        {
          "indexed": true,
          "internalType": "address",
          "name": "approved",
          "type": "address"
        },
        {
          "indexed": true,
          "internalType": "uint256",
          "name": "tokenId",
          "type": "uint256"
        }
      ],
      "name": "Approval",
      "type": "event"
    },
    {
      "anonymous": false,
      "inputs": [
        {
          "indexed": true,
          "internalType": "address",
          "name": "owner",
          "type": "address"
        },
        {
          "indexed": true,
          "internalType": "address",
          "name": "operator",
          "type": "address"
        },
        {
          "indexed": false,
          "internalType": "bool",
          "name": "approved",
          "type": "bool"
        }
      ],
      "name": "ApprovalForAll",
      "type": "event"
    },
    {
      "anonymous": false,
      "inputs": [
        {
          "indexed": true,
          "internalType": "uint256",
          "name": "propertyId",
          "type": "uint256"
        },
        {
          "indexed": false,
          "internalType": "address",
          "name": "buyer",
          "type": "address"
        },
        {
          "indexed": false,
          "internalType": "address",
          "name": "owner",
          "type": "address"
        },
        {
          "indexed": false,
          "internalType": "uint256",
          "name": "price",
          "type": "uint256"
        },
        {
          "indexed": false,
          "internalType": "string",
          "name": "propertylocation",
          "type": "string"
        },
        {
          "indexed": false,
          "internalType": "string",
          "name": "propertydescription",
          "type": "string"
        },
        {
          "indexed": false,
          "internalType": "string",
          "name": "propertycategory",
          "type": "string"
        },
        {
          "indexed": false,
          "internalType": "string",
          "name": "propertytype",
          "type": "string"
        },
        {
          "indexed": false,
          "internalType": "string",
          "name": "hash",
          "type": "string"
        },
        {
          "indexed": false,
          "internalType": "string",
          "name": "supportimage1",
          "type": "string"
        },
        {
          "indexed": false,
          "internalType": "string",
          "name": "supportimage2",
          "type": "string"
        },
        {
          "indexed": false,
          "internalType": "bool",
          "name": "sold",
          "type": "bool"
        }
      ],
      "name": "PropertyOwnerCreated",
      "type": "event"
    },
    {
      "anonymous": false,
      "inputs": [
        {
          "indexed": true,
          "internalType": "address",
          "name": "from",
          "type": "address"
        },
        {
          "indexed": true,
          "internalType": "address",
          "name": "to",
          "type": "address"
        },
        {
          "indexed": true,
          "internalType": "uint256",
          "name": "tokenId",
          "type": "uint256"
        }
      ],
      "name": "Transfer",
      "type": "event"
    },
    {
      "inputs": [
        {
          "internalType": "address",
          "name": "to",
          "type": "address"
        },
        {
          "internalType": "uint256",
          "name": "tokenId",
          "type": "uint256"
        }
      ],
      "name": "approve",
      "outputs": [],
      "stateMutability": "nonpayable",
      "type": "function"
    },
    {
      "inputs": [
        {
          "internalType": "address",
          "name": "owner",
          "type": "address"
        }
      ],
      "name": "balanceOf",
      "outputs": [
        {
          "internalType": "uint256",
          "name": "",
          "type": "uint256"
        }
      ],
      "stateMutability": "view",
      "type": "function"
    },
    {
      "inputs": [
        {
          "internalType": "string",
          "name": "tokenURI",
          "type": "string"
        },
        {
          "internalType": "uint256",
          "name": "price",
          "type": "uint256"
        },
        {
          "internalType": "string",
          "name": "_propertylocation",
          "type": "string"
        },
        {
          "internalType": "string",
          "name": "_propertydescription",
          "type": "string"
        },
        {
          "internalType": "string",
          "name": "_propertycategory",
          "type": "string"
        },
        {
          "internalType": "string",
          "name": "_propertytype",
          "type": "string"
        },
        {
          "internalType": "string",
          "name": "_hash",
          "type": "string"
        },
        {
          "internalType": "string",
          "name": "_supportimage1",
          "type": "string"
        },
        {
          "internalType": "string",
          "name": "_supportimage2",
          "type": "string"
        }
      ],
      "name": "createProperty",
      "outputs": [
        {
          "internalType": "uint256",
          "name": "",
          "type": "uint256"
        }
      ],
      "stateMutability": "payable",
      "type": "function"
    },
    {
      "inputs": [
        {
          "internalType": "uint256",
          "name": "propertyId",
          "type": "uint256"
        }
      ],
      "name": "createPropertyTransfer",
      "outputs": [],
      "stateMutability": "payable",
      "type": "function"
    },
    {
      "inputs": [],
      "name": "fetchMyProperties",
      "outputs": [
        {
          "components": [
            {
              "internalType": "uint256",
              "name": "propertyId",
              "type": "uint256"
            },
            {
              "internalType": "address payable",
              "name": "buyer",
              "type": "address"
            },
            {
              "internalType": "address payable",
              "name": "owner",
              "type": "address"
            },
            {
              "internalType": "uint256",
              "name": "price",
              "type": "uint256"
            },
            {
              "internalType": "string",
              "name": "propertylocation",
              "type": "string"
            },
            {
              "internalType": "string",
              "name": "propertydescription",
              "type": "string"
            },
            {
              "internalType": "string",
              "name": "propertycategory",
              "type": "string"
            },
            {
              "internalType": "string",
              "name": "propertytype",
              "type": "string"
            },
            {
              "internalType": "string",
              "name": "hash",
              "type": "string"
            },
            {
              "internalType": "string",
              "name": "supportimage1",
              "type": "string"
            },
            {
              "internalType": "string",
              "name": "supportimage2",
              "type": "string"
            },
            {
              "internalType": "bool",
              "name": "sold",
              "type": "bool"
            }
          ],
          "internalType": "struct Mover.PropertyOwner[]",
          "name": "",
          "type": "tuple[]"
        }
      ],
      "stateMutability": "view",
      "type": "function"
    },
    {
      "inputs": [],
      "name": "fetchUnsoldProperties",
      "outputs": [
        {
          "components": [
            {
              "internalType": "uint256",
              "name": "propertyId",
              "type": "uint256"
            },
            {
              "internalType": "address payable",
              "name": "buyer",
              "type": "address"
            },
            {
              "internalType": "address payable",
              "name": "owner",
              "type": "address"
            },
            {
              "internalType": "uint256",
              "name": "price",
              "type": "uint256"
            },
            {
              "internalType": "string",
              "name": "propertylocation",
              "type": "string"
            },
            {
              "internalType": "string",
              "name": "propertydescription",
              "type": "string"
            },
            {
              "internalType": "string",
              "name": "propertycategory",
              "type": "string"
            },
            {
              "internalType": "string",
              "name": "propertytype",
              "type": "string"
            },
            {
              "internalType": "string",
              "name": "hash",
              "type": "string"
            },
            {
              "internalType": "string",
              "name": "supportimage1",
              "type": "string"
            },
            {
              "internalType": "string",
              "name": "supportimage2",
              "type": "string"
            },
            {
              "internalType": "bool",
              "name": "sold",
              "type": "bool"
            }
          ],
          "internalType": "struct Mover.PropertyOwner[]",
          "name": "",
          "type": "tuple[]"
        }
      ],
      "stateMutability": "view",
      "type": "function"
    },
    {
      "inputs": [
        {
          "internalType": "uint256",
          "name": "tokenId",
          "type": "uint256"
        }
      ],
      "name": "getApproved",
      "outputs": [
        {
          "internalType": "address",
          "name": "",
          "type": "address"
        }
      ],
      "stateMutability": "view",
      "type": "function"
    },
    {
      "inputs": [
        {
          "internalType": "address",
          "name": "owner",
          "type": "address"
        },
        {
          "internalType": "address",
          "name": "operator",
          "type": "address"
        }
      ],
      "name": "isApprovedForAll",
      "outputs": [
        {
          "internalType": "bool",
          "name": "",
          "type": "bool"
        }
      ],
      "stateMutability": "view",
      "type": "function"
    },
    {
      "inputs": [],
      "name": "name",
      "outputs": [
        {
          "internalType": "string",
          "name": "",
          "type": "string"
        }
      ],
      "stateMutability": "view",
      "type": "function"
    },
    {
      "inputs": [
        {
          "internalType": "uint256",
          "name": "tokenId",
          "type": "uint256"
        }
      ],
      "name": "ownerOf",
      "outputs": [
        {
          "internalType": "address",
          "name": "",
          "type": "address"
        }
      ],
      "stateMutability": "view",
      "type": "function"
    },
    {
      "inputs": [
        {
          "internalType": "address",
          "name": "from",
          "type": "address"
        },
        {
          "internalType": "address",
          "name": "to",
          "type": "address"
        },
        {
          "internalType": "uint256",
          "name": "tokenId",
          "type": "uint256"
        }
      ],
      "name": "safeTransferFrom",
      "outputs": [],
      "stateMutability": "nonpayable",
      "type": "function"
    },
    {
      "inputs": [
        {
          "internalType": "address",
          "name": "from",
          "type": "address"
        },
        {
          "internalType": "address",
          "name": "to",
          "type": "address"
        },
        {
          "internalType": "uint256",
          "name": "tokenId",
          "type": "uint256"
        },
        {
          "internalType": "bytes",
          "name": "data",
          "type": "bytes"
        }
      ],
      "name": "safeTransferFrom",
      "outputs": [],
      "stateMutability": "nonpayable",
      "type": "function"
    },
    {
      "inputs": [
        {
          "internalType": "address",
          "name": "operator",
          "type": "address"
        },
        {
          "internalType": "bool",
          "name": "approved",
          "type": "bool"
        }
      ],
      "name": "setApprovalForAll",
      "outputs": [],
      "stateMutability": "nonpayable",
      "type": "function"
    },
    {
      "inputs": [
        {
          "internalType": "bytes4",
          "name": "interfaceId",
          "type": "bytes4"
        }
      ],
      "name": "supportsInterface",
      "outputs": [
        {
          "internalType": "bool",
          "name": "",
          "type": "bool"
        }
      ],
      "stateMutability": "view",
      "type": "function"
    },
    {
      "inputs": [],
      "name": "symbol",
      "outputs": [
        {
          "internalType": "string",
          "name": "",
          "type": "string"
        }
      ],
      "stateMutability": "view",
      "type": "function"
    },
    {
      "inputs": [
        {
          "internalType": "uint256",
          "name": "tokenId",
          "type": "uint256"
        }
      ],
      "name": "tokenURI",
      "outputs": [
        {
          "internalType": "string",
          "name": "",
          "type": "string"
        }
      ],
      "stateMutability": "view",
      "type": "function"
    },
    {
      "inputs": [
        {
          "internalType": "address",
          "name": "from",
          "type": "address"
        },
        {
          "internalType": "address",
          "name": "to",
          "type": "address"
        },
        {
          "internalType": "uint256",
          "name": "tokenId",
          "type": "uint256"
        }
      ],
      "name": "transferFrom",
      "outputs": [],
      "stateMutability": "nonpayable",
      "type": "function"
    }
  ],
  "bytecode": "0x60806040526658d15e176280006009553480156200001c57600080fd5b50604080518082018252601081526f4d657461766572736520546f6b656e7360801b6020808301918252835180850190945260048452631351551560e21b9084015281519192916200007191600091620000a2565b50805162000087906001906020840190620000a2565b5050600a80546001600160a01b031916331790555062000185565b828054620000b09062000148565b90600052602060002090601f016020900481019282620000d457600085556200011f565b82601f10620000ef57805160ff19168380011785556200011f565b828001600101855582156200011f579182015b828111156200011f57825182559160200191906001019062000102565b506200012d92915062000131565b5090565b5b808211156200012d576000815560010162000132565b600181811c908216806200015d57607f821691505b602082108114156200017f57634e487b7160e01b600052602260045260246000fd5b50919050565b61288580620001956000396000f3fe6080604052600436106100ce5760003560e01c806301ffc9a7146100d357806306fdde0314610108578063081812fc1461012a578063095ea7b31461016257806310c28b941461018457806323b872dd1461019757806342842e0e146101b7578063563c4361146101d75780636352211e146101f857806370a082311461021857806395d89b4114610238578063a22cb4651461024d578063b88d4fde1461026d578063c87b56dd1461028d578063d15b4f13146102ad578063e409f7e8146102cf578063e985e9c5146102e4575b600080fd5b3480156100df57600080fd5b506100f36100ee36600461227f565b610304565b60405190151581526020015b60405180910390f35b34801561011457600080fd5b5061011d610356565b6040516100ff9190612619565b34801561013657600080fd5b5061014a6101453660046123f7565b6103e8565b6040516001600160a01b0390911681526020016100ff565b34801561016e57600080fd5b5061018261017d366004612256565b61040f565b005b6101826101923660046123f7565b61052a565b3480156101a357600080fd5b506101826101b2366004612169565b610695565b3480156101c357600080fd5b506101826101d2366004612169565b6106c6565b6101ea6101e53660046122b7565b6106e1565b6040519081526020016100ff565b34801561020457600080fd5b5061014a6102133660046123f7565b610731565b34801561022457600080fd5b506101ea61023336600461211d565b610766565b34801561024457600080fd5b5061011d6107ec565b34801561025957600080fd5b5061018261026836600461221c565b6107fb565b34801561027957600080fd5b506101826102883660046121a4565b61080a565b34801561029957600080fd5b5061011d6102a83660046123f7565b61083c565b3480156102b957600080fd5b506102c261094d565b6040516100ff91906124b4565b3480156102db57600080fd5b506102c2610eea565b3480156102f057600080fd5b506100f36102ff366004612137565b6114c5565b60006001600160e01b031982166380ac58cd60e01b148061033557506001600160e01b03198216635b5e139f60e01b145b8061035057506301ffc9a760e01b6001600160e01b03198316145b92915050565b6060600080546103659061276d565b80601f01602080910402602001604051908101604052809291908181526020018280546103919061276d565b80156103de5780601f106103b3576101008083540402835291602001916103de565b820191906000526020600020905b8154815290600101906020018083116103c157829003601f168201915b5050505050905090565b60006103f3826114f3565b506000908152600460205260409020546001600160a01b031690565b600061041a82610731565b9050806001600160a01b0316836001600160a01b0316141561048d5760405162461bcd60e51b815260206004820152602160248201527f4552433732313a20617070726f76616c20746f2063757272656e74206f776e656044820152603960f91b60648201526084015b60405180910390fd5b336001600160a01b03821614806104a957506104a981336114c5565b61051b5760405162461bcd60e51b815260206004820152603e60248201527f4552433732313a20617070726f76652063616c6c6572206973206e6f7420746f60448201527f6b656e206f776e6572206e6f7220617070726f76656420666f7220616c6c00006064820152608401610484565b610525838361151b565b505050565b6000818152600b6020526040902060038101546001909101546001600160a01b03163482146105c3576040805162461bcd60e51b81526020600482015260248101919091527f506c65617365207375626d6974207468652061736b696e67207072696365206960448201527f6e206f7264657220746f20636f6d706c657465207468652070757263686173656064820152608401610484565b6000838152600b602081905260409091206002810180546001600160a01b03199081163317909155918101805460ff191660019081179091550180549091169055610612600880546001019055565b61061d303385611589565b600a546009546040516001600160a01b039092169181156108fc0291906000818181858888f19350505050158015610659573d6000803e3d6000fd5b506040516001600160a01b038216903480156108fc02916000818181858888f1935050505015801561068f573d6000803e3d6000fd5b50505050565b61069f3382611713565b6106bb5760405162461bcd60e51b8152600401610484906126b0565b610525838383611589565b6105258383836040518060200160405280600081525061080a565b60006106f1600780546001019055565b60006106fc60075490565b90506107083382611771565b610712818c611891565b610723818b8b8b8b8b8b8b8b61191c565b9a9950505050505050505050565b6000818152600260205260408120546001600160a01b0316806103505760405162461bcd60e51b81526004016104849061267e565b60006001600160a01b0382166107d05760405162461bcd60e51b815260206004820152602960248201527f4552433732313a2061646472657373207a65726f206973206e6f7420612076616044820152683634b21037bbb732b960b91b6064820152608401610484565b506001600160a01b031660009081526003602052604090205490565b6060600180546103659061276d565b610806338383611baa565b5050565b6108143383611713565b6108305760405162461bcd60e51b8152600401610484906126b0565b61068f84848484611c75565b6060610847826114f3565b600082815260066020526040812080546108609061276d565b80601f016020809104026020016040519081016040528092919081815260200182805461088c9061276d565b80156108d95780601f106108ae576101008083540402835291602001916108d9565b820191906000526020600020905b8154815290600101906020018083116108bc57829003601f168201915b5050505050905060006108f760408051602081019091526000815290565b905080516000141561090a575092915050565b81511561093c578082604051602001610924929190612448565b60405160208183030381529060405292505050919050565b61094584611ca8565b949350505050565b6060600061095a60075490565b9050600061096760085490565b600754610974919061272a565b9050600080826001600160401b0381111561099f57634e487b7160e01b600052604160045260246000fd5b6040519080825280602002602001820160405280156109d857816020015b6109c5611f5f565b8152602001906001900390816109bd5790505b50905060005b84811015610ee15730600b60006109f68460016126fe565b81526020810191909152604001600020600201546001600160a01b03161415610ecf576000610a268260016126fe565b6000818152600b60209081526040918290208251610180810184528154815260018201546001600160a01b039081169382019390935260028201549092169282019290925260038201546060820152600482018054939450919290918391608084019190610a939061276d565b80601f0160208091040260200160405190810160405280929190818152602001828054610abf9061276d565b8015610b0c5780601f10610ae157610100808354040283529160200191610b0c565b820191906000526020600020905b815481529060010190602001808311610aef57829003601f168201915b50505050508152602001600582018054610b259061276d565b80601f0160208091040260200160405190810160405280929190818152602001828054610b519061276d565b8015610b9e5780601f10610b7357610100808354040283529160200191610b9e565b820191906000526020600020905b815481529060010190602001808311610b8157829003601f168201915b50505050508152602001600682018054610bb79061276d565b80601f0160208091040260200160405190810160405280929190818152602001828054610be39061276d565b8015610c305780601f10610c0557610100808354040283529160200191610c30565b820191906000526020600020905b815481529060010190602001808311610c1357829003601f168201915b50505050508152602001600782018054610c499061276d565b80601f0160208091040260200160405190810160405280929190818152602001828054610c759061276d565b8015610cc25780601f10610c9757610100808354040283529160200191610cc2565b820191906000526020600020905b815481529060010190602001808311610ca557829003601f168201915b50505050508152602001600882018054610cdb9061276d565b80601f0160208091040260200160405190810160405280929190818152602001828054610d079061276d565b8015610d545780601f10610d2957610100808354040283529160200191610d54565b820191906000526020600020905b815481529060010190602001808311610d3757829003601f168201915b50505050508152602001600982018054610d6d9061276d565b80601f0160208091040260200160405190810160405280929190818152602001828054610d999061276d565b8015610de65780601f10610dbb57610100808354040283529160200191610de6565b820191906000526020600020905b815481529060010190602001808311610dc957829003601f168201915b50505050508152602001600a82018054610dff9061276d565b80601f0160208091040260200160405190810160405280929190818152602001828054610e2b9061276d565b8015610e785780601f10610e4d57610100808354040283529160200191610e78565b820191906000526020600020905b815481529060010190602001808311610e5b57829003601f168201915b5050509183525050600b919091015460ff1615156020909101528451859087908110610eb457634e487b7160e01b600052603260045260246000fd5b6020908102919091010152610eca6001866126fe565b945050505b80610ed9816127a8565b9150506109de565b50949350505050565b60606000610ef760075490565b905060008060005b83811015610f5a5733600b6000610f178460016126fe565b81526020810191909152604001600020600201546001600160a01b03161415610f4857610f456001846126fe565b92505b80610f52816127a8565b915050610eff565b506000826001600160401b03811115610f8357634e487b7160e01b600052604160045260246000fd5b604051908082528060200260200182016040528015610fbc57816020015b610fa9611f5f565b815260200190600190039081610fa15790505b50905060005b84811015610ee15733600b6000610fda8460016126fe565b81526020810191909152604001600020600201546001600160a01b031614156114b357600061100a8260016126fe565b6000818152600b60209081526040918290208251610180810184528154815260018201546001600160a01b0390811693820193909352600282015490921692820192909252600382015460608201526004820180549394509192909183916080840191906110779061276d565b80601f01602080910402602001604051908101604052809291908181526020018280546110a39061276d565b80156110f05780601f106110c5576101008083540402835291602001916110f0565b820191906000526020600020905b8154815290600101906020018083116110d357829003601f168201915b505050505081526020016005820180546111099061276d565b80601f01602080910402602001604051908101604052809291908181526020018280546111359061276d565b80156111825780601f1061115757610100808354040283529160200191611182565b820191906000526020600020905b81548152906001019060200180831161116557829003601f168201915b5050505050815260200160068201805461119b9061276d565b80601f01602080910402602001604051908101604052809291908181526020018280546111c79061276d565b80156112145780601f106111e957610100808354040283529160200191611214565b820191906000526020600020905b8154815290600101906020018083116111f757829003601f168201915b5050505050815260200160078201805461122d9061276d565b80601f01602080910402602001604051908101604052809291908181526020018280546112599061276d565b80156112a65780601f1061127b576101008083540402835291602001916112a6565b820191906000526020600020905b81548152906001019060200180831161128957829003601f168201915b505050505081526020016008820180546112bf9061276d565b80601f01602080910402602001604051908101604052809291908181526020018280546112eb9061276d565b80156113385780601f1061130d57610100808354040283529160200191611338565b820191906000526020600020905b81548152906001019060200180831161131b57829003601f168201915b505050505081526020016009820180546113519061276d565b80601f016020809104026020016040519081016040528092919081815260200182805461137d9061276d565b80156113ca5780601f1061139f576101008083540402835291602001916113ca565b820191906000526020600020905b8154815290600101906020018083116113ad57829003601f168201915b50505050508152602001600a820180546113e39061276d565b80601f016020809104026020016040519081016040528092919081815260200182805461140f9061276d565b801561145c5780601f106114315761010080835404028352916020019161145c565b820191906000526020600020905b81548152906001019060200180831161143f57829003601f168201915b5050509183525050600b919091015460ff161515602090910152845185908790811061149857634e487b7160e01b600052603260045260246000fd5b60209081029190910101526114ae6001866126fe565b945050505b806114bd816127a8565b915050610fc2565b6001600160a01b03918216600090815260056020908152604080832093909416825291909152205460ff1690565b6114fc81611d1c565b6115185760405162461bcd60e51b81526004016104849061267e565b50565b600081815260046020526040902080546001600160a01b0319166001600160a01b038416908117909155819061155082610731565b6001600160a01b03167f8c5be1e5ebec7d5bd14f71427d1e84f3dd0314c0f7b2291e5b200ac8c7c3b92560405160405180910390a45050565b826001600160a01b031661159c82610731565b6001600160a01b0316146116005760405162461bcd60e51b815260206004820152602560248201527f4552433732313a207472616e736665722066726f6d20696e636f72726563742060448201526437bbb732b960d91b6064820152608401610484565b6001600160a01b0382166116625760405162461bcd60e51b8152602060048201526024808201527f4552433732313a207472616e7366657220746f20746865207a65726f206164646044820152637265737360e01b6064820152608401610484565b61166d60008261151b565b6001600160a01b038316600090815260036020526040812080546001929061169690849061272a565b90915550506001600160a01b03821660009081526003602052604081208054600192906116c49084906126fe565b909155505060008181526002602052604080822080546001600160a01b0319166001600160a01b03868116918217909255915184939187169160008051602061283083398151915291a4505050565b60008061171f83610731565b9050806001600160a01b0316846001600160a01b03161480611746575061174681856114c5565b806109455750836001600160a01b031661175f846103e8565b6001600160a01b031614949350505050565b6001600160a01b0382166117c75760405162461bcd60e51b815260206004820181905260248201527f4552433732313a206d696e7420746f20746865207a65726f20616464726573736044820152606401610484565b6117d081611d1c565b1561181c5760405162461bcd60e51b815260206004820152601c60248201527b115490cdcc8c4e881d1bdad95b88185b1c9958591e481b5a5b9d195960221b6044820152606401610484565b6001600160a01b03821660009081526003602052604081208054600192906118459084906126fe565b909155505060008181526002602052604080822080546001600160a01b0319166001600160a01b0386169081179091559051839290600080516020612830833981519152908290a45050565b61189a82611d1c565b6118fd5760405162461bcd60e51b815260206004820152602e60248201527f45524337323155524953746f726167653a2055524920736574206f66206e6f6e60448201526d32bc34b9ba32b73a103a37b5b2b760911b6064820152608401610484565b6000828152600660209081526040909120825161052592840190611fd4565b6000881161196b5760405162461bcd60e51b815260206004820152601c60248201527b5072696365206d757374206265206174206c6561737420312077656960201b6044820152606401610484565b60095434146119c85760405162461bcd60e51b8152602060048201526024808201527f5072696365206d75737420626520657175616c20746f206c697374696e6720706044820152637269636560e01b6064820152608401610484565b6040518061018001604052808a8152602001336001600160a01b03168152602001306001600160a01b0316815260200189815260200188815260200187815260200186815260200185815260200184815260200183815260200182815260200160001515815250600b60008b81526020019081526020016000206000820151816000015560208201518160010160006101000a8154816001600160a01b0302191690836001600160a01b0316021790555060408201518160020160006101000a8154816001600160a01b0302191690836001600160a01b03160217905550606082015181600301556080820151816004019080519060200190611acc929190611fd4565b5060a08201518051611ae8916005840191602090910190611fd4565b5060c08201518051611b04916006840191602090910190611fd4565b5060e08201518051611b20916007840191602090910190611fd4565b506101008201518051611b3d916008840191602090910190611fd4565b506101208201518051611b5a916009840191602090910190611fd4565b506101408201518051611b7791600a840191602090910190611fd4565b506101609190910151600b909101805460ff1916911515919091179055611b9f33308b611589565b505050505050505050565b816001600160a01b0316836001600160a01b03161415611c085760405162461bcd60e51b815260206004820152601960248201527822a9219b99189d1030b8383937bb32903a379031b0b63632b960391b6044820152606401610484565b6001600160a01b03838116600081815260056020908152604080832094871680845294825291829020805460ff191686151590811790915591519182527f17307eab39ab6107e8899845ad3d59bd9653f200f220920489ca2b5937696c31910160405180910390a3505050565b611c80848484611589565b611c8c84848484611d39565b61068f5760405162461bcd60e51b81526004016104849061262c565b6060611cb3826114f3565b6000611cca60408051602081019091526000815290565b90506000815111611cea5760405180602001604052806000815250611d15565b80611cf484611e46565b604051602001611d05929190612448565b6040516020818303038152906040525b9392505050565b6000908152600260205260409020546001600160a01b0316151590565b60006001600160a01b0384163b15611e3b57604051630a85bd0160e11b81526001600160a01b0385169063150b7a0290611d7d903390899088908890600401612477565b602060405180830381600087803b158015611d9757600080fd5b505af1925050508015611dc7575060408051601f3d908101601f19168201909252611dc49181019061229b565b60015b611e21573d808015611df5576040519150601f19603f3d011682016040523d82523d6000602084013e611dfa565b606091505b508051611e195760405162461bcd60e51b81526004016104849061262c565b805181602001fd5b6001600160e01b031916630a85bd0160e11b149050610945565b506001949350505050565b606081611e6a5750506040805180820190915260018152600360fc1b602082015290565b8160005b8115611e945780611e7e816127a8565b9150611e8d9050600a83612716565b9150611e6e565b6000816001600160401b03811115611ebc57634e487b7160e01b600052604160045260246000fd5b6040519080825280601f01601f191660200182016040528015611ee6576020820181803683370190505b5090505b841561094557611efb60018361272a565b9150611f08600a866127c3565b611f139060306126fe565b60f81b818381518110611f3657634e487b7160e01b600052603260045260246000fd5b60200101906001600160f81b031916908160001a905350611f58600a86612716565b9450611eea565b6040518061018001604052806000815260200160006001600160a01b0316815260200160006001600160a01b0316815260200160008152602001606081526020016060815260200160608152602001606081526020016060815260200160608152602001606081526020016000151581525090565b828054611fe09061276d565b90600052602060002090601f0160209004810192826120025760008555612048565b82601f1061201b57805160ff1916838001178555612048565b82800160010185558215612048579182015b8281111561204857825182559160200191906001019061202d565b50612054929150612058565b5090565b5b808211156120545760008155600101612059565b60006001600160401b038084111561208757612087612803565b604051601f8501601f19908116603f011681019082821181831017156120af576120af612803565b816040528093508581528686860111156120c857600080fd5b858560208301376000602087830101525050509392505050565b80356001600160a01b03811681146120f957600080fd5b919050565b600082601f83011261210e578081fd5b611d158383356020850161206d565b60006020828403121561212e578081fd5b611d15826120e2565b60008060408385031215612149578081fd5b612152836120e2565b9150612160602084016120e2565b90509250929050565b60008060006060848603121561217d578081fd5b612186846120e2565b9250612194602085016120e2565b9150604084013590509250925092565b600080600080608085870312156121b9578081fd5b6121c2856120e2565b93506121d0602086016120e2565b92506040850135915060608501356001600160401b038111156121f1578182fd5b8501601f81018713612201578182fd5b6122108782356020840161206d565b91505092959194509250565b6000806040838503121561222e578182fd5b612237836120e2565b91506020830135801515811461224b578182fd5b809150509250929050565b60008060408385031215612268578182fd5b612271836120e2565b946020939093013593505050565b600060208284031215612290578081fd5b8135611d1581612819565b6000602082840312156122ac578081fd5b8151611d1581612819565b60008060008060008060008060006101208a8c0312156122d5578485fd5b89356001600160401b03808211156122eb578687fd5b6122f78d838e016120fe565b9a5060208c0135995060408c0135915080821115612313578687fd5b61231f8d838e016120fe565b985060608c0135915080821115612334578687fd5b6123408d838e016120fe565b975060808c0135915080821115612355578687fd5b6123618d838e016120fe565b965060a08c0135915080821115612376578586fd5b6123828d838e016120fe565b955060c08c0135915080821115612397578485fd5b6123a38d838e016120fe565b945060e08c01359150808211156123b8578384fd5b6123c48d838e016120fe565b93506101008c01359150808211156123da578283fd5b506123e78c828d016120fe565b9150509295985092959850929598565b600060208284031215612408578081fd5b5035919050565b6001600160a01b03169052565b60008151808452612434816020860160208601612741565b601f01601f19169290920160200192915050565b6000835161245a818460208801612741565b83519083019061246e818360208801612741565b01949350505050565b6001600160a01b03858116825284166020820152604081018390526080606082018190526000906124aa9083018461241c565b9695505050505050565b60006020808301818452808551808352604092508286019150828160051b870101848801865b8381101561260b57603f19898403018552815161018081518552888201516125048a87018261240f565b50878201516125158987018261240f565b50606080830151818701525060808083015182828801526125388388018261241c565b9250505060a08083015186830382880152612553838261241c565b9250505060c0808301518683038288015261256e838261241c565b9250505060e08083015186830382880152612589838261241c565b9250505061010080830151868303828801526125a5838261241c565b9250505061012080830151868303828801526125c1838261241c565b9250505061014080830151868303828801526125dd838261241c565b925050506101608083015192506125f78187018415159052565b5095880195935050908601906001016124da565b509098975050505050505050565b602081526000611d15602083018461241c565b60208082526032908201527f4552433732313a207472616e7366657220746f206e6f6e20455243373231526560408201527131b2b4bb32b91034b6b83632b6b2b73a32b960711b606082015260800190565b602080825260189082015277115490cdcc8c4e881a5b9d985b1a59081d1bdad95b88125160421b604082015260600190565b6020808252602e908201527f4552433732313a2063616c6c6572206973206e6f7420746f6b656e206f776e6560408201526d1c881b9bdc88185c1c1c9bdd995960921b606082015260800190565b60008219821115612711576127116127d7565b500190565b600082612725576127256127ed565b500490565b60008282101561273c5761273c6127d7565b500390565b60005b8381101561275c578181015183820152602001612744565b8381111561068f5750506000910152565b600181811c9082168061278157607f821691505b602082108114156127a257634e487b7160e01b600052602260045260246000fd5b50919050565b60006000198214156127bc576127bc6127d7565b5060010190565b6000826127d2576127d26127ed565b500690565b634e487b7160e01b600052601160045260246000fd5b634e487b7160e01b600052601260045260246000fd5b634e487b7160e01b600052604160045260246000fd5b6001600160e01b03198116811461151857600080fdfeddf252ad1be2c89b69c2b068fc378daa952ba7f163c4a11628f55a4df523b3efa2646970667358221220a0d2ef147202ed48a3439cf2def948bb4b1b2ba5c6b7d265f4be464d92abe81164736f6c63430008040033",
  "linkReferences": {},
  "deployedLinkReferences": {}
}