{
  "_format": "hh-sol-artifact-1",
  "contractName": "Mover",
  "sourceName": "contracts/Mover.sol",
  "abi": [
    {
      "inputs": [
        {
          "components": [
            {
              "internalType": "uint256",
              "name": "id",
              "type": "uint256"
            },
            {
              "internalType": "string",
              "name": "propertynumber",
              "type": "string"
            },
            {
              "internalType": "string",
              "name": "ownername",
              "type": "string"
            },
            {
              "components": [
                {
                  "internalType": "string",
                  "name": "propertylocation",
                  "type": "string"
                },
                {
                  "internalType": "string",
                  "name": "propertydescription",
                  "type": "string"
                },
                {
                  "internalType": "string",
                  "name": "propertyspace",
                  "type": "string"
                },
                {
                  "internalType": "string",
                  "name": "propertyparkingspace",
                  "type": "string"
                },
                {
                  "internalType": "string",
                  "name": "propertybathroom",
                  "type": "string"
                },
                {
                  "internalType": "string",
                  "name": "propertybedroom",
                  "type": "string"
                },
                {
                  "internalType": "uint256",
                  "name": "propertyprice",
                  "type": "uint256"
                },
                {
                  "internalType": "string",
                  "name": "propertycategory",
                  "type": "string"
                },
                {
                  "internalType": "string",
                  "name": "propertytype",
                  "type": "string"
                },
                {
                  "internalType": "string",
                  "name": "propertyduration",
                  "type": "string"
                },
                {
                  "internalType": "string",
                  "name": "hash",
                  "type": "string"
                },
                {
                  "internalType": "string",
                  "name": "supportimage1",
                  "type": "string"
                },
                {
                  "internalType": "string",
                  "name": "supportimage2",
                  "type": "string"
                },
                {
                  "internalType": "string",
                  "name": "document",
                  "type": "string"
                },
                {
                  "internalType": "address",
                  "name": "propertyseller",
                  "type": "address"
                },
                {
                  "internalType": "address",
                  "name": "propertybuyer",
                  "type": "address"
                }
              ],
              "internalType": "struct Mover.Nested",
              "name": "nested",
              "type": "tuple"
            }
          ],
          "internalType": "struct Mover.PropertyOwner",
          "name": "property_",
          "type": "tuple"
        }
      ],
      "name": "addProperty",
      "outputs": [],
      "stateMutability": "payable",
      "type": "function"
    },
    {
      "inputs": [],
      "name": "fetchMyProperties",
      "outputs": [
        {
          "components": [
            {
              "internalType": "uint256",
              "name": "id",
              "type": "uint256"
            },
            {
              "internalType": "string",
              "name": "propertynumber",
              "type": "string"
            },
            {
              "internalType": "string",
              "name": "ownername",
              "type": "string"
            },
            {
              "components": [
                {
                  "internalType": "string",
                  "name": "propertylocation",
                  "type": "string"
                },
                {
                  "internalType": "string",
                  "name": "propertydescription",
                  "type": "string"
                },
                {
                  "internalType": "string",
                  "name": "propertyspace",
                  "type": "string"
                },
                {
                  "internalType": "string",
                  "name": "propertyparkingspace",
                  "type": "string"
                },
                {
                  "internalType": "string",
                  "name": "propertybathroom",
                  "type": "string"
                },
                {
                  "internalType": "string",
                  "name": "propertybedroom",
                  "type": "string"
                },
                {
                  "internalType": "uint256",
                  "name": "propertyprice",
                  "type": "uint256"
                },
                {
                  "internalType": "string",
                  "name": "propertycategory",
                  "type": "string"
                },
                {
                  "internalType": "string",
                  "name": "propertytype",
                  "type": "string"
                },
                {
                  "internalType": "string",
                  "name": "propertyduration",
                  "type": "string"
                },
                {
                  "internalType": "string",
                  "name": "hash",
                  "type": "string"
                },
                {
                  "internalType": "string",
                  "name": "supportimage1",
                  "type": "string"
                },
                {
                  "internalType": "string",
                  "name": "supportimage2",
                  "type": "string"
                },
                {
                  "internalType": "string",
                  "name": "document",
                  "type": "string"
                },
                {
                  "internalType": "address",
                  "name": "propertyseller",
                  "type": "address"
                },
                {
                  "internalType": "address",
                  "name": "propertybuyer",
                  "type": "address"
                }
              ],
              "internalType": "struct Mover.Nested",
              "name": "nested",
              "type": "tuple"
            }
          ],
          "internalType": "struct Mover.PropertyOwner[]",
          "name": "",
          "type": "tuple[]"
        }
      ],
      "stateMutability": "view",
      "type": "function"
    },
    {
      "inputs": [],
      "name": "fetchPropertyOwner",
      "outputs": [
        {
          "components": [
            {
              "internalType": "uint256",
              "name": "id",
              "type": "uint256"
            },
            {
              "internalType": "string",
              "name": "propertynumber",
              "type": "string"
            },
            {
              "internalType": "string",
              "name": "ownername",
              "type": "string"
            },
            {
              "components": [
                {
                  "internalType": "string",
                  "name": "propertylocation",
                  "type": "string"
                },
                {
                  "internalType": "string",
                  "name": "propertydescription",
                  "type": "string"
                },
                {
                  "internalType": "string",
                  "name": "propertyspace",
                  "type": "string"
                },
                {
                  "internalType": "string",
                  "name": "propertyparkingspace",
                  "type": "string"
                },
                {
                  "internalType": "string",
                  "name": "propertybathroom",
                  "type": "string"
                },
                {
                  "internalType": "string",
                  "name": "propertybedroom",
                  "type": "string"
                },
                {
                  "internalType": "uint256",
                  "name": "propertyprice",
                  "type": "uint256"
                },
                {
                  "internalType": "string",
                  "name": "propertycategory",
                  "type": "string"
                },
                {
                  "internalType": "string",
                  "name": "propertytype",
                  "type": "string"
                },
                {
                  "internalType": "string",
                  "name": "propertyduration",
                  "type": "string"
                },
                {
                  "internalType": "string",
                  "name": "hash",
                  "type": "string"
                },
                {
                  "internalType": "string",
                  "name": "supportimage1",
                  "type": "string"
                },
                {
                  "internalType": "string",
                  "name": "supportimage2",
                  "type": "string"
                },
                {
                  "internalType": "string",
                  "name": "document",
                  "type": "string"
                },
                {
                  "internalType": "address",
                  "name": "propertyseller",
                  "type": "address"
                },
                {
                  "internalType": "address",
                  "name": "propertybuyer",
                  "type": "address"
                }
              ],
              "internalType": "struct Mover.Nested",
              "name": "nested",
              "type": "tuple"
            }
          ],
          "internalType": "struct Mover.PropertyOwner[]",
          "name": "",
          "type": "tuple[]"
        }
      ],
      "stateMutability": "view",
      "type": "function"
    },
    {
      "inputs": [],
      "name": "fetchUnsoldProperties",
      "outputs": [
        {
          "components": [
            {
              "internalType": "uint256",
              "name": "id",
              "type": "uint256"
            },
            {
              "internalType": "string",
              "name": "propertynumber",
              "type": "string"
            },
            {
              "internalType": "string",
              "name": "ownername",
              "type": "string"
            },
            {
              "components": [
                {
                  "internalType": "string",
                  "name": "propertylocation",
                  "type": "string"
                },
                {
                  "internalType": "string",
                  "name": "propertydescription",
                  "type": "string"
                },
                {
                  "internalType": "string",
                  "name": "propertyspace",
                  "type": "string"
                },
                {
                  "internalType": "string",
                  "name": "propertyparkingspace",
                  "type": "string"
                },
                {
                  "internalType": "string",
                  "name": "propertybathroom",
                  "type": "string"
                },
                {
                  "internalType": "string",
                  "name": "propertybedroom",
                  "type": "string"
                },
                {
                  "internalType": "uint256",
                  "name": "propertyprice",
                  "type": "uint256"
                },
                {
                  "internalType": "string",
                  "name": "propertycategory",
                  "type": "string"
                },
                {
                  "internalType": "string",
                  "name": "propertytype",
                  "type": "string"
                },
                {
                  "internalType": "string",
                  "name": "propertyduration",
                  "type": "string"
                },
                {
                  "internalType": "string",
                  "name": "hash",
                  "type": "string"
                },
                {
                  "internalType": "string",
                  "name": "supportimage1",
                  "type": "string"
                },
                {
                  "internalType": "string",
                  "name": "supportimage2",
                  "type": "string"
                },
                {
                  "internalType": "string",
                  "name": "document",
                  "type": "string"
                },
                {
                  "internalType": "address",
                  "name": "propertyseller",
                  "type": "address"
                },
                {
                  "internalType": "address",
                  "name": "propertybuyer",
                  "type": "address"
                }
              ],
              "internalType": "struct Mover.Nested",
              "name": "nested",
              "type": "tuple"
            }
          ],
          "internalType": "struct Mover.PropertyOwner[]",
          "name": "",
          "type": "tuple[]"
        }
      ],
      "stateMutability": "view",
      "type": "function"
    },
    {
      "inputs": [
        {
          "internalType": "uint256",
          "name": "",
          "type": "uint256"
        }
      ],
      "name": "idPropertyOwner",
      "outputs": [
        {
          "internalType": "uint256",
          "name": "id",
          "type": "uint256"
        },
        {
          "internalType": "string",
          "name": "propertynumber",
          "type": "string"
        },
        {
          "internalType": "string",
          "name": "ownername",
          "type": "string"
        },
        {
          "components": [
            {
              "internalType": "string",
              "name": "propertylocation",
              "type": "string"
            },
            {
              "internalType": "string",
              "name": "propertydescription",
              "type": "string"
            },
            {
              "internalType": "string",
              "name": "propertyspace",
              "type": "string"
            },
            {
              "internalType": "string",
              "name": "propertyparkingspace",
              "type": "string"
            },
            {
              "internalType": "string",
              "name": "propertybathroom",
              "type": "string"
            },
            {
              "internalType": "string",
              "name": "propertybedroom",
              "type": "string"
            },
            {
              "internalType": "uint256",
              "name": "propertyprice",
              "type": "uint256"
            },
            {
              "internalType": "string",
              "name": "propertycategory",
              "type": "string"
            },
            {
              "internalType": "string",
              "name": "propertytype",
              "type": "string"
            },
            {
              "internalType": "string",
              "name": "propertyduration",
              "type": "string"
            },
            {
              "internalType": "string",
              "name": "hash",
              "type": "string"
            },
            {
              "internalType": "string",
              "name": "supportimage1",
              "type": "string"
            },
            {
              "internalType": "string",
              "name": "supportimage2",
              "type": "string"
            },
            {
              "internalType": "string",
              "name": "document",
              "type": "string"
            },
            {
              "internalType": "address",
              "name": "propertyseller",
              "type": "address"
            },
            {
              "internalType": "address",
              "name": "propertybuyer",
              "type": "address"
            }
          ],
          "internalType": "struct Mover.Nested",
          "name": "nested",
          "type": "tuple"
        }
      ],
      "stateMutability": "view",
      "type": "function"
    },
    {
      "inputs": [],
      "name": "propertyCount",
      "outputs": [
        {
          "internalType": "uint256",
          "name": "",
          "type": "uint256"
        }
      ],
      "stateMutability": "view",
      "type": "function"
    },
    {
      "inputs": [],
      "name": "propertySold",
      "outputs": [
        {
          "internalType": "uint256",
          "name": "",
          "type": "uint256"
        }
      ],
      "stateMutability": "view",
      "type": "function"
    },
    {
      "inputs": [
        {
          "internalType": "uint256",
          "name": "id",
          "type": "uint256"
        }
      ],
      "name": "transferProperty",
      "outputs": [],
      "stateMutability": "payable",
      "type": "function"
    }
  ],
  "bytecode": "0x60806040526000600155600060025534801561001a57600080fd5b5061386d8061002a6000396000f3fe60806040526004361061006b5760003560e01c80634ac93c001461007057806355f09362146100855780639a7704c714610098578063c361a335146100d1578063d15b4f13146100f5578063e3992ef414610117578063e409f7e81461012c578063e7509f3014610141575b600080fd5b61008361007e366004613355565b610157565b005b61008361009336600461340d565b6104e3565b3480156100a457600080fd5b506100b86100b336600461340d565b61078f565b6040516100c894939291906136f1565b60405180910390f35b3480156100dd57600080fd5b506100e760015481565b6040519081526020016100c8565b34801561010157600080fd5b5061010a61106a565b6040516100c89190613616565b34801561012357600080fd5b5061010a611a80565b34801561013857600080fd5b5061010a612450565b34801561014d57600080fd5b506100e760025481565b6000816040015151116101aa5760405162461bcd60e51b815260206004820152601660248201527513dddb995c881b985b59481a5cc81c995c5d5a5c995960521b60448201526064015b60405180910390fd5b60008160600151610140015151116101d45760405162461bcd60e51b81526004016101a1906136c1565b600081606001516101600151511161022b5760405162461bcd60e51b815260206004820152601a60248201527914dd5c1c1bdc9d081a5b5859d94c481a5cc81c995c5d5a5c995960321b60448201526064016101a1565b60008160600151610180015151116102825760405162461bcd60e51b815260206004820152601a60248201527914dd5c1c1bdc9d081a5b5859d94c881a5cc81c995c5d5a5c995960321b60448201526064016101a1565b600081606001516101a0015151116102d35760405162461bcd60e51b8152602060048201526014602482015273111bd8dd5b595b9d081a5cc81c995c5d5a5c995960621b60448201526064016101a1565b600180549060006102e3836137f0565b909155505060018054600081815260208181526040909120918255838101518051929361031893908501929190910190612ea9565b5060408201518051610334916002840191602090910190612ea9565b506060820151518051610351916003840191602090910190612ea9565b506060820151602090810151805161036f9260048501920190612ea9565b50606082015160400151805161038f916005840191602090910190612ea9565b50606080830151015180516103ae916006840191602090910190612ea9565b5060608201516080015180516103ce916007840191602090910190612ea9565b50606082015160a0015180516103ee916008840191602090910190612ea9565b50606082015160c0810151600983015560e00151805161041891600a840191602090910190612ea9565b5060608201516101000151805161043991600b840191602090910190612ea9565b5060608201516101200151805161045a91600c840191602090910190612ea9565b5060608201516101400151805161047b91600d840191602090910190612ea9565b5060608201516101600151805161049c91600e840191602090910190612ea9565b506060820151610180015180516104bd91600f840191602090910190612ea9565b5060608201516101a0015180516104de916010840191602090910190612ea9565b505050565b6000818152602081905260408120600d81018054919291610503906137b5565b9050116105225760405162461bcd60e51b81526004016101a1906136c1565b60098101546105735760405162461bcd60e51b815260206004820152601e60248201527f506c65617365207375626d6974207468652061736b696e67207072696365000060448201526064016101a1565b600082815260208190526040902060118082015490830180546001600160a01b0319166001600160a01b039092169190911790556009808201549083015560039081018054918301916105c5906137b5565b6105d0929190612f2d565b506000828152602081905260409020600c9081018054918301916105f3906137b5565b6105fe929190612f2d565b5060008281526020819052604090206005908101805491830191610621906137b5565b61062c929190612f2d565b506000828152602081905260409020600890810180549183019161064f906137b5565b61065a929190612f2d565b506000828152602081905260409020600790810180549183019161067d906137b5565b610688929190612f2d565b50600082815260208190526040902060049081018054918301916106ab906137b5565b6106b6929190612f2d565b50600082815260208190526040902060109081018054918301916106d9906137b5565b6106e4929190612f2d565b50600082815260208190526040808220601281018054336001600160a01b031991821617909155601190910180549091169055600354600984015491516001600160a01b03909116926108fc831502929190818181858888f19350505050158015610753573d6000803e3d6000fd5b5060118101546040516001600160a01b03909116903480156108fc02916000818181858888f193505050501580156104de573d6000803e3d6000fd5b600060208190529081526040902080546001820180549192916107b1906137b5565b80601f01602080910402602001604051908101604052809291908181526020018280546107dd906137b5565b801561082a5780601f106107ff5761010080835404028352916020019161082a565b820191906000526020600020905b81548152906001019060200180831161080d57829003601f168201915b50505050509080600201805461083f906137b5565b80601f016020809104026020016040519081016040528092919081815260200182805461086b906137b5565b80156108b85780601f1061088d576101008083540402835291602001916108b8565b820191906000526020600020905b81548152906001019060200180831161089b57829003601f168201915b50505050509080600301604051806102000160405290816000820180546108de906137b5565b80601f016020809104026020016040519081016040528092919081815260200182805461090a906137b5565b80156109575780601f1061092c57610100808354040283529160200191610957565b820191906000526020600020905b81548152906001019060200180831161093a57829003601f168201915b50505050508152602001600182018054610970906137b5565b80601f016020809104026020016040519081016040528092919081815260200182805461099c906137b5565b80156109e95780601f106109be576101008083540402835291602001916109e9565b820191906000526020600020905b8154815290600101906020018083116109cc57829003601f168201915b50505050508152602001600282018054610a02906137b5565b80601f0160208091040260200160405190810160405280929190818152602001828054610a2e906137b5565b8015610a7b5780601f10610a5057610100808354040283529160200191610a7b565b820191906000526020600020905b815481529060010190602001808311610a5e57829003601f168201915b50505050508152602001600382018054610a94906137b5565b80601f0160208091040260200160405190810160405280929190818152602001828054610ac0906137b5565b8015610b0d5780601f10610ae257610100808354040283529160200191610b0d565b820191906000526020600020905b815481529060010190602001808311610af057829003601f168201915b50505050508152602001600482018054610b26906137b5565b80601f0160208091040260200160405190810160405280929190818152602001828054610b52906137b5565b8015610b9f5780601f10610b7457610100808354040283529160200191610b9f565b820191906000526020600020905b815481529060010190602001808311610b8257829003601f168201915b50505050508152602001600582018054610bb8906137b5565b80601f0160208091040260200160405190810160405280929190818152602001828054610be4906137b5565b8015610c315780601f10610c0657610100808354040283529160200191610c31565b820191906000526020600020905b815481529060010190602001808311610c1457829003601f168201915b5050505050815260200160068201548152602001600782018054610c54906137b5565b80601f0160208091040260200160405190810160405280929190818152602001828054610c80906137b5565b8015610ccd5780601f10610ca257610100808354040283529160200191610ccd565b820191906000526020600020905b815481529060010190602001808311610cb057829003601f168201915b50505050508152602001600882018054610ce6906137b5565b80601f0160208091040260200160405190810160405280929190818152602001828054610d12906137b5565b8015610d5f5780601f10610d3457610100808354040283529160200191610d5f565b820191906000526020600020905b815481529060010190602001808311610d4257829003601f168201915b50505050508152602001600982018054610d78906137b5565b80601f0160208091040260200160405190810160405280929190818152602001828054610da4906137b5565b8015610df15780601f10610dc657610100808354040283529160200191610df1565b820191906000526020600020905b815481529060010190602001808311610dd457829003601f168201915b50505050508152602001600a82018054610e0a906137b5565b80601f0160208091040260200160405190810160405280929190818152602001828054610e36906137b5565b8015610e835780601f10610e5857610100808354040283529160200191610e83565b820191906000526020600020905b815481529060010190602001808311610e6657829003601f168201915b50505050508152602001600b82018054610e9c906137b5565b80601f0160208091040260200160405190810160405280929190818152602001828054610ec8906137b5565b8015610f155780601f10610eea57610100808354040283529160200191610f15565b820191906000526020600020905b815481529060010190602001808311610ef857829003601f168201915b50505050508152602001600c82018054610f2e906137b5565b80601f0160208091040260200160405190810160405280929190818152602001828054610f5a906137b5565b8015610fa75780601f10610f7c57610100808354040283529160200191610fa7565b820191906000526020600020905b815481529060010190602001808311610f8a57829003601f168201915b50505050508152602001600d82018054610fc0906137b5565b80601f0160208091040260200160405190810160405280929190818152602001828054610fec906137b5565b80156110395780601f1061100e57610100808354040283529160200191611039565b820191906000526020600020905b81548152906001019060200180831161101c57829003601f168201915b5050509183525050600e8201546001600160a01b039081166020830152600f90920154909116604090910152905084565b60015460025460609190600090611081908361379e565b9050600080826001600160401b038111156110ac57634e487b7160e01b600052604160045260246000fd5b6040519080825280602002602001820160405280156110e557816020015b6110d2612fa8565b8152602001906001900390816110ca5790505b50905060005b84811015611a775730600080611102846001613786565b81526020810191909152604001600020601201546001600160a01b03161415611a65576000611132826001613786565b60008181526020818152604091829020825160808101909352805483526001810180549495509093849284019190611169906137b5565b80601f0160208091040260200160405190810160405280929190818152602001828054611195906137b5565b80156111e25780601f106111b7576101008083540402835291602001916111e2565b820191906000526020600020905b8154815290600101906020018083116111c557829003601f168201915b505050505081526020016002820180546111fb906137b5565b80601f0160208091040260200160405190810160405280929190818152602001828054611227906137b5565b80156112745780601f1061124957610100808354040283529160200191611274565b820191906000526020600020905b81548152906001019060200180831161125757829003601f168201915b50505050508152602001600382016040518061020001604052908160008201805461129e906137b5565b80601f01602080910402602001604051908101604052809291908181526020018280546112ca906137b5565b80156113175780601f106112ec57610100808354040283529160200191611317565b820191906000526020600020905b8154815290600101906020018083116112fa57829003601f168201915b50505050508152602001600182018054611330906137b5565b80601f016020809104026020016040519081016040528092919081815260200182805461135c906137b5565b80156113a95780601f1061137e576101008083540402835291602001916113a9565b820191906000526020600020905b81548152906001019060200180831161138c57829003601f168201915b505050505081526020016002820180546113c2906137b5565b80601f01602080910402602001604051908101604052809291908181526020018280546113ee906137b5565b801561143b5780601f106114105761010080835404028352916020019161143b565b820191906000526020600020905b81548152906001019060200180831161141e57829003601f168201915b50505050508152602001600382018054611454906137b5565b80601f0160208091040260200160405190810160405280929190818152602001828054611480906137b5565b80156114cd5780601f106114a2576101008083540402835291602001916114cd565b820191906000526020600020905b8154815290600101906020018083116114b057829003601f168201915b505050505081526020016004820180546114e6906137b5565b80601f0160208091040260200160405190810160405280929190818152602001828054611512906137b5565b801561155f5780601f106115345761010080835404028352916020019161155f565b820191906000526020600020905b81548152906001019060200180831161154257829003601f168201915b50505050508152602001600582018054611578906137b5565b80601f01602080910402602001604051908101604052809291908181526020018280546115a4906137b5565b80156115f15780601f106115c6576101008083540402835291602001916115f1565b820191906000526020600020905b8154815290600101906020018083116115d457829003601f168201915b5050505050815260200160068201548152602001600782018054611614906137b5565b80601f0160208091040260200160405190810160405280929190818152602001828054611640906137b5565b801561168d5780601f106116625761010080835404028352916020019161168d565b820191906000526020600020905b81548152906001019060200180831161167057829003601f168201915b505050505081526020016008820180546116a6906137b5565b80601f01602080910402602001604051908101604052809291908181526020018280546116d2906137b5565b801561171f5780601f106116f45761010080835404028352916020019161171f565b820191906000526020600020905b81548152906001019060200180831161170257829003601f168201915b50505050508152602001600982018054611738906137b5565b80601f0160208091040260200160405190810160405280929190818152602001828054611764906137b5565b80156117b15780601f10611786576101008083540402835291602001916117b1565b820191906000526020600020905b81548152906001019060200180831161179457829003601f168201915b50505050508152602001600a820180546117ca906137b5565b80601f01602080910402602001604051908101604052809291908181526020018280546117f6906137b5565b80156118435780601f1061181857610100808354040283529160200191611843565b820191906000526020600020905b81548152906001019060200180831161182657829003601f168201915b50505050508152602001600b8201805461185c906137b5565b80601f0160208091040260200160405190810160405280929190818152602001828054611888906137b5565b80156118d55780601f106118aa576101008083540402835291602001916118d5565b820191906000526020600020905b8154815290600101906020018083116118b857829003601f168201915b50505050508152602001600c820180546118ee906137b5565b80601f016020809104026020016040519081016040528092919081815260200182805461191a906137b5565b80156119675780601f1061193c57610100808354040283529160200191611967565b820191906000526020600020905b81548152906001019060200180831161194a57829003601f168201915b50505050508152602001600d82018054611980906137b5565b80601f01602080910402602001604051908101604052809291908181526020018280546119ac906137b5565b80156119f95780601f106119ce576101008083540402835291602001916119f9565b820191906000526020600020905b8154815290600101906020018083116119dc57829003601f168201915b5050509183525050600e8201546001600160a01b039081166020830152600f909201549091166040909101529052508451859087908110611a4a57634e487b7160e01b600052603260045260246000fd5b6020908102919091010152611a60600186613786565b945050505b80611a6f816137f0565b9150506110eb565b50949350505050565b600154606090600080826001600160401b03811115611aaf57634e487b7160e01b600052604160045260246000fd5b604051908082528060200260200182016040528015611ae857816020015b611ad5612fa8565b815260200190600190039081611acd5790505b50905060005b83811015612448576000611b03826001613786565b60008181526020818152604091829020825160808101909352805483526001810180549495509093849284019190611b3a906137b5565b80601f0160208091040260200160405190810160405280929190818152602001828054611b66906137b5565b8015611bb35780601f10611b8857610100808354040283529160200191611bb3565b820191906000526020600020905b815481529060010190602001808311611b9657829003601f168201915b50505050508152602001600282018054611bcc906137b5565b80601f0160208091040260200160405190810160405280929190818152602001828054611bf8906137b5565b8015611c455780601f10611c1a57610100808354040283529160200191611c45565b820191906000526020600020905b815481529060010190602001808311611c2857829003601f168201915b505050505081526020016003820160405180610200016040529081600082018054611c6f906137b5565b80601f0160208091040260200160405190810160405280929190818152602001828054611c9b906137b5565b8015611ce85780601f10611cbd57610100808354040283529160200191611ce8565b820191906000526020600020905b815481529060010190602001808311611ccb57829003601f168201915b50505050508152602001600182018054611d01906137b5565b80601f0160208091040260200160405190810160405280929190818152602001828054611d2d906137b5565b8015611d7a5780601f10611d4f57610100808354040283529160200191611d7a565b820191906000526020600020905b815481529060010190602001808311611d5d57829003601f168201915b50505050508152602001600282018054611d93906137b5565b80601f0160208091040260200160405190810160405280929190818152602001828054611dbf906137b5565b8015611e0c5780601f10611de157610100808354040283529160200191611e0c565b820191906000526020600020905b815481529060010190602001808311611def57829003601f168201915b50505050508152602001600382018054611e25906137b5565b80601f0160208091040260200160405190810160405280929190818152602001828054611e51906137b5565b8015611e9e5780601f10611e7357610100808354040283529160200191611e9e565b820191906000526020600020905b815481529060010190602001808311611e8157829003601f168201915b50505050508152602001600482018054611eb7906137b5565b80601f0160208091040260200160405190810160405280929190818152602001828054611ee3906137b5565b8015611f305780601f10611f0557610100808354040283529160200191611f30565b820191906000526020600020905b815481529060010190602001808311611f1357829003601f168201915b50505050508152602001600582018054611f49906137b5565b80601f0160208091040260200160405190810160405280929190818152602001828054611f75906137b5565b8015611fc25780601f10611f9757610100808354040283529160200191611fc2565b820191906000526020600020905b815481529060010190602001808311611fa557829003601f168201915b5050505050815260200160068201548152602001600782018054611fe5906137b5565b80601f0160208091040260200160405190810160405280929190818152602001828054612011906137b5565b801561205e5780601f106120335761010080835404028352916020019161205e565b820191906000526020600020905b81548152906001019060200180831161204157829003601f168201915b50505050508152602001600882018054612077906137b5565b80601f01602080910402602001604051908101604052809291908181526020018280546120a3906137b5565b80156120f05780601f106120c5576101008083540402835291602001916120f0565b820191906000526020600020905b8154815290600101906020018083116120d357829003601f168201915b50505050508152602001600982018054612109906137b5565b80601f0160208091040260200160405190810160405280929190818152602001828054612135906137b5565b80156121825780601f1061215757610100808354040283529160200191612182565b820191906000526020600020905b81548152906001019060200180831161216557829003601f168201915b50505050508152602001600a8201805461219b906137b5565b80601f01602080910402602001604051908101604052809291908181526020018280546121c7906137b5565b80156122145780601f106121e957610100808354040283529160200191612214565b820191906000526020600020905b8154815290600101906020018083116121f757829003601f168201915b50505050508152602001600b8201805461222d906137b5565b80601f0160208091040260200160405190810160405280929190818152602001828054612259906137b5565b80156122a65780601f1061227b576101008083540402835291602001916122a6565b820191906000526020600020905b81548152906001019060200180831161228957829003601f168201915b50505050508152602001600c820180546122bf906137b5565b80601f01602080910402602001604051908101604052809291908181526020018280546122eb906137b5565b80156123385780601f1061230d57610100808354040283529160200191612338565b820191906000526020600020905b81548152906001019060200180831161231b57829003601f168201915b50505050508152602001600d82018054612351906137b5565b80601f016020809104026020016040519081016040528092919081815260200182805461237d906137b5565b80156123ca5780601f1061239f576101008083540402835291602001916123ca565b820191906000526020600020905b8154815290600101906020018083116123ad57829003601f168201915b5050509183525050600e8201546001600160a01b039081166020830152600f90920154909116604090910152905250845185908790811061241b57634e487b7160e01b600052603260045260246000fd5b6020908102919091010152612431600186613786565b945050508080612440906137f0565b915050611aee565b509392505050565b600154606090600080805b838110156124b55733600080612472846001613786565b81526020810191909152604001600020601201546001600160a01b031614156124a3576124a0600184613786565b92505b806124ad816137f0565b91505061245b565b506000826001600160401b038111156124de57634e487b7160e01b600052604160045260246000fd5b60405190808252806020026020018201604052801561251757816020015b612504612fa8565b8152602001906001900390816124fc5790505b50905060005b84811015611a775733600080612534846001613786565b81526020810191909152604001600020601201546001600160a01b03161415612e97576000612564826001613786565b6000818152602081815260409182902082516080810190935280548352600181018054949550909384928401919061259b906137b5565b80601f01602080910402602001604051908101604052809291908181526020018280546125c7906137b5565b80156126145780601f106125e957610100808354040283529160200191612614565b820191906000526020600020905b8154815290600101906020018083116125f757829003601f168201915b5050505050815260200160028201805461262d906137b5565b80601f0160208091040260200160405190810160405280929190818152602001828054612659906137b5565b80156126a65780601f1061267b576101008083540402835291602001916126a6565b820191906000526020600020905b81548152906001019060200180831161268957829003601f168201915b5050505050815260200160038201604051806102000160405290816000820180546126d0906137b5565b80601f01602080910402602001604051908101604052809291908181526020018280546126fc906137b5565b80156127495780601f1061271e57610100808354040283529160200191612749565b820191906000526020600020905b81548152906001019060200180831161272c57829003601f168201915b50505050508152602001600182018054612762906137b5565b80601f016020809104026020016040519081016040528092919081815260200182805461278e906137b5565b80156127db5780601f106127b0576101008083540402835291602001916127db565b820191906000526020600020905b8154815290600101906020018083116127be57829003601f168201915b505050505081526020016002820180546127f4906137b5565b80601f0160208091040260200160405190810160405280929190818152602001828054612820906137b5565b801561286d5780601f106128425761010080835404028352916020019161286d565b820191906000526020600020905b81548152906001019060200180831161285057829003601f168201915b50505050508152602001600382018054612886906137b5565b80601f01602080910402602001604051908101604052809291908181526020018280546128b2906137b5565b80156128ff5780601f106128d4576101008083540402835291602001916128ff565b820191906000526020600020905b8154815290600101906020018083116128e257829003601f168201915b50505050508152602001600482018054612918906137b5565b80601f0160208091040260200160405190810160405280929190818152602001828054612944906137b5565b80156129915780601f1061296657610100808354040283529160200191612991565b820191906000526020600020905b81548152906001019060200180831161297457829003601f168201915b505050505081526020016005820180546129aa906137b5565b80601f01602080910402602001604051908101604052809291908181526020018280546129d6906137b5565b8015612a235780601f106129f857610100808354040283529160200191612a23565b820191906000526020600020905b815481529060010190602001808311612a0657829003601f168201915b5050505050815260200160068201548152602001600782018054612a46906137b5565b80601f0160208091040260200160405190810160405280929190818152602001828054612a72906137b5565b8015612abf5780601f10612a9457610100808354040283529160200191612abf565b820191906000526020600020905b815481529060010190602001808311612aa257829003601f168201915b50505050508152602001600882018054612ad8906137b5565b80601f0160208091040260200160405190810160405280929190818152602001828054612b04906137b5565b8015612b515780601f10612b2657610100808354040283529160200191612b51565b820191906000526020600020905b815481529060010190602001808311612b3457829003601f168201915b50505050508152602001600982018054612b6a906137b5565b80601f0160208091040260200160405190810160405280929190818152602001828054612b96906137b5565b8015612be35780601f10612bb857610100808354040283529160200191612be3565b820191906000526020600020905b815481529060010190602001808311612bc657829003601f168201915b50505050508152602001600a82018054612bfc906137b5565b80601f0160208091040260200160405190810160405280929190818152602001828054612c28906137b5565b8015612c755780601f10612c4a57610100808354040283529160200191612c75565b820191906000526020600020905b815481529060010190602001808311612c5857829003601f168201915b50505050508152602001600b82018054612c8e906137b5565b80601f0160208091040260200160405190810160405280929190818152602001828054612cba906137b5565b8015612d075780601f10612cdc57610100808354040283529160200191612d07565b820191906000526020600020905b815481529060010190602001808311612cea57829003601f168201915b50505050508152602001600c82018054612d20906137b5565b80601f0160208091040260200160405190810160405280929190818152602001828054612d4c906137b5565b8015612d995780601f10612d6e57610100808354040283529160200191612d99565b820191906000526020600020905b815481529060010190602001808311612d7c57829003601f168201915b50505050508152602001600d82018054612db2906137b5565b80601f0160208091040260200160405190810160405280929190818152602001828054612dde906137b5565b8015612e2b5780601f10612e0057610100808354040283529160200191612e2b565b820191906000526020600020905b815481529060010190602001808311612e0e57829003601f168201915b5050509183525050600e8201546001600160a01b039081166020830152600f909201549091166040909101529052508451859087908110612e7c57634e487b7160e01b600052603260045260246000fd5b6020908102919091010152612e92600186613786565b945050505b80612ea1816137f0565b91505061251d565b828054612eb5906137b5565b90600052602060002090601f016020900481019282612ed75760008555612f1d565b82601f10612ef057805160ff1916838001178555612f1d565b82800160010185558215612f1d579182015b82811115612f1d578251825591602001919060010190612f02565b50612f2992915061305f565b5090565b828054612f39906137b5565b90600052602060002090601f016020900481019282612f5b5760008555612f1d565b82601f10612f6c5780548555612f1d565b82800160010185558215612f1d57600052602060002091601f016020900482015b82811115612f1d578254825591600101919060010190612f8d565b604051806080016040528060008152602001606081526020016060815260200161305a604051806102000160405280606081526020016060815260200160608152602001606081526020016060815260200160608152602001600081526020016060815260200160608152602001606081526020016060815260200160608152602001606081526020016060815260200160006001600160a01b0316815260200160006001600160a01b031681525090565b905290565b5b80821115612f295760008155600101613060565b80356001600160a01b038116811461308b57600080fd5b919050565b600082601f8301126130a0578081fd5b81356001600160401b03808211156130ba576130ba613821565b604051601f8301601f19908116603f011681019082821181831017156130e2576130e2613821565b816040528381528660208588010111156130fa578485fd5b8360208701602083013792830160200193909352509392505050565b60006102008284031215613128578081fd5b61313061373b565b905081356001600160401b038082111561314957600080fd5b61315585838601613090565b8352602084013591508082111561316b57600080fd5b61317785838601613090565b6020840152604084013591508082111561319057600080fd5b61319c85838601613090565b604084015260608401359150808211156131b557600080fd5b6131c185838601613090565b606084015260808401359150808211156131da57600080fd5b6131e685838601613090565b608084015260a08401359150808211156131ff57600080fd5b61320b85838601613090565b60a084015260c084013560c084015260e084013591508082111561322e57600080fd5b61323a85838601613090565b60e08401526101009150818401358181111561325557600080fd5b61326186828701613090565b83850152506101209150818401358181111561327c57600080fd5b61328886828701613090565b8385015250610140915081840135818111156132a357600080fd5b6132af86828701613090565b8385015250610160915081840135818111156132ca57600080fd5b6132d686828701613090565b8385015250610180915081840135818111156132f157600080fd5b6132fd86828701613090565b83850152506101a09150818401358181111561331857600080fd5b61332486828701613090565b838501525050506101c0613339818401613074565b908201526101e061334b838201613074565b9082015292915050565b600060208284031215613366578081fd5b81356001600160401b038082111561337c578283fd5b908301906080828603121561338f578283fd5b613397613764565b823581526020830135828111156133ac578485fd5b6133b887828601613090565b6020830152506040830135828111156133cf578485fd5b6133db87828601613090565b6040830152506060830135828111156133f2578485fd5b6133fe87828601613116565b60608301525095945050505050565b60006020828403121561341e578081fd5b5035919050565b6001600160a01b03169052565b60008151808452815b818110156134575760208185018101518683018201520161343b565b818111156134685782602083870101525b50601f01601f19169290920160200192915050565b6000610200825181855261349382860182613432565b915050602083015184820360208601526134ad8282613432565b915050604083015184820360408601526134c78282613432565b915050606083015184820360608601526134e18282613432565b915050608083015184820360808601526134fb8282613432565b91505060a083015184820360a08601526135158282613432565b91505060c083015160c085015260e083015184820360e08601526135398282613432565b91505061010080840151858303828701526135548382613432565b9250505061012080840151858303828701526135708382613432565b92505050610140808401518583038287015261358c8382613432565b9250505061016080840151858303828701526135a88382613432565b9250505061018080840151858303828701526135c48382613432565b925050506101a080840151858303828701526135e08382613432565b925050506101c0808401516135f782870182613425565b50506101e08084015161360c82870182613425565b5090949350505050565b60006020808301818452808551808352604092508286019150828160051b870101848801865b838110156136b357603f19898403018552815160808151855288820151818a87015261366a82870182613432565b91505087820151858203898701526136828282613432565b9150506060808301519250858203818701525061369f818361347d565b96890196945050509086019060010161363c565b509098975050505050505050565b602080825260169082015275125b5859d94812185cda081a5cc81c995c5d5a5c995960521b604082015260600190565b84815260806020820152600061370a6080830186613432565b828103604084015261371c8186613432565b90508281036060840152613730818561347d565b979650505050505050565b60405161020081016001600160401b038111828210171561375e5761375e613821565b60405290565b604051608081016001600160401b038111828210171561375e5761375e613821565b600082198211156137995761379961380b565b500190565b6000828210156137b0576137b061380b565b500390565b600181811c908216806137c957607f821691505b602082108114156137ea57634e487b7160e01b600052602260045260246000fd5b50919050565b60006000198214156138045761380461380b565b5060010190565b634e487b7160e01b600052601160045260246000fd5b634e487b7160e01b600052604160045260246000fdfea2646970667358221220add80bff3d37302f4c3e954655feaa272ec232b614809927e30ca1411c13d6a764736f6c63430008040033",
  "linkReferences": {},
  "deployedLinkReferences": {}
}